{
  "_format": "hh-sol-artifact-1",
  "contractName": "SmartRentHub",
  "sourceName": "contracts/SmartRentHub.sol",
  "abi": [
    {
      "inputs": [
        {
          "internalType": "address",
          "name": "initialOwner",
          "type": "address"
        },
        {
          "internalType": "address",
          "name": "_feeRecipient",
          "type": "address"
        }
      ],
      "stateMutability": "nonpayable",
      "type": "constructor"
    },
    {
      "inputs": [],
      "name": "EnforcedPause",
      "type": "error"
    },
    {
      "inputs": [],
      "name": "ExpectedPause",
      "type": "error"
    },
    {
      "inputs": [
        {
          "internalType": "address",
          "name": "owner",
          "type": "address"
        }
      ],
      "name": "OwnableInvalidOwner",
      "type": "error"
    },
    {
      "inputs": [
        {
          "internalType": "address",
          "name": "account",
          "type": "address"
        }
      ],
      "name": "OwnableUnauthorizedAccount",
      "type": "error"
    },
    {
      "inputs": [],
      "name": "ReentrancyGuardReentrantCall",
      "type": "error"
    },
    {
      "anonymous": false,
      "inputs": [
        {
          "indexed": true,
          "internalType": "uint256",
          "name": "tokenId",
          "type": "uint256"
        },
        {
          "indexed": true,
          "internalType": "address",
          "name": "initialOwner",
          "type": "address"
        },
        {
          "indexed": false,
          "internalType": "uint256",
          "name": "totalShares",
          "type": "uint256"
        },
        {
          "indexed": false,
          "internalType": "string",
          "name": "metadataURI",
          "type": "string"
        }
      ],
      "name": "AssetRegistered",
      "type": "event"
    },
    {
      "anonymous": false,
      "inputs": [
        {
          "indexed": true,
          "internalType": "address",
          "name": "newToken",
          "type": "address"
        }
      ],
      "name": "BuildingTokenUpdated",
      "type": "event"
    },
    {
      "anonymous": false,
      "inputs": [
        {
          "indexed": true,
          "internalType": "address",
          "name": "newRecipient",
          "type": "address"
        }
      ],
      "name": "FeeRecipientUpdated",
      "type": "event"
    },
    {
      "anonymous": false,
      "inputs": [
        {
          "indexed": true,
          "internalType": "uint256",
          "name": "listingId",
          "type": "uint256"
        },
        {
          "indexed": true,
          "internalType": "address",
          "name": "seller",
          "type": "address"
        }
      ],
      "name": "ListingCancelled",
      "type": "event"
    },
    {
      "anonymous": false,
      "inputs": [
        {
          "indexed": true,
          "internalType": "uint256",
          "name": "listingId",
          "type": "uint256"
        },
        {
          "indexed": true,
          "internalType": "uint256",
          "name": "tokenId",
          "type": "uint256"
        },
        {
          "indexed": true,
          "internalType": "address",
          "name": "seller",
          "type": "address"
        },
        {
          "indexed": false,
          "internalType": "uint256",
          "name": "sharesForSale",
          "type": "uint256"
        },
        {
          "indexed": false,
          "internalType": "uint256",
          "name": "pricePerShare",
          "type": "uint256"
        }
      ],
      "name": "ListingCreated",
      "type": "event"
    },
    {
      "anonymous": false,
      "inputs": [
        {
          "indexed": true,
          "internalType": "uint256",
          "name": "listingId",
          "type": "uint256"
        },
        {
          "indexed": true,
          "internalType": "uint256",
          "name": "tokenId",
          "type": "uint256"
        },
        {
          "indexed": true,
          "internalType": "address",
          "name": "buyer",
          "type": "address"
        },
        {
          "indexed": false,
          "internalType": "address",
          "name": "seller",
          "type": "address"
        },
        {
          "indexed": false,
          "internalType": "uint256",
          "name": "sharesBought",
          "type": "uint256"
        },
        {
          "indexed": false,
          "internalType": "uint256",
          "name": "totalPrice",
          "type": "uint256"
        }
      ],
      "name": "ListingPurchased",
      "type": "event"
    },
    {
      "anonymous": false,
      "inputs": [
        {
          "indexed": true,
          "internalType": "address",
          "name": "previousOwner",
          "type": "address"
        },
        {
          "indexed": true,
          "internalType": "address",
          "name": "newOwner",
          "type": "address"
        }
      ],
      "name": "OwnershipTransferred",
      "type": "event"
    },
    {
      "anonymous": false,
      "inputs": [
        {
          "indexed": true,
          "internalType": "uint256",
          "name": "tokenId",
          "type": "uint256"
        },
        {
          "indexed": true,
          "internalType": "address",
          "name": "from",
          "type": "address"
        },
        {
          "indexed": true,
          "internalType": "address",
          "name": "to",
          "type": "address"
        },
        {
          "indexed": false,
          "internalType": "uint256",
          "name": "amount",
          "type": "uint256"
        }
      ],
      "name": "OwnershipUpdated",
      "type": "event"
    },
    {
      "anonymous": false,
      "inputs": [
        {
          "indexed": false,
          "internalType": "address",
          "name": "account",
          "type": "address"
        }
      ],
      "name": "Paused",
      "type": "event"
    },
    {
      "anonymous": false,
      "inputs": [
        {
          "indexed": false,
          "internalType": "uint256",
          "name": "newFeeBps",
          "type": "uint256"
        }
      ],
      "name": "PlatformFeeUpdated",
      "type": "event"
    },
    {
      "anonymous": false,
      "inputs": [
        {
          "indexed": false,
          "internalType": "address",
          "name": "account",
          "type": "address"
        }
      ],
      "name": "Unpaused",
      "type": "event"
    },
    {
      "inputs": [
        {
          "internalType": "uint256",
          "name": "",
          "type": "uint256"
        }
      ],
      "name": "allTokenIds",
      "outputs": [
        {
          "internalType": "uint256",
          "name": "",
          "type": "uint256"
        }
      ],
      "stateMutability": "view",
      "type": "function"
    },
    {
      "inputs": [
        {
          "internalType": "uint256",
          "name": "",
          "type": "uint256"
        }
      ],
      "name": "assets",
      "outputs": [
        {
          "internalType": "uint256",
          "name": "tokenId",
          "type": "uint256"
        },
        {
          "internalType": "string",
          "name": "metadataURI",
          "type": "string"
        },
        {
          "internalType": "uint256",
          "name": "totalShares",
          "type": "uint256"
        },
        {
          "internalType": "uint256",
          "name": "createdAt",
          "type": "uint256"
        },
        {
          "internalType": "bool",
          "name": "exists",
          "type": "bool"
        }
      ],
      "stateMutability": "view",
      "type": "function"
    },
    {
      "inputs": [],
      "name": "buildingToken",
      "outputs": [
        {
          "internalType": "address",
          "name": "",
          "type": "address"
        }
      ],
      "stateMutability": "view",
      "type": "function"
    },
    {
      "inputs": [
        {
          "internalType": "uint256",
          "name": "listingId",
          "type": "uint256"
        },
        {
          "internalType": "uint256",
          "name": "sharesToBuy",
          "type": "uint256"
        }
      ],
      "name": "buyFromListing",
      "outputs": [],
      "stateMutability": "payable",
      "type": "function"
    },
    {
      "inputs": [
        {
          "internalType": "uint256",
          "name": "listingId",
          "type": "uint256"
        }
      ],
      "name": "cancelListing",
      "outputs": [],
      "stateMutability": "nonpayable",
      "type": "function"
    },
    {
      "inputs": [
        {
          "internalType": "uint256",
          "name": "tokenId",
          "type": "uint256"
        },
        {
          "internalType": "uint256",
          "name": "sharesForSale",
          "type": "uint256"
        },
        {
          "internalType": "uint256",
          "name": "pricePerShare",
          "type": "uint256"
        }
      ],
      "name": "createListing",
      "outputs": [
        {
          "internalType": "uint256",
          "name": "listingId",
          "type": "uint256"
        }
      ],
      "stateMutability": "nonpayable",
      "type": "function"
    },
    {
      "inputs": [],
      "name": "emergencyWithdraw",
      "outputs": [],
      "stateMutability": "nonpayable",
      "type": "function"
    },
    {
      "inputs": [],
      "name": "feeRecipient",
      "outputs": [
        {
          "internalType": "address",
          "name": "",
          "type": "address"
        }
      ],
      "stateMutability": "view",
      "type": "function"
    },
    {
      "inputs": [],
      "name": "getActiveListings",
      "outputs": [
        {
          "components": [
            {
              "internalType": "uint256",
              "name": "listingId",
              "type": "uint256"
            },
            {
              "internalType": "uint256",
              "name": "tokenId",
              "type": "uint256"
            },
            {
              "internalType": "address",
              "name": "seller",
              "type": "address"
            },
            {
              "internalType": "uint256",
              "name": "sharesForSale",
              "type": "uint256"
            },
            {
              "internalType": "uint256",
              "name": "sharesRemaining",
              "type": "uint256"
            },
            {
              "internalType": "uint256",
              "name": "pricePerShare",
              "type": "uint256"
            },
            {
              "internalType": "bool",
              "name": "isActive",
              "type": "bool"
            },
            {
              "internalType": "uint256",
              "name": "createdAt",
              "type": "uint256"
            }
          ],
          "internalType": "struct SmartRentHub.Listing[]",
          "name": "",
          "type": "tuple[]"
        }
      ],
      "stateMutability": "view",
      "type": "function"
    },
    {
      "inputs": [],
      "name": "getActiveListingsCount",
      "outputs": [
        {
          "internalType": "uint256",
          "name": "",
          "type": "uint256"
        }
      ],
      "stateMutability": "view",
      "type": "function"
    },
    {
      "inputs": [],
      "name": "getActiveListingsWithDetails",
      "outputs": [
        {
          "components": [
            {
              "internalType": "uint256",
              "name": "listingId",
              "type": "uint256"
            },
            {
              "internalType": "uint256",
              "name": "tokenId",
              "type": "uint256"
            },
            {
              "internalType": "address",
              "name": "seller",
              "type": "address"
            },
            {
              "internalType": "uint256",
              "name": "sharesForSale",
              "type": "uint256"
            },
            {
              "internalType": "uint256",
              "name": "sharesRemaining",
              "type": "uint256"
            },
            {
              "internalType": "uint256",
              "name": "pricePerShare",
              "type": "uint256"
            },
            {
              "internalType": "uint256",
              "name": "createdAt",
              "type": "uint256"
            },
            {
              "internalType": "string",
              "name": "metadataURI",
              "type": "string"
            },
            {
              "internalType": "uint256",
              "name": "totalShares",
              "type": "uint256"
            }
          ],
          "internalType": "struct SmartRentHub.ListingWithAsset[]",
          "name": "",
          "type": "tuple[]"
        }
      ],
      "stateMutability": "view",
      "type": "function"
    },
    {
      "inputs": [],
      "name": "getAllAssets",
      "outputs": [
        {
          "components": [
            {
              "internalType": "uint256",
              "name": "tokenId",
              "type": "uint256"
            },
            {
              "internalType": "string",
              "name": "metadataURI",
              "type": "string"
            },
            {
              "internalType": "uint256",
              "name": "totalShares",
              "type": "uint256"
            },
            {
              "internalType": "uint256",
              "name": "createdAt",
              "type": "uint256"
            },
            {
              "internalType": "bool",
              "name": "exists",
              "type": "bool"
            }
          ],
          "internalType": "struct SmartRentHub.AssetInfo[]",
          "name": "",
          "type": "tuple[]"
        }
      ],
      "stateMutability": "view",
      "type": "function"
    },
    {
      "inputs": [
        {
          "internalType": "uint256",
          "name": "tokenId",
          "type": "uint256"
        }
      ],
      "name": "getAsset",
      "outputs": [
        {
          "components": [
            {
              "internalType": "uint256",
              "name": "tokenId",
              "type": "uint256"
            },
            {
              "internalType": "string",
              "name": "metadataURI",
              "type": "string"
            },
            {
              "internalType": "uint256",
              "name": "totalShares",
              "type": "uint256"
            },
            {
              "internalType": "uint256",
              "name": "createdAt",
              "type": "uint256"
            },
            {
              "internalType": "bool",
              "name": "exists",
              "type": "bool"
            }
          ],
          "internalType": "struct SmartRentHub.AssetInfo",
          "name": "",
          "type": "tuple"
        }
      ],
      "stateMutability": "view",
      "type": "function"
    },
    {
      "inputs": [
        {
          "internalType": "uint256",
          "name": "tokenId",
          "type": "uint256"
        }
      ],
      "name": "getAssetOwners",
      "outputs": [
        {
          "internalType": "address[]",
          "name": "",
          "type": "address[]"
        }
      ],
      "stateMutability": "view",
      "type": "function"
    },
    {
      "inputs": [
        {
          "internalType": "address",
          "name": "owner",
          "type": "address"
        }
      ],
      "name": "getAssetsByOwner",
      "outputs": [
        {
          "internalType": "uint256[]",
          "name": "",
          "type": "uint256[]"
        }
      ],
      "stateMutability": "view",
      "type": "function"
    },
    {
      "inputs": [
        {
          "internalType": "address",
          "name": "owner",
          "type": "address"
        }
      ],
      "name": "getAssetsWithBalances",
      "outputs": [
        {
          "components": [
            {
              "internalType": "uint256",
              "name": "tokenId",
              "type": "uint256"
            },
            {
              "internalType": "string",
              "name": "metadataURI",
              "type": "string"
            },
            {
              "internalType": "uint256",
              "name": "totalShares",
              "type": "uint256"
            },
            {
              "internalType": "uint256",
              "name": "balance",
              "type": "uint256"
            },
            {
              "internalType": "uint256",
              "name": "createdAt",
              "type": "uint256"
            }
          ],
          "internalType": "struct SmartRentHub.AssetWithBalance[]",
          "name": "",
          "type": "tuple[]"
        }
      ],
      "stateMutability": "view",
      "type": "function"
    },
    {
      "inputs": [
        {
          "internalType": "uint256",
          "name": "listingId",
          "type": "uint256"
        }
      ],
      "name": "getListing",
      "outputs": [
        {
          "components": [
            {
              "internalType": "uint256",
              "name": "listingId",
              "type": "uint256"
            },
            {
              "internalType": "uint256",
              "name": "tokenId",
              "type": "uint256"
            },
            {
              "internalType": "address",
              "name": "seller",
              "type": "address"
            },
            {
              "internalType": "uint256",
              "name": "sharesForSale",
              "type": "uint256"
            },
            {
              "internalType": "uint256",
              "name": "sharesRemaining",
              "type": "uint256"
            },
            {
              "internalType": "uint256",
              "name": "pricePerShare",
              "type": "uint256"
            },
            {
              "internalType": "bool",
              "name": "isActive",
              "type": "bool"
            },
            {
              "internalType": "uint256",
              "name": "createdAt",
              "type": "uint256"
            }
          ],
          "internalType": "struct SmartRentHub.Listing",
          "name": "",
          "type": "tuple"
        }
      ],
      "stateMutability": "view",
      "type": "function"
    },
    {
      "inputs": [
        {
          "internalType": "uint256",
          "name": "tokenId",
          "type": "uint256"
        }
      ],
      "name": "getListingsByAsset",
      "outputs": [
        {
          "components": [
            {
              "internalType": "uint256",
              "name": "listingId",
              "type": "uint256"
            },
            {
              "internalType": "uint256",
              "name": "tokenId",
              "type": "uint256"
            },
            {
              "internalType": "address",
              "name": "seller",
              "type": "address"
            },
            {
              "internalType": "uint256",
              "name": "sharesForSale",
              "type": "uint256"
            },
            {
              "internalType": "uint256",
              "name": "sharesRemaining",
              "type": "uint256"
            },
            {
              "internalType": "uint256",
              "name": "pricePerShare",
              "type": "uint256"
            },
            {
              "internalType": "bool",
              "name": "isActive",
              "type": "bool"
            },
            {
              "internalType": "uint256",
              "name": "createdAt",
              "type": "uint256"
            }
          ],
          "internalType": "struct SmartRentHub.Listing[]",
          "name": "",
          "type": "tuple[]"
        }
      ],
      "stateMutability": "view",
      "type": "function"
    },
    {
      "inputs": [
        {
          "internalType": "address",
          "name": "seller",
          "type": "address"
        }
      ],
      "name": "getListingsBySeller",
      "outputs": [
        {
          "components": [
            {
              "internalType": "uint256",
              "name": "listingId",
              "type": "uint256"
            },
            {
              "internalType": "uint256",
              "name": "tokenId",
              "type": "uint256"
            },
            {
              "internalType": "address",
              "name": "seller",
              "type": "address"
            },
            {
              "internalType": "uint256",
              "name": "sharesForSale",
              "type": "uint256"
            },
            {
              "internalType": "uint256",
              "name": "sharesRemaining",
              "type": "uint256"
            },
            {
              "internalType": "uint256",
              "name": "pricePerShare",
              "type": "uint256"
            },
            {
              "internalType": "bool",
              "name": "isActive",
              "type": "bool"
            },
            {
              "internalType": "uint256",
              "name": "createdAt",
              "type": "uint256"
            }
          ],
          "internalType": "struct SmartRentHub.Listing[]",
          "name": "",
          "type": "tuple[]"
        }
      ],
      "stateMutability": "view",
      "type": "function"
    },
    {
      "inputs": [],
      "name": "getTotalAssets",
      "outputs": [
        {
          "internalType": "uint256",
          "name": "",
          "type": "uint256"
        }
      ],
      "stateMutability": "view",
      "type": "function"
    },
    {
      "inputs": [
        {
          "internalType": "address",
          "name": "account",
          "type": "address"
        },
        {
          "internalType": "uint256",
          "name": "tokenId",
          "type": "uint256"
        }
      ],
      "name": "isOwnerOf",
      "outputs": [
        {
          "internalType": "bool",
          "name": "",
          "type": "bool"
        }
      ],
      "stateMutability": "view",
      "type": "function"
    },
    {
      "inputs": [
        {
          "internalType": "uint256",
          "name": "",
          "type": "uint256"
        }
      ],
      "name": "listings",
      "outputs": [
        {
          "internalType": "uint256",
          "name": "listingId",
          "type": "uint256"
        },
        {
          "internalType": "uint256",
          "name": "tokenId",
          "type": "uint256"
        },
        {
          "internalType": "address",
          "name": "seller",
          "type": "address"
        },
        {
          "internalType": "uint256",
          "name": "sharesForSale",
          "type": "uint256"
        },
        {
          "internalType": "uint256",
          "name": "sharesRemaining",
          "type": "uint256"
        },
        {
          "internalType": "uint256",
          "name": "pricePerShare",
          "type": "uint256"
        },
        {
          "internalType": "bool",
          "name": "isActive",
          "type": "bool"
        },
        {
          "internalType": "uint256",
          "name": "createdAt",
          "type": "uint256"
        }
      ],
      "stateMutability": "view",
      "type": "function"
    },
    {
      "inputs": [],
      "name": "nextListingId",
      "outputs": [
        {
          "internalType": "uint256",
          "name": "",
          "type": "uint256"
        }
      ],
      "stateMutability": "view",
      "type": "function"
    },
    {
      "inputs": [],
      "name": "owner",
      "outputs": [
        {
          "internalType": "address",
          "name": "",
          "type": "address"
        }
      ],
      "stateMutability": "view",
      "type": "function"
    },
    {
      "inputs": [],
      "name": "pause",
      "outputs": [],
      "stateMutability": "nonpayable",
      "type": "function"
    },
    {
      "inputs": [],
      "name": "paused",
      "outputs": [
        {
          "internalType": "bool",
          "name": "",
          "type": "bool"
        }
      ],
      "stateMutability": "view",
      "type": "function"
    },
    {
      "inputs": [],
      "name": "platformFeeBps",
      "outputs": [
        {
          "internalType": "uint256",
          "name": "",
          "type": "uint256"
        }
      ],
      "stateMutability": "view",
      "type": "function"
    },
    {
      "inputs": [
        {
          "internalType": "uint256",
          "name": "tokenId",
          "type": "uint256"
        },
        {
          "internalType": "address",
          "name": "owner",
          "type": "address"
        },
        {
          "internalType": "uint256",
          "name": "totalShares",
          "type": "uint256"
        },
        {
          "internalType": "string",
          "name": "metadataURI",
          "type": "string"
        }
      ],
      "name": "registerAsset",
      "outputs": [],
      "stateMutability": "nonpayable",
      "type": "function"
    },
    {
      "inputs": [],
      "name": "renounceOwnership",
      "outputs": [],
      "stateMutability": "nonpayable",
      "type": "function"
    },
    {
      "inputs": [
        {
          "internalType": "address",
          "name": "_buildingToken",
          "type": "address"
        }
      ],
      "name": "setBuildingToken",
      "outputs": [],
      "stateMutability": "nonpayable",
      "type": "function"
    },
    {
      "inputs": [
        {
          "internalType": "address",
          "name": "_feeRecipient",
          "type": "address"
        }
      ],
      "name": "setFeeRecipient",
      "outputs": [],
      "stateMutability": "nonpayable",
      "type": "function"
    },
    {
      "inputs": [
        {
          "internalType": "uint256",
          "name": "newFeeBps",
          "type": "uint256"
        }
      ],
      "name": "setPlatformFee",
      "outputs": [],
      "stateMutability": "nonpayable",
      "type": "function"
    },
    {
      "inputs": [
        {
          "internalType": "address",
          "name": "newOwner",
          "type": "address"
        }
      ],
      "name": "transferOwnership",
      "outputs": [],
      "stateMutability": "nonpayable",
      "type": "function"
    },
    {
      "inputs": [],
      "name": "unpause",
      "outputs": [],
      "stateMutability": "nonpayable",
      "type": "function"
    },
    {
      "inputs": [
        {
          "internalType": "uint256",
          "name": "tokenId",
          "type": "uint256"
        },
        {
          "internalType": "address",
          "name": "from",
          "type": "address"
        },
        {
          "internalType": "address",
          "name": "to",
          "type": "address"
        },
        {
          "internalType": "uint256",
          "name": "amount",
          "type": "uint256"
        }
      ],
      "name": "updateOwnership",
      "outputs": [],
      "stateMutability": "nonpayable",
      "type": "function"
    }
  ],
  "bytecode": "0x60806040526001600b5560fa600e553480156200001b57600080fd5b50604051620039a3380380620039a38339810160408190526200003e916200017d565b816001600160a01b0381166200006f57604051631e4fbdf760e01b8152600060048201526024015b60405180910390fd5b6200007a8162000110565b50600180556001600160a01b038116620000e95760405162461bcd60e51b815260206004820152602960248201527f536d61727452656e744875623a20666565526563697069656e742063616e6e6f60448201526874206265207a65726f60b81b606482015260840162000066565b600f80546001600160a01b0319166001600160a01b039290921691909117905550620001b5565b600080546001600160a01b038381166001600160a01b0319831681178455604051919092169283917f8be0079c531659141344cd1fd0a4f28419497f9722a3daafe3b4186f6b6457e09190a35050565b80516001600160a01b03811681146200017857600080fd5b919050565b600080604083850312156200019157600080fd5b6200019c8362000160565b9150620001ac6020840162000160565b90509250929050565b6137de80620001c56000396000f3fe6080604052600436106102045760003560e01c80637b55927c11610118578063c5b8f772116100a0578063de74e57b1161006f578063de74e57b146105e9578063e74b981b146106a0578063eac8f5b8146106c0578063f00d89c2146106ed578063f2fde38b1461070d57600080fd5b8063c5b8f77214610563578063cf35bdd014610583578063d8cba251146105b4578063db2e21bc146105d457600080fd5b80638da5cb5b116100e75780638da5cb5b146104cd578063a843b3ee146104eb578063aaccf1ec1461050b578063b03053b614610521578063b68e52f21461054157600080fd5b80637b55927c146104615780637d07b2d2146104765780638456cb591461049657806387c35bc0146104ab57600080fd5b8063379817cf1161019b5780635c975abb1161016a5780635c975abb146103c1578063644ad445146103e5578063686735c51461040a5780636e07302b14610437578063715018a61461044c57600080fd5b8063379817cf146103345780633f4ba83a1461036157806346904840146103765780634e8cdd9c146103ae57600080fd5b8063276f0934116101d7578063276f0934146102a55780632acada4d146102d2578063305a67a8146102f457806332955d981461031457600080fd5b8063107a274a1461020957806312e8e2c31461023f5780631af452d61461026157806322dcd13e14610281575b600080fd5b34801561021557600080fd5b50610229610224366004612f47565b61072d565b6040516102369190612fb8565b60405180910390f35b34801561024b57600080fd5b5061025f61025a366004612f47565b61081f565b005b34801561026d57600080fd5b5061025f61027c366004612fe3565b6108c0565b34801561028d57600080fd5b50610297600e5481565b604051908152602001610236565b3480156102b157600080fd5b506102c56102c0366004613077565b610b58565b6040516102369190613092565b3480156102de57600080fd5b506102e7610bc4565b6040516102369190613167565b34801561030057600080fd5b5061025f61030f366004612f47565b610d8c565b34801561032057600080fd5b5061025f61032f3660046131c9565b610ea9565b34801561034057600080fd5b5061035461034f366004613077565b611036565b604051610236919061320d565b34801561036d57600080fd5b5061025f6112d4565b34801561038257600080fd5b50600f54610396906001600160a01b031681565b6040516001600160a01b039091168152602001610236565b61025f6103bc3660046132a2565b6112e6565b3480156103cd57600080fd5b5060025460ff165b6040519015158152602001610236565b3480156103f157600080fd5b506002546103969061010090046001600160a01b031681565b34801561041657600080fd5b5061042a610425366004612f47565b611867565b60405161023691906132c4565b34801561044357600080fd5b50600454610297565b34801561045857600080fd5b5061025f611904565b34801561046d57600080fd5b50600c54610297565b34801561048257600080fd5b50610297610491366004612f47565b611916565b3480156104a257600080fd5b5061025f611937565b3480156104b757600080fd5b506104c0611947565b6040516102369190613305565b3480156104d957600080fd5b506000546001600160a01b0316610396565b3480156104f757600080fd5b506104c0610506366004612f47565b611a7a565b34801561051757600080fd5b50610297600b5481565b34801561052d57600080fd5b5061029761053c366004613348565b611c67565b34801561054d57600080fd5b50610556612060565b6040516102369190613374565b34801561056f57600080fd5b506103d561057e366004613433565b6122a1565b34801561058f57600080fd5b506105a361059e366004612f47565b6122ce565b60405161023695949392919061345d565b3480156105c057600080fd5b506104c06105cf366004613077565b61238a565b3480156105e057600080fd5b5061025f612595565b3480156105f557600080fd5b50610657610604366004612f47565b600a6020526000908152604090208054600182015460028301546003840154600485015460058601546006870154600790970154959694956001600160a01b039094169492939192909160ff9091169088565b6040805198895260208901979097526001600160a01b03909516958701959095526060860192909252608085015260a084015290151560c083015260e082015261010001610236565b3480156106ac57600080fd5b5061025f6106bb366004613077565b612647565b3480156106cc57600080fd5b506106e06106db366004612f47565b6126ef565b6040516102369190613495565b3480156106f957600080fd5b5061025f610708366004613077565b612838565b34801561071957600080fd5b5061025f610728366004613077565b6128f4565b610735612ef7565b6000828152600a602052604081205490036107a35760405162461bcd60e51b8152602060048201526024808201527f536d61727452656e744875623a206c697374696e6720646f6573206e6f7420656044820152631e1a5cdd60e21b60648201526084015b60405180910390fd5b506000908152600a60209081526040918290208251610100810184528154815260018201549281019290925260028101546001600160a01b0316928201929092526003820154606082015260048201546080820152600582015460a0820152600682015460ff16151560c082015260079091015460e082015290565b61082761292f565b6103e88111156108855760405162461bcd60e51b815260206004820152602360248201527f536d61727452656e744875623a206665652063616e6e6f74206578636565642060448201526231302560e81b606482015260840161079a565b600e8190556040518181527f45610d581145924dd7090a5017e5f2b1d6f42213bb2e95707ff86846bbfcb1ca9060200160405180910390a150565b60025461010090046001600160a01b031633146108ef5760405162461bcd60e51b815260040161079a906134a8565b6108f761295c565b60008581526003602052604090206004015460ff16156109685760405162461bcd60e51b815260206004820152602660248201527f536d61727452656e744875623a20617373657420616c726561647920726567696044820152651cdd195c995960d21b606482015260840161079a565b6001600160a01b0384166109be5760405162461bcd60e51b815260206004820152601b60248201527f536d61727452656e744875623a20696e76616c6964206f776e65720000000000604482015260640161079a565b60008311610a195760405162461bcd60e51b815260206004820152602260248201527f536d61727452656e744875623a20696e76616c696420746f74616c2073686172604482015261657360f01b606482015260840161079a565b6040518060a0016040528086815260200183838080601f0160208091040260200160405190810160405280939291908181526020018383808284376000920182905250938552505050602080830187905242604080850191909152600160609094018490528983526003825290912083518155908301519091820190610a9f908261358e565b5060408201516002820155606082015160038201556080909101516004918201805460ff191691151591909117905580546001810182556000919091527f8a35acfbc15ff81a39ae7d344fd709f28e8600b4aa8c65c6b64bfe7fe36bd19b01859055610b0b8585612980565b836001600160a01b0316857fb2f2e6ea67db99a955536ce87503beaa6f71cbe69d6c4eb65bbe2e60a7ad2924858585604051610b499392919061364e565b60405180910390a35050505050565b6001600160a01b038116600090815260076020908152604091829020805483518184028101840190945280845260609392830182828015610bb857602002820191906000526020600020905b815481526020019060010190808311610ba4575b50505050509050919050565b60045460609060008167ffffffffffffffff811115610be557610be56134f0565b604051908082528060200260200182016040528015610c4a57816020015b610c376040518060a00160405280600081526020016060815260200160008152602001600081526020016000151581525090565b815260200190600190039081610c035790505b50905060005b82811015610d85576003600060048381548110610c6f57610c6f613684565b906000526020600020015481526020019081526020016000206040518060a001604052908160008201548152602001600182018054610cad90613506565b80601f0160208091040260200160405190810160405280929190818152602001828054610cd990613506565b8015610d265780601f10610cfb57610100808354040283529160200191610d26565b820191906000526020600020905b815481529060010190602001808311610d0957829003601f168201915b5050509183525050600282015460208201526003820154604082015260049091015460ff1615156060909101528251839083908110610d6757610d67613684565b60200260200101819052508080610d7d906136b0565b915050610c50565b5092915050565b610d9461295c565b610d9c612a7c565b6000818152600a60205260409020600681015460ff16610dfe5760405162461bcd60e51b815260206004820181905260248201527f536d61727452656e744875623a206c697374696e67206e6f7420616374697665604482015260640161079a565b60028101546001600160a01b03163314610e5a5760405162461bcd60e51b815260206004820152601c60248201527f536d61727452656e744875623a206e6f74207468652073656c6c657200000000604482015260640161079a565b60068101805460ff19169055610e6f82612aa6565b604051339083907f8e25282255ab31897df2b0456bb993ac7f84d376861aefd84901d2d63a7428a290600090a350610ea660018055565b50565b60025461010090046001600160a01b03163314610ed85760405162461bcd60e51b815260040161079a906134a8565b610ee061295c565b60008481526003602052604090206004015460ff1615611030578015611030576001600160a01b03831615610f9e57600254604051627eeac760e11b81526001600160a01b038581166004830152602482018790526000926101009004169062fdd58e90604401602060405180830381865afa158015610f64573d6000803e3d6000fd5b505050506040513d601f19601f82011682018060405250810190610f8891906136c9565b905080600003610f9c57610f9c8585612b63565b505b6001600160a01b03821615610fe15760008481526006602090815260408083206001600160a01b038616845290915290205460ff16610fe157610fe18483612980565b816001600160a01b0316836001600160a01b0316857f2067a90646b40fe621578fc63b1cb8f4ba3631b8396881db77f4b42dbba0f1a98460405161102791815260200190565b60405180910390a45b50505050565b6001600160a01b038116600090815260076020908152604080832080548251818502810185019093528083526060949383018282801561109557602002820191906000526020600020905b815481526020019060010190808311611081575b5050505050905060008151905060008167ffffffffffffffff8111156110bd576110bd6134f0565b60405190808252806020026020018201604052801561112057816020015b61110d6040518060a0016040528060008152602001606081526020016000815260200160008152602001600081525090565b8152602001906001900390816110db5790505b50905060005b828110156112cb57600084828151811061114257611142613684565b6020908102919091018101516000818152600390925260408083206002549151627eeac760e11b81526001600160a01b038c81166004830152602482018590529395509093926101009092049091169062fdd58e90604401602060405180830381865afa1580156111b7573d6000803e3d6000fd5b505050506040513d601f19601f820116820180604052508101906111db91906136c9565b90506040518060a001604052808481526020018360010180546111fd90613506565b80601f016020809104026020016040519081016040528092919081815260200182805461122990613506565b80156112765780601f1061124b57610100808354040283529160200191611276565b820191906000526020600020905b81548152906001019060200180831161125957829003601f168201915b505050505081526020018360020154815260200182815260200183600301548152508585815181106112aa576112aa613684565b602002602001018190525050505080806112c3906136b0565b915050611126565b50949350505050565b6112dc61292f565b6112e4612df5565b565b6112ee61295c565b6112f6612a7c565b6000828152600a60205260409020600681015460ff166113585760405162461bcd60e51b815260206004820181905260248201527f536d61727452656e744875623a206c697374696e67206e6f7420616374697665604482015260640161079a565b600082116113b65760405162461bcd60e51b815260206004820152602560248201527f536d61727452656e744875623a20736861726573546f427579206d7573742062604482015264065203e20360dc1b606482015260840161079a565b806004015482111561141c5760405162461bcd60e51b815260206004820152602960248201527f536d61727452656e744875623a206e6f7420656e6f7567682073686172657320604482015268617661696c61626c6560b81b606482015260840161079a565b60028101546001600160a01b031633036114875760405162461bcd60e51b815260206004820152602660248201527f536d61727452656e744875623a2063616e6e6f74206275792066726f6d20796f6044820152653ab939b2b63360d11b606482015260840161079a565b600081600501548361149991906136e2565b9050803410156114f65760405162461bcd60e51b815260206004820152602260248201527f536d61727452656e744875623a20696e73756666696369656e74207061796d656044820152611b9d60f21b606482015260840161079a565b6000612710600e548361150991906136e2565b61151391906136f9565b90506000611521828461371b565b905084846004016000828254611537919061371b565b9091555050600484015460000361155d5760068401805460ff1916905561155d86612aa6565b60028054908501546001860154604051637921219560e11b81526001600160a01b03928316600482015233602482015260448101919091526064810188905260a06084820152600060a4820152610100909204169063f242432a9060c401600060405180830381600087803b1580156115d557600080fd5b505af11580156115e9573d6000803e3d6000fd5b5050505060008111156116a95760028401546040516000916001600160a01b03169083908381818185875af1925050503d8060008114611645576040519150601f19603f3d011682016040523d82523d6000602084013e61164a565b606091505b50509050806116a75760405162461bcd60e51b815260206004820152602360248201527f536d61727452656e744875623a2073656c6c6572207061796d656e74206661696044820152621b195960ea1b606482015260840161079a565b505b811561175457600f546040516000916001600160a01b03169084908381818185875af1925050503d80600081146116fc576040519150601f19603f3d011682016040523d82523d6000602084013e611701565b606091505b50509050806117525760405162461bcd60e51b815260206004820181905260248201527f536d61727452656e744875623a20666565207061796d656e74206661696c6564604482015260640161079a565b505b823411156117fd57600033611769853461371b565b604051600081818185875af1925050503d80600081146117a5576040519150601f19603f3d011682016040523d82523d6000602084013e6117aa565b606091505b50509050806117fb5760405162461bcd60e51b815260206004820152601b60248201527f536d61727452656e744875623a20726566756e64206661696c65640000000000604482015260640161079a565b505b60018401546002850154604080516001600160a01b03909216825260208201889052810185905233919088907f5d4982d86992be30aa48d7c70acdb858bba9a2161429bcc34576f4fecd15e0829060600160405180910390a45050505061186360018055565b5050565b60008181526003602052604090206004015460609060ff1661189b5760405162461bcd60e51b815260040161079a9061372e565b60008281526005602090815260409182902080548351818402810184019094528084529091830182828015610bb857602002820191906000526020600020905b81546001600160a01b031681526001909101906020018083116118db5750505050509050919050565b61190c61292f565b6112e46000612e47565b6004818154811061192657600080fd5b600091825260209091200154905081565b61193f61292f565b6112e4612e97565b600c5460609060008167ffffffffffffffff811115611968576119686134f0565b6040519080825280602002602001820160405280156119a157816020015b61198e612ef7565b8152602001906001900390816119865790505b50905060005b82811015610d8557600a6000600c83815481106119c6576119c6613684565b6000918252602080832090910154835282810193909352604091820190208151610100810183528154815260018201549381019390935260028101546001600160a01b0316918301919091526003810154606083015260048101546080830152600581015460a0830152600681015460ff16151560c08301526007015460e08201528251839083908110611a5c57611a5c613684565b60200260200101819052508080611a72906136b0565b9150506119a7565b60606000805b600c54811015611ae45783600a6000600c8481548110611aa257611aa2613684565b906000526020600020015481526020019081526020016000206001015403611ad25781611ace816136b0565b9250505b80611adc816136b0565b915050611a80565b5060008167ffffffffffffffff811115611b0057611b006134f0565b604051908082528060200260200182016040528015611b3957816020015b611b26612ef7565b815260200190600190039081611b1e5790505b5090506000805b600c54811015611c5d5785600a6000600c8481548110611b6257611b62613684565b906000526020600020015481526020019081526020016000206001015403611c4b57600a6000600c8381548110611b9b57611b9b613684565b6000918252602080832090910154835282810193909352604091820190208151610100810183528154815260018201549381019390935260028101546001600160a01b0316918301919091526003810154606083015260048101546080830152600581015460a0830152600681015460ff16151560c08301526007015460e08201528351849084908110611c3157611c31613684565b60200260200101819052508180611c47906136b0565b9250505b80611c55816136b0565b915050611b40565b5090949350505050565b6000611c7161295c565b611c79612a7c565b60008481526003602052604090206004015460ff16611caa5760405162461bcd60e51b815260040161079a9061372e565b60008311611d0a5760405162461bcd60e51b815260206004820152602760248201527f536d61727452656e744875623a20736861726573466f7253616c65206d7573746044820152660206265203e20360cc1b606482015260840161079a565b60008211611d6a5760405162461bcd60e51b815260206004820152602760248201527f536d61727452656e744875623a2070726963655065725368617265206d7573746044820152660206265203e20360cc1b606482015260840161079a565b600254604051627eeac760e11b81523360048201526024810186905260009161010090046001600160a01b03169062fdd58e90604401602060405180830381865afa158015611dbd573d6000803e3d6000fd5b505050506040513d601f19601f82011682018060405250810190611de191906136c9565b905083811015611e3e5760405162461bcd60e51b815260206004820152602260248201527f536d61727452656e744875623a20696e73756666696369656e742062616c616e604482015261636560f01b606482015260840161079a565b60025460405163e985e9c560e01b81523360048201523060248201526101009091046001600160a01b03169063e985e9c590604401602060405180830381865afa158015611e90573d6000803e3d6000fd5b505050506040513d601f19601f82011682018060405250810190611eb49190613770565b611f105760405162461bcd60e51b815260206004820152602760248201527f536d61727452656e744875623a206e6f7420617070726f76656420666f7220746044820152663930b739b332b960c91b606482015260840161079a565b600b8054906000611f20836136b0565b909155506040805161010081018252828152602080820189815233838501818152606085018b8152608086018c815260a087018c8152600160c089018181524260e08b0190815260008d8152600a8b528c81209b518c5598518b840155955160028b0180546001600160a01b0319166001600160a01b03909216919091179055935160038a015591516004890155516005880155905160068701805460ff19169115159190911790559051600790950194909455600c8054600d855286842081905594850181559091527fdf6966c971051c3d54ec59162606531493a51404a002842f56009d7e5cf4a8c7909201849055825188815290810187905292945091879185917f492d2294f1b8a982001da6ecb3de3a374ad9c29c9c8d5ad43da90cc50b585136910160405180910390a45061205960018055565b9392505050565b600c5460609060008167ffffffffffffffff811115612081576120816134f0565b60405190808252806020026020018201604052801561210a57816020015b6120f7604051806101200160405280600081526020016000815260200160006001600160a01b031681526020016000815260200160008152602001600081526020016000815260200160608152602001600081525090565b81526020019060019003908161209f5790505b50905060005b82811015610d85576000600a6000600c848154811061213157612131613684565b90600052602060002001548152602001908152602001600020905060006003600083600101548152602001908152602001600020905060405180610120016040528083600001548152602001836001015481526020018360020160009054906101000a90046001600160a01b03166001600160a01b03168152602001836003015481526020018360040154815260200183600501548152602001836007015481526020018260010180546121e490613506565b80601f016020809104026020016040519081016040528092919081815260200182805461221090613506565b801561225d5780601f106122325761010080835404028352916020019161225d565b820191906000526020600020905b81548152906001019060200180831161224057829003601f168201915b50505050508152602001826002015481525084848151811061228157612281613684565b602002602001018190525050508080612299906136b0565b915050612110565b60008181526006602090815260408083206001600160a01b038616845290915290205460ff165b92915050565b600360205260009081526040902080546001820180549192916122f090613506565b80601f016020809104026020016040519081016040528092919081815260200182805461231c90613506565b80156123695780601f1061233e57610100808354040283529160200191612369565b820191906000526020600020905b81548152906001019060200180831161234c57829003601f168201915b50505050600283015460038401546004909401549293909290915060ff1685565b60606000805b600c5481101561240857836001600160a01b0316600a6000600c84815481106123bb576123bb613684565b600091825260208083209091015483528201929092526040019020600201546001600160a01b0316036123f657816123f2816136b0565b9250505b80612400816136b0565b915050612390565b5060008167ffffffffffffffff811115612424576124246134f0565b60405190808252806020026020018201604052801561245d57816020015b61244a612ef7565b8152602001906001900390816124425790505b5090506000805b600c54811015611c5d57856001600160a01b0316600a6000600c848154811061248f5761248f613684565b600091825260208083209091015483528201929092526040019020600201546001600160a01b03160361258357600a6000600c83815481106124d3576124d3613684565b6000918252602080832090910154835282810193909352604091820190208151610100810183528154815260018201549381019390935260028101546001600160a01b0316918301919091526003810154606083015260048101546080830152600581015460a0830152600681015460ff16151560c08301526007015460e0820152835184908490811061256957612569613684565b6020026020010181905250818061257f906136b0565b9250505b8061258d816136b0565b915050612464565b61259d61292f565b478015610ea657600080546040516001600160a01b039091169083908381818185875af1925050503d80600081146125f1576040519150601f19603f3d011682016040523d82523d6000602084013e6125f6565b606091505b50509050806118635760405162461bcd60e51b815260206004820152601d60248201527f536d61727452656e744875623a207769746864726177206661696c6564000000604482015260640161079a565b61264f61292f565b6001600160a01b0381166126a55760405162461bcd60e51b815260206004820152601f60248201527f536d61727452656e744875623a20696e76616c696420726563697069656e7400604482015260640161079a565b600f80546001600160a01b0319166001600160a01b0383169081179091556040517f7a7b5a0a132f9e0581eb8527f66eae9ee89c2a3e79d4ac7e41a1f1f4d48a7fc290600090a250565b6127236040518060a00160405280600081526020016060815260200160008152602001600081526020016000151581525090565b60008281526003602052604090206004015460ff166127545760405162461bcd60e51b815260040161079a9061372e565b600360008381526020019081526020016000206040518060a00160405290816000820154815260200160018201805461278c90613506565b80601f01602080910402602001604051908101604052809291908181526020018280546127b890613506565b80156128055780601f106127da57610100808354040283529160200191612805565b820191906000526020600020905b8154815290600101906020018083116127e857829003601f168201915b5050509183525050600282015460208201526003820154604082015260049091015460ff16151560609091015292915050565b61284061292f565b6001600160a01b0381166128a25760405162461bcd60e51b815260206004820152602360248201527f536d61727452656e744875623a20696e76616c696420746f6b656e206164647260448201526265737360e81b606482015260840161079a565b60028054610100600160a81b0319166101006001600160a01b038416908102919091179091556040517fe78fecf734478f1d9f07dd3da8306fcad40da2198d71a953e8597fe3b8527c1b90600090a250565b6128fc61292f565b6001600160a01b03811661292657604051631e4fbdf760e01b81526000600482015260240161079a565b610ea681612e47565b6000546001600160a01b031633146112e45760405163118cdaa760e01b815233600482015260240161079a565b60025460ff16156112e45760405163d93c066560e01b815260040160405180910390fd5b60008281526006602090815260408083206001600160a01b038516845290915290205460ff166118635760008281526006602090815260408083206001600160a01b038516808552908352818420805460ff19166001908117909155868552600584528285208054918201815585528385200180546001600160a01b0319168217905583526009825280832085845290915290205460ff16611863576001600160a01b031660008181526009602090815260408083208584528252808320805460ff1916600190811790915593835260078083528184208054600885528386208887528552928520839055908352938101845592825290200155565b600260015403612a9f57604051633ee5aeb560e01b815260040160405180910390fd5b6002600155565b6000818152600d6020526040812054600c54909190612ac79060019061371b565b9050808214612b26576000600c8281548110612ae557612ae5613684565b9060005260206000200154905080600c8481548110612b0657612b06613684565b6000918252602080832090910192909255918252600d9052604090208290555b600c805480612b3757612b37613792565b600082815260208082208301600019908101839055909201909255938152600d90935250506040812055565b60008281526006602090815260408083206001600160a01b038516845290915290205460ff16156118635760008281526006602090815260408083206001600160a01b03851684528252808320805460ff1916905584835260059091528120905b8154811015612cca57826001600160a01b0316828281548110612be957612be9613684565b6000918252602090912001546001600160a01b031603612cb85781548290612c139060019061371b565b81548110612c2357612c23613684565b9060005260206000200160009054906101000a90046001600160a01b0316828281548110612c5357612c53613684565b9060005260206000200160006101000a8154816001600160a01b0302191690836001600160a01b0316021790555081805480612c9157612c91613792565b600082815260209020810160001990810180546001600160a01b0319169055019055612cca565b80612cc2816136b0565b915050612bc4565b506001600160a01b038216600090815260096020908152604080832086845290915290205460ff1615612df0576001600160a01b03821660008181526009602090815260408083208784528252808320805460ff191690559282526007815282822060088252838320878452909152919020548154612d4b9060019061371b565b811015612dc75781546000908390612d659060019061371b565b81548110612d7557612d75613684565b9060005260206000200154905080838381548110612d9557612d95613684565b60009182526020808320909101929092556001600160a01b038716815260088252604080822093825292909152208190555b81805480612dd757612dd7613792565b6001900381819060005260206000200160009055905550505b505050565b612dfd612ed4565b6002805460ff191690557f5db9ee0a495bf2e6ff9c91a7834c1ba4fdd244a5e8aa4e537bd38aeae4b073aa335b6040516001600160a01b03909116815260200160405180910390a1565b600080546001600160a01b038381166001600160a01b0319831681178455604051919092169283917f8be0079c531659141344cd1fd0a4f28419497f9722a3daafe3b4186f6b6457e09190a35050565b612e9f61295c565b6002805460ff191660011790557f62e78cea01bee320cd4e420270b5ea74000d11b0c9f74754ebdbfc544b05a258612e2a3390565b60025460ff166112e457604051638dfc202b60e01b815260040160405180910390fd5b604051806101000160405280600081526020016000815260200160006001600160a01b03168152602001600081526020016000815260200160008152602001600015158152602001600081525090565b600060208284031215612f5957600080fd5b5035919050565b805182526020810151602083015260018060a01b036040820151166040830152606081015160608301526080810151608083015260a081015160a083015260c0810151151560c083015260e081015160e08301525050565b61010081016122c88284612f60565b80356001600160a01b0381168114612fde57600080fd5b919050565b600080600080600060808688031215612ffb57600080fd5b8535945061300b60208701612fc7565b935060408601359250606086013567ffffffffffffffff8082111561302f57600080fd5b818801915088601f83011261304357600080fd5b81358181111561305257600080fd5b89602082850101111561306457600080fd5b9699959850939650602001949392505050565b60006020828403121561308957600080fd5b61205982612fc7565b6020808252825182820181905260009190848201906040850190845b818110156130ca578351835292840192918401916001016130ae565b50909695505050505050565b6000815180845260005b818110156130fc576020818501810151868301820152016130e0565b506000602082860101526020601f19601f83011685010191505092915050565b805182526000602082015160a0602085015261313b60a08501826130d6565b905060408301516040850152606083015160608501526080830151151560808501528091505092915050565b6000602080830181845280855180835260408601915060408160051b870101925083870160005b828110156131bc57603f198886030184526131aa85835161311c565b9450928501929085019060010161318e565b5092979650505050505050565b600080600080608085870312156131df57600080fd5b843593506131ef60208601612fc7565b92506131fd60408601612fc7565b9396929550929360600135925050565b60006020808301818452808551808352604092508286019150828160051b87010184880160005b8381101561329457603f19898403018552815160a08151855288820151818a870152613262828701826130d6565b838a0151878b015260608085015190880152608093840151939096019290925250509386019390860190600101613234565b509098975050505050505050565b600080604083850312156132b557600080fd5b50508035926020909101359150565b6020808252825182820181905260009190848201906040850190845b818110156130ca5783516001600160a01b0316835292840192918401916001016132e0565b6020808252825182820181905260009190848201906040850190845b818110156130ca57613334838551612f60565b928401926101009290920191600101613321565b60008060006060848603121561335d57600080fd5b505081359360208301359350604090920135919050565b60006020808301818452808551808352604092508286019150828160051b87010184880160005b8381101561329457603f198984030185528151805184528781015188850152868101516001600160a01b031687850152606080820151908501526080808201519085015260a0808201519085015260c0808201519085015260e0808201516101208287018190529190613410838801826130d6565b61010094850151979094019690965250509487019492509086019060010161339b565b6000806040838503121561344657600080fd5b61344f83612fc7565b946020939093013593505050565b85815260a06020820152600061347660a08301876130d6565b6040830195909552506060810192909252151560809091015292915050565b602081526000612059602083018461311c565b60208082526028908201527f536d61727452656e744875623a2063616c6c6572206973206e6f74204275696c6040820152673234b7339898991960c11b606082015260800190565b634e487b7160e01b600052604160045260246000fd5b600181811c9082168061351a57607f821691505b60208210810361353a57634e487b7160e01b600052602260045260246000fd5b50919050565b601f821115612df057600081815260208120601f850160051c810160208610156135675750805b601f850160051c820191505b8181101561358657828155600101613573565b505050505050565b815167ffffffffffffffff8111156135a8576135a86134f0565b6135bc816135b68454613506565b84613540565b602080601f8311600181146135f157600084156135d95750858301515b600019600386901b1c1916600185901b178555613586565b600085815260208120601f198616915b8281101561362057888601518255948401946001909101908401613601565b508582101561363e5787850151600019600388901b60f8161c191681555b5050505050600190811b01905550565b83815260406020820152816040820152818360608301376000818301606090810191909152601f909201601f1916010192915050565b634e487b7160e01b600052603260045260246000fd5b634e487b7160e01b600052601160045260246000fd5b6000600182016136c2576136c261369a565b5060010190565b6000602082840312156136db57600080fd5b5051919050565b80820281158282048414176122c8576122c861369a565b60008261371657634e487b7160e01b600052601260045260246000fd5b500490565b818103818111156122c8576122c861369a565b60208082526022908201527f536d61727452656e744875623a20617373657420646f6573206e6f74206578696040820152611cdd60f21b606082015260800190565b60006020828403121561378257600080fd5b8151801515811461205957600080fd5b634e487b7160e01b600052603160045260246000fdfea26469706673582212203c021d1264f68edbba8064bbb6ec6539045ea98a3169ee433d9f114334871ce464736f6c63430008140033",
  "linkReferences": {},
  "deployedLinkReferences": {}
}