{
  "contractName": "BuildingToken",
  "abi": [
    {
      "inputs": [
        {
          "internalType": "uint256",
          "name": "_buildingId",
          "type": "uint256"
        },
        {
          "internalType": "string",
          "name": "_buildingName",
          "type": "string"
        },
        {
          "internalType": "uint256",
          "name": "_totalShares",
          "type": "uint256"
        },
        {
          "internalType": "address",
          "name": "_owner",
          "type": "address"
        }
      ],
      "stateMutability": "nonpayable",
      "type": "constructor"
    },
    {
      "anonymous": false,
      "inputs": [
        {
          "indexed": true,
          "internalType": "address",
          "name": "owner",
          "type": "address"
        },
        {
          "indexed": true,
          "internalType": "address",
          "name": "spender",
          "type": "address"
        },
        {
          "indexed": false,
          "internalType": "uint256",
          "name": "value",
          "type": "uint256"
        }
      ],
      "name": "Approval",
      "type": "event"
    },
    {
      "anonymous": false,
      "inputs": [
        {
          "indexed": true,
          "internalType": "uint256",
          "name": "buildingId",
          "type": "uint256"
        },
        {
          "indexed": false,
          "internalType": "string",
          "name": "buildingName",
          "type": "string"
        },
        {
          "indexed": false,
          "internalType": "uint256",
          "name": "totalShares",
          "type": "uint256"
        }
      ],
      "name": "BuildingTokenCreated",
      "type": "event"
    },
    {
      "anonymous": false,
      "inputs": [
        {
          "indexed": true,
          "internalType": "address",
          "name": "investor",
          "type": "address"
        },
        {
          "indexed": false,
          "internalType": "uint256",
          "name": "amount",
          "type": "uint256"
        },
        {
          "indexed": false,
          "internalType": "uint256",
          "name": "tokensReceived",
          "type": "uint256"
        }
      ],
      "name": "InvestmentReceived",
      "type": "event"
    },
    {
      "anonymous": false,
      "inputs": [
        {
          "indexed": true,
          "internalType": "address",
          "name": "previousOwner",
          "type": "address"
        },
        {
          "indexed": true,
          "internalType": "address",
          "name": "newOwner",
          "type": "address"
        }
      ],
      "name": "OwnershipTransferred",
      "type": "event"
    },
    {
      "anonymous": false,
      "inputs": [
        {
          "indexed": true,
          "internalType": "address",
          "name": "from",
          "type": "address"
        },
        {
          "indexed": true,
          "internalType": "address",
          "name": "to",
          "type": "address"
        },
        {
          "indexed": false,
          "internalType": "uint256",
          "name": "value",
          "type": "uint256"
        }
      ],
      "name": "Transfer",
      "type": "event"
    },
    {
      "inputs": [
        {
          "internalType": "address",
          "name": "owner",
          "type": "address"
        },
        {
          "internalType": "address",
          "name": "spender",
          "type": "address"
        }
      ],
      "name": "allowance",
      "outputs": [
        {
          "internalType": "uint256",
          "name": "",
          "type": "uint256"
        }
      ],
      "stateMutability": "view",
      "type": "function"
    },
    {
      "inputs": [
        {
          "internalType": "address",
          "name": "spender",
          "type": "address"
        },
        {
          "internalType": "uint256",
          "name": "amount",
          "type": "uint256"
        }
      ],
      "name": "approve",
      "outputs": [
        {
          "internalType": "bool",
          "name": "",
          "type": "bool"
        }
      ],
      "stateMutability": "nonpayable",
      "type": "function"
    },
    {
      "inputs": [
        {
          "internalType": "address",
          "name": "account",
          "type": "address"
        }
      ],
      "name": "balanceOf",
      "outputs": [
        {
          "internalType": "uint256",
          "name": "",
          "type": "uint256"
        }
      ],
      "stateMutability": "view",
      "type": "function"
    },
    {
      "inputs": [],
      "name": "buildingId",
      "outputs": [
        {
          "internalType": "uint256",
          "name": "",
          "type": "uint256"
        }
      ],
      "stateMutability": "view",
      "type": "function"
    },
    {
      "inputs": [],
      "name": "buildingName",
      "outputs": [
        {
          "internalType": "string",
          "name": "",
          "type": "string"
        }
      ],
      "stateMutability": "view",
      "type": "function"
    },
    {
      "inputs": [],
      "name": "decimals",
      "outputs": [
        {
          "internalType": "uint8",
          "name": "",
          "type": "uint8"
        }
      ],
      "stateMutability": "view",
      "type": "function"
    },
    {
      "inputs": [
        {
          "internalType": "address",
          "name": "spender",
          "type": "address"
        },
        {
          "internalType": "uint256",
          "name": "subtractedValue",
          "type": "uint256"
        }
      ],
      "name": "decreaseAllowance",
      "outputs": [
        {
          "internalType": "bool",
          "name": "",
          "type": "bool"
        }
      ],
      "stateMutability": "nonpayable",
      "type": "function"
    },
    {
      "inputs": [
        {
          "internalType": "address",
          "name": "spender",
          "type": "address"
        },
        {
          "internalType": "uint256",
          "name": "addedValue",
          "type": "uint256"
        }
      ],
      "name": "increaseAllowance",
      "outputs": [
        {
          "internalType": "bool",
          "name": "",
          "type": "bool"
        }
      ],
      "stateMutability": "nonpayable",
      "type": "function"
    },
    {
      "inputs": [],
      "name": "name",
      "outputs": [
        {
          "internalType": "string",
          "name": "",
          "type": "string"
        }
      ],
      "stateMutability": "view",
      "type": "function"
    },
    {
      "inputs": [],
      "name": "owner",
      "outputs": [
        {
          "internalType": "address",
          "name": "",
          "type": "address"
        }
      ],
      "stateMutability": "view",
      "type": "function"
    },
    {
      "inputs": [],
      "name": "renounceOwnership",
      "outputs": [],
      "stateMutability": "nonpayable",
      "type": "function"
    },
    {
      "inputs": [],
      "name": "symbol",
      "outputs": [
        {
          "internalType": "string",
          "name": "",
          "type": "string"
        }
      ],
      "stateMutability": "view",
      "type": "function"
    },
    {
      "inputs": [],
      "name": "totalShares",
      "outputs": [
        {
          "internalType": "uint256",
          "name": "",
          "type": "uint256"
        }
      ],
      "stateMutability": "view",
      "type": "function"
    },
    {
      "inputs": [],
      "name": "totalSupply",
      "outputs": [
        {
          "internalType": "uint256",
          "name": "",
          "type": "uint256"
        }
      ],
      "stateMutability": "view",
      "type": "function"
    },
    {
      "inputs": [
        {
          "internalType": "address",
          "name": "to",
          "type": "address"
        },
        {
          "internalType": "uint256",
          "name": "amount",
          "type": "uint256"
        }
      ],
      "name": "transfer",
      "outputs": [
        {
          "internalType": "bool",
          "name": "",
          "type": "bool"
        }
      ],
      "stateMutability": "nonpayable",
      "type": "function"
    },
    {
      "inputs": [
        {
          "internalType": "address",
          "name": "from",
          "type": "address"
        },
        {
          "internalType": "address",
          "name": "to",
          "type": "address"
        },
        {
          "internalType": "uint256",
          "name": "amount",
          "type": "uint256"
        }
      ],
      "name": "transferFrom",
      "outputs": [
        {
          "internalType": "bool",
          "name": "",
          "type": "bool"
        }
      ],
      "stateMutability": "nonpayable",
      "type": "function"
    },
    {
      "inputs": [
        {
          "internalType": "address",
          "name": "newOwner",
          "type": "address"
        }
      ],
      "name": "transferOwnership",
      "outputs": [],
      "stateMutability": "nonpayable",
      "type": "function"
    },
    {
      "inputs": [
        {
          "internalType": "address",
          "name": "to",
          "type": "address"
        },
        {
          "internalType": "uint256",
          "name": "amount",
          "type": "uint256"
        },
        {
          "internalType": "uint256",
          "name": "tokensToMint",
          "type": "uint256"
        }
      ],
      "name": "mint",
      "outputs": [],
      "stateMutability": "nonpayable",
      "type": "function"
    },
    {
      "inputs": [
        {
          "internalType": "address",
          "name": "account",
          "type": "address"
        }
      ],
      "name": "getOwnershipPercentage",
      "outputs": [
        {
          "internalType": "uint256",
          "name": "",
          "type": "uint256"
        }
      ],
      "stateMutability": "view",
      "type": "function"
    },
    {
      "inputs": [
        {
          "internalType": "address",
          "name": "account",
          "type": "address"
        }
      ],
      "name": "getOwnershipPercentageDecimal",
      "outputs": [
        {
          "internalType": "uint256",
          "name": "",
          "type": "uint256"
        }
      ],
      "stateMutability": "view",
      "type": "function"
    },
    {
      "inputs": [],
      "name": "isFullyInvested",
      "outputs": [
        {
          "internalType": "bool",
          "name": "",
          "type": "bool"
        }
      ],
      "stateMutability": "view",
      "type": "function"
    },
    {
      "inputs": [],
      "name": "getRemainingShares",
      "outputs": [
        {
          "internalType": "uint256",
          "name": "",
          "type": "uint256"
        }
      ],
      "stateMutability": "view",
      "type": "function"
    }
  ],
  "bytecode": "0x60806040523480156200001157600080fd5b506040516200143138038062001431833981016040819052620000349162000286565b8260405160200162000047919062000367565b6040516020818303038152906040528360405160200162000069919062000393565b60408051601f1981840301815291905260036200008783826200044d565b5060046200009682826200044d565b505050620000b3620000ad620001d760201b60201c565b620001db565b60008211620001155760405162461bcd60e51b815260206004820152602360248201527f546f74616c20736861726573206d75737420626520677265617465722074686160448201526206e20360ec1b60648201526084015b60405180910390fd5b6001600160a01b0381166200016d5760405162461bcd60e51b815260206004820152601c60248201527f4f776e65722063616e6e6f74206265207a65726f20616464726573730000000060448201526064016200010c565b600684905560076200018084826200044d565b5060088290556200019181620001db565b837f5dae4123784cd40609fae3cf13c33d26e450c755178a325969e7b0c14882f45e8484604051620001c592919062000519565b60405180910390a25050505062000556565b3390565b600580546001600160a01b038381166001600160a01b0319831681179093556040519116919082907f8be0079c531659141344cd1fd0a4f28419497f9722a3daafe3b4186f6b6457e090600090a35050565b634e487b7160e01b600052604160045260246000fd5b60005b838110156200026057818101518382015260200162000246565b50506000910152565b80516001600160a01b03811681146200028157600080fd5b919050565b600080600080608085870312156200029d57600080fd5b845160208601519094506001600160401b0380821115620002bd57600080fd5b818701915087601f830112620002d257600080fd5b815181811115620002e757620002e76200022d565b604051601f8201601f19908116603f011681019083821181831017156200031257620003126200022d565b816040528281528a60208487010111156200032c57600080fd5b6200033f83602083016020880162000243565b8097505050505050604085015191506200035c6060860162000269565b905092959194509250565b600082516200037b81846020870162000243565b6520536861726560d01b920191825250600601919050565b60008251620003a781846020870162000243565b64534841524560d81b920191825250600501919050565b600181811c90821680620003d357607f821691505b602082108103620003f457634e487b7160e01b600052602260045260246000fd5b50919050565b601f8211156200044857600081815260208120601f850160051c81016020861015620004235750805b601f850160051c820191505b8181101562000444578281556001016200042f565b5050505b505050565b81516001600160401b038111156200046957620004696200022d565b62000481816200047a8454620003be565b84620003fa565b602080601f831160018114620004b95760008415620004a05750858301515b600019600386901b1c1916600185901b17855562000444565b600085815260208120601f198616915b82811015620004ea57888601518255948401946001909101908401620004c9565b5085821015620005095787850151600019600388901b60f8161c191681555b5050505050600190811b01905550565b60408152600083518060408401526200053a81606085016020880162000243565b602083019390935250601f91909101601f191601606001919050565b610ecb80620005666000396000f3fe608060405234801561001057600080fd5b50600436106101425760003560e01c8063715018a6116100b8578063a457c2d71161007c578063a457c2d71461026d578063a9059cbb14610280578063dd62ed3e14610293578063f2fde38b146102a6578063f9ab7118146102b9578063fa1814ba146102c157600080fd5b8063715018a61461022757806385adf8cb1461022f5780638da5cb5b1461023757806395d89b4114610252578063a2931fe81461025a57600080fd5b806323b872dd1161010a57806323b872dd146101b7578063313ce567146101ca57806339509351146101d95780633a98ef39146101ec5780635561e38b146101f557806370a08231146101fe57600080fd5b806306fdde0314610147578063095ea7b314610165578063115112ab14610188578063156e29f61461019057806318160ddd146101a5575b600080fd5b61014f6102d4565b60405161015c9190610c8e565b60405180910390f35b610178610173366004610cf8565b610366565b604051901515815260200161015c565b61014f610380565b6101a361019e366004610d22565b61040e565b005b6002545b60405190815260200161015c565b6101786101c5366004610d55565b610587565b6040516012815260200161015c565b6101786101e7366004610cf8565b6105ab565b6101a960085481565b6101a960065481565b6101a961020c366004610d91565b6001600160a01b031660009081526020819052604090205490565b6101a36105cd565b6101786105e1565b6005546040516001600160a01b03909116815260200161015c565b61014f6105f6565b6101a9610268366004610d91565b610605565b61017861027b366004610cf8565b61064b565b61017861028e366004610cf8565b6106c6565b6101a96102a1366004610db3565b6106d4565b6101a36102b4366004610d91565b6106ff565b6101a9610778565b6101a96102cf366004610d91565b6107a6565b6060600380546102e390610de6565b80601f016020809104026020016040519081016040528092919081815260200182805461030f90610de6565b801561035c5780601f106103315761010080835404028352916020019161035c565b820191906000526020600020905b81548152906001019060200180831161033f57829003601f168201915b5050505050905090565b6000336103748185856107e1565b60019150505b92915050565b6007805461038d90610de6565b80601f01602080910402602001604051908101604052809291908181526020018280546103b990610de6565b80156104065780601f106103db57610100808354040283529160200191610406565b820191906000526020600020905b8154815290600101906020018083116103e957829003601f168201915b505050505081565b610416610905565b6001600160a01b0383166104715760405162461bcd60e51b815260206004820152601b60248201527f43616e6e6f74206d696e7420746f207a65726f2061646472657373000000000060448201526064015b60405180910390fd5b600081116104cf5760405162461bcd60e51b815260206004820152602560248201527f546f6b656e7320746f206d696e74206d75737420626520677265617465722074604482015264068616e20360dc1b6064820152608401610468565b600854816104dc60025490565b6104e69190610e36565b11156105345760405162461bcd60e51b815260206004820152601a60248201527f43616e6e6f742065786365656420746f74616c207368617265730000000000006044820152606401610468565b61053e838261095f565b60408051838152602081018390526001600160a01b038516917f0240c371659c45898826a7ba2332942b172ae8c1b47c60e74e1066383b1b6c09910160405180910390a2505050565b600033610595858285610a1e565b6105a0858585610a98565b506001949350505050565b6000336103748185856105be83836106d4565b6105c89190610e36565b6107e1565b6105d5610905565b6105df6000610c3c565b565b60006008546105ef60025490565b1015905090565b6060600480546102e390610de6565b600060085460000361061957506000919050565b6008546001600160a01b03831660009081526020819052604090205461064190612710610e49565b61037a9190610e60565b6000338161065982866106d4565b9050838110156106b95760405162461bcd60e51b815260206004820152602560248201527f45524332303a2064656372656173656420616c6c6f77616e63652062656c6f77604482015264207a65726f60d81b6064820152608401610468565b6105a082868684036107e1565b600033610374818585610a98565b6001600160a01b03918216600090815260016020908152604080832093909416825291909152205490565b610707610905565b6001600160a01b03811661076c5760405162461bcd60e51b815260206004820152602660248201527f4f776e61626c653a206e6577206f776e657220697320746865207a65726f206160448201526564647265737360d01b6064820152608401610468565b61077581610c3c565b50565b600060085461078660025490565b106107915750600090565b6002546008546107a19190610e82565b905090565b60006008546000036107ba57506000919050565b6008546001600160a01b038316600090815260208190526040902054610641906064610e49565b6001600160a01b0383166108435760405162461bcd60e51b8152602060048201526024808201527f45524332303a20617070726f76652066726f6d20746865207a65726f206164646044820152637265737360e01b6064820152608401610468565b6001600160a01b0382166108a45760405162461bcd60e51b815260206004820152602260248201527f45524332303a20617070726f766520746f20746865207a65726f206164647265604482015261737360f01b6064820152608401610468565b6001600160a01b0383811660008181526001602090815260408083209487168084529482529182902085905590518481527f8c5be1e5ebec7d5bd14f71427d1e84f3dd0314c0f7b2291e5b200ac8c7c3b925910160405180910390a3505050565b6005546001600160a01b031633146105df5760405162461bcd60e51b815260206004820181905260248201527f4f776e61626c653a2063616c6c6572206973206e6f7420746865206f776e65726044820152606401610468565b6001600160a01b0382166109b55760405162461bcd60e51b815260206004820152601f60248201527f45524332303a206d696e7420746f20746865207a65726f2061646472657373006044820152606401610468565b80600260008282546109c79190610e36565b90915550506001600160a01b038216600081815260208181526040808320805486019055518481527fddf252ad1be2c89b69c2b068fc378daa952ba7f163c4a11628f55a4df523b3ef910160405180910390a35050565b6000610a2a84846106d4565b90506000198114610a925781811015610a855760405162461bcd60e51b815260206004820152601d60248201527f45524332303a20696e73756666696369656e7420616c6c6f77616e63650000006044820152606401610468565b610a9284848484036107e1565b50505050565b6001600160a01b038316610afc5760405162461bcd60e51b815260206004820152602560248201527f45524332303a207472616e736665722066726f6d20746865207a65726f206164604482015264647265737360d81b6064820152608401610468565b6001600160a01b038216610b5e5760405162461bcd60e51b815260206004820152602360248201527f45524332303a207472616e7366657220746f20746865207a65726f206164647260448201526265737360e81b6064820152608401610468565b6001600160a01b03831660009081526020819052604090205481811015610bd65760405162461bcd60e51b815260206004820152602660248201527f45524332303a207472616e7366657220616d6f756e7420657863656564732062604482015265616c616e636560d01b6064820152608401610468565b6001600160a01b03848116600081815260208181526040808320878703905593871680835291849020805487019055925185815290927fddf252ad1be2c89b69c2b068fc378daa952ba7f163c4a11628f55a4df523b3ef910160405180910390a3610a92565b600580546001600160a01b038381166001600160a01b0319831681179093556040519116919082907f8be0079c531659141344cd1fd0a4f28419497f9722a3daafe3b4186f6b6457e090600090a35050565b600060208083528351808285015260005b81811015610cbb57858101830151858201604001528201610c9f565b506000604082860101526040601f19601f8301168501019250505092915050565b80356001600160a01b0381168114610cf357600080fd5b919050565b60008060408385031215610d0b57600080fd5b610d1483610cdc565b946020939093013593505050565b600080600060608486031215610d3757600080fd5b610d4084610cdc565b95602085013595506040909401359392505050565b600080600060608486031215610d6a57600080fd5b610d7384610cdc565b9250610d8160208501610cdc565b9150604084013590509250925092565b600060208284031215610da357600080fd5b610dac82610cdc565b9392505050565b60008060408385031215610dc657600080fd5b610dcf83610cdc565b9150610ddd60208401610cdc565b90509250929050565b600181811c90821680610dfa57607f821691505b602082108103610e1a57634e487b7160e01b600052602260045260246000fd5b50919050565b634e487b7160e01b600052601160045260246000fd5b8082018082111561037a5761037a610e20565b808202811582820484141761037a5761037a610e20565b600082610e7d57634e487b7160e01b600052601260045260246000fd5b500490565b8181038181111561037a5761037a610e2056fea26469706673582212201f7852486b1fdb485b190777799447d91e031907848cf2988f7ab21d3b28ae6e64736f6c63430008130033",
  "immutableReferences": {},
  "source": "// SPDX-License-Identifier: MIT\r\npragma solidity ^0.8.19;\r\n\r\nimport \"@openzeppelin/contracts/token/ERC20/ERC20.sol\";\r\nimport \"@openzeppelin/contracts/access/Ownable.sol\";\r\n\r\n/**\r\n * @title BuildingToken\r\n * @dev ERC20 token representing ownership shares in a building\r\n * Each token represents a percentage of ownership in the building\r\n * Example: If total supply is 10000 tokens, owning 1000 tokens = 10% ownership\r\n */\r\ncontract BuildingToken is ERC20, Ownable {\r\n    // Building information\r\n    uint256 public buildingId;\r\n    string public buildingName;\r\n    uint256 public totalShares; // Total shares available (e.g., 10000 = 100%)\r\n    \r\n    // Events\r\n    event BuildingTokenCreated(\r\n        uint256 indexed buildingId,\r\n        string buildingName,\r\n        uint256 totalShares\r\n    );\r\n    \r\n    event InvestmentReceived(\r\n        address indexed investor,\r\n        uint256 amount,\r\n        uint256 tokensReceived\r\n    );\r\n    \r\n    /**\r\n     * @dev Constructor creates a new BuildingToken\r\n     * @param _buildingId Unique identifier for the building\r\n     * @param _buildingName Name of the building\r\n     * @param _totalShares Total number of shares (tokens) available\r\n     * @param _owner Address that will own this token contract\r\n     */\r\n    constructor(\r\n        uint256 _buildingId,\r\n        string memory _buildingName,\r\n        uint256 _totalShares,\r\n        address _owner\r\n    ) ERC20(string(abi.encodePacked(_buildingName, \" Share\")), string(abi.encodePacked(_buildingName, \"SHARE\"))) {\r\n        require(_totalShares > 0, \"Total shares must be greater than 0\");\r\n        require(_owner != address(0), \"Owner cannot be zero address\");\r\n        \r\n        buildingId = _buildingId;\r\n        buildingName = _buildingName;\r\n        totalShares = _totalShares;\r\n        \r\n        // Transfer ownership to the specified owner\r\n        _transferOwnership(_owner);\r\n        \r\n        emit BuildingTokenCreated(_buildingId, _buildingName, _totalShares);\r\n    }\r\n    \r\n    /**\r\n     * @dev Mint tokens to an investor\r\n     * @param to Address to receive the tokens\r\n     * @param amount Amount of ETH invested\r\n     * @param tokensToMint Number of tokens to mint\r\n     */\r\n    function mint(address to, uint256 amount, uint256 tokensToMint) external onlyOwner {\r\n        require(to != address(0), \"Cannot mint to zero address\");\r\n        require(tokensToMint > 0, \"Tokens to mint must be greater than 0\");\r\n        require(totalSupply() + tokensToMint <= totalShares, \"Cannot exceed total shares\");\r\n        \r\n        _mint(to, tokensToMint);\r\n        \r\n        emit InvestmentReceived(to, amount, tokensToMint);\r\n    }\r\n    \r\n    /**\r\n     * @dev Get the ownership percentage of an address\r\n     * @param account Address to check\r\n     * @return Percentage of ownership (e.g., 1000 = 10% if total shares is 10000)\r\n     */\r\n    function getOwnershipPercentage(address account) external view returns (uint256) {\r\n        if (totalShares == 0) return 0;\r\n        return (balanceOf(account) * 10000) / totalShares; // Returns in basis points (10000 = 100%)\r\n    }\r\n    \r\n    /**\r\n     * @dev Get the ownership percentage as a decimal (0-100)\r\n     * @param account Address to check\r\n     * @return Percentage as a number from 0 to 100\r\n     */\r\n    function getOwnershipPercentageDecimal(address account) external view returns (uint256) {\r\n        if (totalShares == 0) return 0;\r\n        return (balanceOf(account) * 100) / totalShares;\r\n    }\r\n    \r\n    /**\r\n     * @dev Check if all shares have been sold\r\n     * @return True if all shares are distributed\r\n     */\r\n    function isFullyInvested() external view returns (bool) {\r\n        return totalSupply() >= totalShares;\r\n    }\r\n    \r\n    /**\r\n     * @dev Get remaining shares available for investment\r\n     * @return Number of shares still available\r\n     */\r\n    function getRemainingShares() external view returns (uint256) {\r\n        if (totalSupply() >= totalShares) return 0;\r\n        return totalShares - totalSupply();\r\n    }\r\n}\r\n\r\n",
  "sourcePath": "C:\\Users\\Lenovo\\OneDrive\\Desktop\\comp-senior-design-project\\SmartRent\\blockchain\\contracts\\BuildingToken.sol",
  "compiler": {
    "name": "solc",
    "version": "0.8.19+commit.7dd6d404.Emscripten.clang"
  },
  "schemaVersion": "3.4.16",
  "updatedAt": "2025-11-18T19:41:54.215Z",
  "devdoc": {
    "details": "ERC20 token representing ownership shares in a building Each token represents a percentage of ownership in the building Example: If total supply is 10000 tokens, owning 1000 tokens = 10% ownership",
    "events": {
      "Approval(address,address,uint256)": {
        "details": "Emitted when the allowance of a `spender` for an `owner` is set by a call to {approve}. `value` is the new allowance."
      },
      "Transfer(address,address,uint256)": {
        "details": "Emitted when `value` tokens are moved from one account (`from`) to another (`to`). Note that `value` may be zero."
      }
    },
    "kind": "dev",
    "methods": {
      "allowance(address,address)": {
        "details": "See {IERC20-allowance}."
      },
      "approve(address,uint256)": {
        "details": "See {IERC20-approve}. NOTE: If `amount` is the maximum `uint256`, the allowance is not updated on `transferFrom`. This is semantically equivalent to an infinite approval. Requirements: - `spender` cannot be the zero address."
      },
      "balanceOf(address)": {
        "details": "See {IERC20-balanceOf}."
      },
      "constructor": {
        "details": "Constructor creates a new BuildingToken",
        "params": {
          "_buildingId": "Unique identifier for the building",
          "_buildingName": "Name of the building",
          "_owner": "Address that will own this token contract",
          "_totalShares": "Total number of shares (tokens) available"
        }
      },
      "decimals()": {
        "details": "Returns the number of decimals used to get its user representation. For example, if `decimals` equals `2`, a balance of `505` tokens should be displayed to a user as `5.05` (`505 / 10 ** 2`). Tokens usually opt for a value of 18, imitating the relationship between Ether and Wei. This is the default value returned by this function, unless it's overridden. NOTE: This information is only used for _display_ purposes: it in no way affects any of the arithmetic of the contract, including {IERC20-balanceOf} and {IERC20-transfer}."
      },
      "decreaseAllowance(address,uint256)": {
        "details": "Atomically decreases the allowance granted to `spender` by the caller. This is an alternative to {approve} that can be used as a mitigation for problems described in {IERC20-approve}. Emits an {Approval} event indicating the updated allowance. Requirements: - `spender` cannot be the zero address. - `spender` must have allowance for the caller of at least `subtractedValue`."
      },
      "getOwnershipPercentage(address)": {
        "details": "Get the ownership percentage of an address",
        "params": {
          "account": "Address to check"
        },
        "returns": {
          "_0": "Percentage of ownership (e.g., 1000 = 10% if total shares is 10000)"
        }
      },
      "getOwnershipPercentageDecimal(address)": {
        "details": "Get the ownership percentage as a decimal (0-100)",
        "params": {
          "account": "Address to check"
        },
        "returns": {
          "_0": "Percentage as a number from 0 to 100"
        }
      },
      "getRemainingShares()": {
        "details": "Get remaining shares available for investment",
        "returns": {
          "_0": "Number of shares still available"
        }
      },
      "increaseAllowance(address,uint256)": {
        "details": "Atomically increases the allowance granted to `spender` by the caller. This is an alternative to {approve} that can be used as a mitigation for problems described in {IERC20-approve}. Emits an {Approval} event indicating the updated allowance. Requirements: - `spender` cannot be the zero address."
      },
      "isFullyInvested()": {
        "details": "Check if all shares have been sold",
        "returns": {
          "_0": "True if all shares are distributed"
        }
      },
      "mint(address,uint256,uint256)": {
        "details": "Mint tokens to an investor",
        "params": {
          "amount": "Amount of ETH invested",
          "to": "Address to receive the tokens",
          "tokensToMint": "Number of tokens to mint"
        }
      },
      "name()": {
        "details": "Returns the name of the token."
      },
      "owner()": {
        "details": "Returns the address of the current owner."
      },
      "renounceOwnership()": {
        "details": "Leaves the contract without owner. It will not be possible to call `onlyOwner` functions. Can only be called by the current owner. NOTE: Renouncing ownership will leave the contract without an owner, thereby disabling any functionality that is only available to the owner."
      },
      "symbol()": {
        "details": "Returns the symbol of the token, usually a shorter version of the name."
      },
      "totalSupply()": {
        "details": "See {IERC20-totalSupply}."
      },
      "transfer(address,uint256)": {
        "details": "See {IERC20-transfer}. Requirements: - `to` cannot be the zero address. - the caller must have a balance of at least `amount`."
      },
      "transferFrom(address,address,uint256)": {
        "details": "See {IERC20-transferFrom}. Emits an {Approval} event indicating the updated allowance. This is not required by the EIP. See the note at the beginning of {ERC20}. NOTE: Does not update the allowance if the current allowance is the maximum `uint256`. Requirements: - `from` and `to` cannot be the zero address. - `from` must have a balance of at least `amount`. - the caller must have allowance for ``from``'s tokens of at least `amount`."
      },
      "transferOwnership(address)": {
        "details": "Transfers ownership of the contract to a new account (`newOwner`). Can only be called by the current owner."
      }
    },
    "title": "BuildingToken",
    "version": 1
  },
  "userdoc": {
    "kind": "user",
    "methods": {},
    "version": 1
  }
}