{
  "contractName": "BuildingRegistry",
  "abi": [
    {
      "anonymous": false,
      "inputs": [
        {
          "indexed": true,
          "internalType": "uint256",
          "name": "buildingId",
          "type": "uint256"
        },
        {
          "indexed": false,
          "internalType": "string",
          "name": "name",
          "type": "string"
        },
        {
          "indexed": true,
          "internalType": "address",
          "name": "tokenAddress",
          "type": "address"
        },
        {
          "indexed": true,
          "internalType": "address",
          "name": "creator",
          "type": "address"
        },
        {
          "indexed": false,
          "internalType": "uint256",
          "name": "totalShares",
          "type": "uint256"
        },
        {
          "indexed": false,
          "internalType": "uint256",
          "name": "pricePerShare",
          "type": "uint256"
        }
      ],
      "name": "BuildingCreated",
      "type": "event"
    },
    {
      "anonymous": false,
      "inputs": [
        {
          "indexed": true,
          "internalType": "uint256",
          "name": "buildingId",
          "type": "uint256"
        }
      ],
      "name": "InvestmentClosed",
      "type": "event"
    },
    {
      "anonymous": false,
      "inputs": [
        {
          "indexed": true,
          "internalType": "uint256",
          "name": "buildingId",
          "type": "uint256"
        },
        {
          "indexed": true,
          "internalType": "address",
          "name": "investor",
          "type": "address"
        },
        {
          "indexed": false,
          "internalType": "uint256",
          "name": "amount",
          "type": "uint256"
        },
        {
          "indexed": false,
          "internalType": "uint256",
          "name": "sharesReceived",
          "type": "uint256"
        }
      ],
      "name": "InvestmentMade",
      "type": "event"
    },
    {
      "anonymous": false,
      "inputs": [
        {
          "indexed": true,
          "internalType": "address",
          "name": "previousOwner",
          "type": "address"
        },
        {
          "indexed": true,
          "internalType": "address",
          "name": "newOwner",
          "type": "address"
        }
      ],
      "name": "OwnershipTransferred",
      "type": "event"
    },
    {
      "anonymous": false,
      "inputs": [
        {
          "indexed": true,
          "internalType": "uint256",
          "name": "buildingId",
          "type": "uint256"
        },
        {
          "indexed": false,
          "internalType": "uint256",
          "name": "totalAmount",
          "type": "uint256"
        },
        {
          "indexed": false,
          "internalType": "uint256",
          "name": "distributedAmount",
          "type": "uint256"
        }
      ],
      "name": "RentDistributed",
      "type": "event"
    },
    {
      "anonymous": false,
      "inputs": [
        {
          "indexed": true,
          "internalType": "uint256",
          "name": "buildingId",
          "type": "uint256"
        },
        {
          "indexed": true,
          "internalType": "address",
          "name": "renter",
          "type": "address"
        },
        {
          "indexed": false,
          "internalType": "uint256",
          "name": "amount",
          "type": "uint256"
        },
        {
          "indexed": false,
          "internalType": "uint256",
          "name": "daysRented",
          "type": "uint256"
        }
      ],
      "name": "RentPaid",
      "type": "event"
    },
    {
      "inputs": [
        {
          "internalType": "uint256",
          "name": "",
          "type": "uint256"
        }
      ],
      "name": "buildingRentals",
      "outputs": [
        {
          "internalType": "uint256",
          "name": "",
          "type": "uint256"
        }
      ],
      "stateMutability": "view",
      "type": "function",
      "constant": true
    },
    {
      "inputs": [
        {
          "internalType": "uint256",
          "name": "",
          "type": "uint256"
        }
      ],
      "name": "buildings",
      "outputs": [
        {
          "internalType": "uint256",
          "name": "id",
          "type": "uint256"
        },
        {
          "internalType": "string",
          "name": "name",
          "type": "string"
        },
        {
          "internalType": "string",
          "name": "description",
          "type": "string"
        },
        {
          "internalType": "string",
          "name": "location",
          "type": "string"
        },
        {
          "internalType": "address",
          "name": "tokenAddress",
          "type": "address"
        },
        {
          "internalType": "uint256",
          "name": "totalShares",
          "type": "uint256"
        },
        {
          "internalType": "uint256",
          "name": "pricePerShare",
          "type": "uint256"
        },
        {
          "internalType": "uint256",
          "name": "totalInvested",
          "type": "uint256"
        },
        {
          "internalType": "uint256",
          "name": "rentalPricePerDay",
          "type": "uint256"
        },
        {
          "internalType": "address",
          "name": "creator",
          "type": "address"
        },
        {
          "internalType": "bool",
          "name": "exists",
          "type": "bool"
        },
        {
          "internalType": "bool",
          "name": "investmentOpen",
          "type": "bool"
        }
      ],
      "stateMutability": "view",
      "type": "function",
      "constant": true
    },
    {
      "inputs": [
        {
          "internalType": "address",
          "name": "",
          "type": "address"
        },
        {
          "internalType": "uint256",
          "name": "",
          "type": "uint256"
        }
      ],
      "name": "investorBuildings",
      "outputs": [
        {
          "internalType": "uint256",
          "name": "",
          "type": "uint256"
        }
      ],
      "stateMutability": "view",
      "type": "function",
      "constant": true
    },
    {
      "inputs": [
        {
          "internalType": "uint256",
          "name": "",
          "type": "uint256"
        },
        {
          "internalType": "address",
          "name": "",
          "type": "address"
        }
      ],
      "name": "investorRentEarnings",
      "outputs": [
        {
          "internalType": "uint256",
          "name": "",
          "type": "uint256"
        }
      ],
      "stateMutability": "view",
      "type": "function",
      "constant": true
    },
    {
      "inputs": [],
      "name": "owner",
      "outputs": [
        {
          "internalType": "address",
          "name": "",
          "type": "address"
        }
      ],
      "stateMutability": "view",
      "type": "function",
      "constant": true
    },
    {
      "inputs": [],
      "name": "renounceOwnership",
      "outputs": [],
      "stateMutability": "nonpayable",
      "type": "function"
    },
    {
      "inputs": [
        {
          "internalType": "address",
          "name": "newOwner",
          "type": "address"
        }
      ],
      "name": "transferOwnership",
      "outputs": [],
      "stateMutability": "nonpayable",
      "type": "function"
    },
    {
      "inputs": [
        {
          "internalType": "string",
          "name": "name",
          "type": "string"
        },
        {
          "internalType": "string",
          "name": "description",
          "type": "string"
        },
        {
          "internalType": "string",
          "name": "location",
          "type": "string"
        },
        {
          "internalType": "uint256",
          "name": "totalShares",
          "type": "uint256"
        },
        {
          "internalType": "uint256",
          "name": "pricePerShare",
          "type": "uint256"
        },
        {
          "internalType": "uint256",
          "name": "rentalPricePerDay",
          "type": "uint256"
        }
      ],
      "name": "createBuilding",
      "outputs": [
        {
          "internalType": "uint256",
          "name": "",
          "type": "uint256"
        }
      ],
      "stateMutability": "nonpayable",
      "type": "function"
    },
    {
      "inputs": [
        {
          "internalType": "uint256",
          "name": "buildingId",
          "type": "uint256"
        }
      ],
      "name": "investInBuilding",
      "outputs": [],
      "stateMutability": "payable",
      "type": "function",
      "payable": true
    },
    {
      "inputs": [
        {
          "internalType": "uint256",
          "name": "buildingId",
          "type": "uint256"
        },
        {
          "internalType": "uint256",
          "name": "daysRented",
          "type": "uint256"
        }
      ],
      "name": "payRent",
      "outputs": [],
      "stateMutability": "payable",
      "type": "function",
      "payable": true
    },
    {
      "inputs": [
        {
          "internalType": "uint256",
          "name": "buildingId",
          "type": "uint256"
        }
      ],
      "name": "withdrawRentEarnings",
      "outputs": [],
      "stateMutability": "nonpayable",
      "type": "function"
    },
    {
      "inputs": [
        {
          "internalType": "uint256",
          "name": "buildingId",
          "type": "uint256"
        },
        {
          "internalType": "address",
          "name": "investor",
          "type": "address"
        }
      ],
      "name": "getInvestorEarnings",
      "outputs": [
        {
          "internalType": "uint256",
          "name": "",
          "type": "uint256"
        },
        {
          "internalType": "uint256",
          "name": "",
          "type": "uint256"
        },
        {
          "internalType": "uint256",
          "name": "",
          "type": "uint256"
        }
      ],
      "stateMutability": "view",
      "type": "function",
      "constant": true
    },
    {
      "inputs": [
        {
          "internalType": "uint256",
          "name": "buildingId",
          "type": "uint256"
        }
      ],
      "name": "getBuilding",
      "outputs": [
        {
          "components": [
            {
              "internalType": "uint256",
              "name": "id",
              "type": "uint256"
            },
            {
              "internalType": "string",
              "name": "name",
              "type": "string"
            },
            {
              "internalType": "string",
              "name": "description",
              "type": "string"
            },
            {
              "internalType": "string",
              "name": "location",
              "type": "string"
            },
            {
              "internalType": "address",
              "name": "tokenAddress",
              "type": "address"
            },
            {
              "internalType": "uint256",
              "name": "totalShares",
              "type": "uint256"
            },
            {
              "internalType": "uint256",
              "name": "pricePerShare",
              "type": "uint256"
            },
            {
              "internalType": "uint256",
              "name": "totalInvested",
              "type": "uint256"
            },
            {
              "internalType": "uint256",
              "name": "rentalPricePerDay",
              "type": "uint256"
            },
            {
              "internalType": "address",
              "name": "creator",
              "type": "address"
            },
            {
              "internalType": "bool",
              "name": "exists",
              "type": "bool"
            },
            {
              "internalType": "bool",
              "name": "investmentOpen",
              "type": "bool"
            }
          ],
          "internalType": "struct BuildingRegistry.Building",
          "name": "",
          "type": "tuple"
        }
      ],
      "stateMutability": "view",
      "type": "function",
      "constant": true
    },
    {
      "inputs": [
        {
          "internalType": "address",
          "name": "investor",
          "type": "address"
        }
      ],
      "name": "getInvestorBuildings",
      "outputs": [
        {
          "internalType": "uint256[]",
          "name": "",
          "type": "uint256[]"
        }
      ],
      "stateMutability": "view",
      "type": "function",
      "constant": true
    },
    {
      "inputs": [],
      "name": "getTotalBuildings",
      "outputs": [
        {
          "internalType": "uint256",
          "name": "",
          "type": "uint256"
        }
      ],
      "stateMutability": "view",
      "type": "function",
      "constant": true
    },
    {
      "inputs": [
        {
          "internalType": "uint256",
          "name": "buildingId",
          "type": "uint256"
        }
      ],
      "name": "closeInvestment",
      "outputs": [],
      "stateMutability": "nonpayable",
      "type": "function"
    }
  ],
  "bytecode": "0x608060405234801561001057600080fd5b5061001a33610023565b60018055610073565b600080546001600160a01b038381166001600160a01b0319831681178455604051919092169283917f8be0079c531659141344cd1fd0a4f28419497f9722a3daafe3b4186f6b6457e09190a35050565b613710806100826000396000f3fe608060405260043610620001075760003560e01c8063af78b4461162000095578063d78f89091162000060578063d78f89091462000312578063e83ef676146200034e578063f2fde38b146200037f578063fc2bf8f014620003a457600080fd5b8063af78b446146200028b578063c3d3d6af14620002a2578063d17e135014620002d6578063d42f5e4414620002fb57600080fd5b8063879bba6211620000d6578063879bba6214620001c75780638da5cb5b14620002085780639dfd8b021462000232578063a8afa9c1146200026657600080fd5b80634c96a062146200010c57806368cab3031462000154578063715018a61462000188578063760121c914620001a2575b600080fd5b3480156200011957600080fd5b50620001316200012b36600462001b51565b620003bb565b6040516200014b9c9b9a9998979695949392919062001bb3565b60405180910390f35b3480156200016157600080fd5b50620001796200017336600462001c7a565b620005de565b6040519081526020016200014b565b3480156200019557600080fd5b50620001a062000610565b005b348015620001af57600080fd5b50620001a0620001c136600462001b51565b62000628565b348015620001d457600080fd5b50620001ec620001e636600462001ca7565b620006b5565b604080519384526020840192909252908201526060016200014b565b3480156200021557600080fd5b506000546040516001600160a01b0390911681526020016200014b565b3480156200023f57600080fd5b50620002576200025136600462001b51565b62000873565b6040516200014b919062001cd6565b3480156200027357600080fd5b50620001a06200028536600462001b51565b62000b96565b620001a06200029c36600462001b51565b62000e58565b348015620002af57600080fd5b50620002c7620002c136600462001dd7565b62001330565b6040516200014b919062001dfc565b348015620002e357600080fd5b5062000179620002f536600462001eed565b6200139e565b3480156200030857600080fd5b5060065462000179565b3480156200031f57600080fd5b50620001796200033136600462001ca7565b600560209081526000928352604080842090915290825290205481565b3480156200035b57600080fd5b50620001796200036d36600462001b51565b60046020526000908152604090205481565b3480156200038c57600080fd5b50620001a06200039e36600462001dd7565b62001718565b620001a0620003b536600462001f9b565b62001794565b60026020526000908152604090208054600182018054919291620003df9062001fbe565b80601f01602080910402602001604051908101604052809291908181526020018280546200040d9062001fbe565b80156200045e5780601f1062000432576101008083540402835291602001916200045e565b820191906000526020600020905b8154815290600101906020018083116200044057829003601f168201915b505050505090806002018054620004759062001fbe565b80601f0160208091040260200160405190810160405280929190818152602001828054620004a39062001fbe565b8015620004f45780601f10620004c857610100808354040283529160200191620004f4565b820191906000526020600020905b815481529060010190602001808311620004d657829003601f168201915b5050505050908060030180546200050b9062001fbe565b80601f0160208091040260200160405190810160405280929190818152602001828054620005399062001fbe565b80156200058a5780601f106200055e576101008083540402835291602001916200058a565b820191906000526020600020905b8154815290600101906020018083116200056c57829003601f168201915b5050506004840154600585015460068601546007870154600888015460099098015496976001600160a01b03948516979396509194509290919081169060ff600160a01b8204811691600160a81b9004168c565b60036020528160005260406000208181548110620005fb57600080fd5b90600052602060002001600091509150505481565b6200061a62001962565b620006266000620019be565b565b6200063262001962565b60008181526002602052604090206009810154600160a01b900460ff16620006775760405162461bcd60e51b81526004016200066e9062001ffa565b60405180910390fd5b60098101805460ff60a81b1916905560405182907fb8023cc95d09e0a7885a6b04bcbd9d45c839cce4114ae1694fb620c3c9c9316790600090a25050565b6000828152600260205260408120600981015482918291600160a01b900460ff16620006f55760405162461bcd60e51b81526004016200066e9062001ffa565b6004818101546040516370a0823160e01b81526001600160a01b038881169382019390935291169060009082906370a0823190602401602060405180830381865afa15801562000749573d6000803e3d6000fd5b505050506040513d601f19601f820116820180604052508101906200076f919062002031565b90506000826001600160a01b03166318160ddd6040518163ffffffff1660e01b8152600401602060405180830381865afa158015620007b2573d6000803e3d6000fd5b505050506040513d601f19601f82011682018060405250810190620007d8919062002031565b9050801580620007e6575081155b1562000801576000806000965096509650505050506200086c565b60008981526004602052604081205490826200081e858462002061565b6200082a919062002081565b60008c81526005602090815260408083206001600160a01b038f1684529091528120549192506200085c8284620020a4565b929a509098509096505050505050505b9250925092565b620008ee6040518061018001604052806000815260200160608152602001606081526020016060815260200160006001600160a01b031681526020016000815260200160008152602001600081526020016000815260200160006001600160a01b031681526020016000151581526020016000151581525090565b600082815260026020526040902060090154600160a01b900460ff16620009295760405162461bcd60e51b81526004016200066e9062001ffa565b600260008381526020019081526020016000206040518061018001604052908160008201548152602001600182018054620009649062001fbe565b80601f0160208091040260200160405190810160405280929190818152602001828054620009929062001fbe565b8015620009e35780601f10620009b757610100808354040283529160200191620009e3565b820191906000526020600020905b815481529060010190602001808311620009c557829003601f168201915b50505050508152602001600282018054620009fe9062001fbe565b80601f016020809104026020016040519081016040528092919081815260200182805462000a2c9062001fbe565b801562000a7d5780601f1062000a515761010080835404028352916020019162000a7d565b820191906000526020600020905b81548152906001019060200180831162000a5f57829003601f168201915b5050505050815260200160038201805462000a989062001fbe565b80601f016020809104026020016040519081016040528092919081815260200182805462000ac69062001fbe565b801562000b175780601f1062000aeb5761010080835404028352916020019162000b17565b820191906000526020600020905b81548152906001019060200180831162000af957829003601f168201915b505050918352505060048201546001600160a01b039081166020830152600583015460408301526006830154606083015260078301546080830152600883015460a083015260099092015491821660c082015260ff600160a01b83048116151560e0830152600160a81b90920490911615156101009091015292915050565b62000ba062001a0e565b60008181526002602052604090206009810154600160a01b900460ff1662000bdc5760405162461bcd60e51b81526004016200066e9062001ffa565b6004818101546040516370a0823160e01b815233928101929092526001600160a01b03169060009082906370a0823190602401602060405180830381865afa15801562000c2d573d6000803e3d6000fd5b505050506040513d601f19601f8201168201806040525081019062000c53919062002031565b90506000811162000ca75760405162461bcd60e51b815260206004820181905260248201527f4e6f20736861726573206f776e656420696e2074686973206275696c64696e6760448201526064016200066e565b6000826001600160a01b03166318160ddd6040518163ffffffff1660e01b8152600401602060405180830381865afa15801562000ce8573d6000803e3d6000fd5b505050506040513d601f19601f8201168201806040525081019062000d0e919062002031565b90506000811162000d555760405162461bcd60e51b815260206004820152601060248201526f139bc81d1bdad95b9cc81a5cdcdd595960821b60448201526064016200066e565b600085815260046020526040812054908262000d72858462002061565b62000d7e919062002081565b600088815260056020908152604080832033845290915281205491925062000da78284620020a4565b90506000811162000dfb5760405162461bcd60e51b815260206004820152601760248201527f4e6f206561726e696e677320746f20776974686472617700000000000000000060448201526064016200066e565b600089815260056020908152604080832033808552925280832086905551909183156108fc02918491818181858888f1935050505015801562000e42573d6000803e3d6000fd5b50505050505050505062000e5560018055565b50565b62000e6262001a0e565b60008181526002602052604090206009810154600160a01b900460ff1662000e9e5760405162461bcd60e51b81526004016200066e9062001ffa565b6009810154600160a81b900460ff1662000f0a5760405162461bcd60e51b815260206004820152602660248201527f496e766573746d656e7420697320636c6f73656420666f722074686973206275604482015265696c64696e6760d01b60648201526084016200066e565b600480820154604080516385adf8cb60e01b815290516001600160a01b039092169283926385adf8cb9280830192602092918290030181865afa15801562000f56573d6000803e3d6000fd5b505050506040513d601f19601f8201168201806040525081019062000f7c9190620020ba565b1562000fcb5760405162461bcd60e51b815260206004820152601a60248201527f4275696c64696e672069732066756c6c7920696e76657374656400000000000060448201526064016200066e565b6000816001600160a01b031663f9ab71186040518163ffffffff1660e01b8152600401602060405180830381865afa1580156200100c573d6000803e3d6000fd5b505050506040513d601f19601f8201168201806040525081019062001032919062002031565b9050600083600601543462001048919062002081565b905060008111620010b05760405162461bcd60e51b815260206004820152602b60248201527f496e73756666696369656e74207061796d656e7420666f72206174206c65617360448201526a74206f6e6520736861726560a81b60648201526084016200066e565b81811115620010bc5750805b6000846006015482620010d0919062002061565b90506000620010e08234620020a4565b604051630ab714fb60e11b815233600482015260248101849052604481018590529091506001600160a01b0386169063156e29f690606401600060405180830381600087803b1580156200113357600080fd5b505af115801562001148573d6000803e3d6000fd5b5050505081866007016000828254620011629190620020de565b9091555060009050805b33600090815260036020526040902054811015620011db5733600090815260036020526040902080548a919083908110620011ab57620011ab620020f4565b906000526020600020015403620011c65760019150620011db565b80620011d2816200210a565b9150506200116c565b50806200120557336000908152600360209081526040822080546001810182559083529120018890555b81156200123c57604051339083156108fc029084906000818181858888f193505050501580156200123a573d6000803e3d6000fd5b505b856001600160a01b03166385adf8cb6040518163ffffffff1660e01b8152600401602060405180830381865afa1580156200127b573d6000803e3d6000fd5b505050506040513d601f19601f82011682018060405250810190620012a19190620020ba565b15620012e25760098701805460ff60a81b1916905560405188907fb8023cc95d09e0a7885a6b04bcbd9d45c839cce4114ae1694fb620c3c9c9316790600090a25b604080518481526020810186905233918a917ff31343540affa723d26848192c2f28ab76925951531440b6f2e082030394314f910160405180910390a35050505050505062000e5560018055565b6001600160a01b0381166000908152600360209081526040918290208054835181840281018401909452808452606093928301828280156200139257602002820191906000526020600020905b8154815260200190600101908083116200137d575b50505050509050919050565b600080875111620013f25760405162461bcd60e51b815260206004820152601d60248201527f4275696c64696e67206e616d652063616e6e6f7420626520656d70747900000060448201526064016200066e565b60008411620014505760405162461bcd60e51b815260206004820152602360248201527f546f74616c20736861726573206d75737420626520677265617465722074686160448201526206e20360ec1b60648201526084016200066e565b60008311620014b15760405162461bcd60e51b815260206004820152602660248201527f507269636520706572207368617265206d75737420626520677265617465722060448201526507468616e20360d41b60648201526084016200066e565b600082116200150f5760405162461bcd60e51b815260206004820152602360248201527f52656e74616c207072696365206d75737420626520677265617465722074686160448201526206e20360ec1b60648201526084016200066e565b600680546000918262001522836200210a565b9190505590506000818987306040516200153c9062001b43565b6200154b949392919062002126565b604051809103906000f08015801562001568573d6000803e3d6000fd5b50604080516101808101825284815260208082018d81528284018d9052606083018c90526001600160a01b038516608084015260a083018b905260c083018a9052600060e0840181905261010084018a905233610120850152600161014085018190526101608501819052888252600290935293909320825181559251939450909290820190620015fa9082620021b5565b5060408201516002820190620016119082620021b5565b5060608201516003820190620016289082620021b5565b5060808201516004820180546001600160a01b039283166001600160a01b031990911617905560a0830151600583015560c0830151600683015560e08301516007830155610100830151600883015561012083015160099092018054610140850151610160909501511515600160a81b0260ff60a81b19951515600160a01b026001600160a81b031990921694841694909417179390931691909117909155604051339183169084907f0dbd6d373936d786383652b03decf6cc06f3d6eb5d485dfafcb58c5dd6ef8d829062001704908e908c908c9062002282565b60405180910390a450979650505050505050565b6200172262001962565b6001600160a01b038116620017895760405162461bcd60e51b815260206004820152602660248201527f4f776e61626c653a206e6577206f776e657220697320746865207a65726f206160448201526564647265737360d01b60648201526084016200066e565b62000e5581620019be565b6200179e62001a0e565b60008281526002602052604090206009810154600160a01b900460ff16620017da5760405162461bcd60e51b81526004016200066e9062001ffa565b60008211620018375760405162461bcd60e51b815260206004820152602260248201527f446179732072656e746564206d7573742062652067726561746572207468616e604482015261020360f41b60648201526084016200066e565b60008282600801546200184b919062002061565b9050803410156200189f5760405162461bcd60e51b815260206004820152601d60248201527f496e73756666696369656e74207061796d656e7420666f722072656e7400000060448201526064016200066e565b60008481526004602052604081208054839290620018bf908490620020de565b90915550620018d19050848262001a69565b803411156200191557336108fc620018ea8334620020a4565b6040518115909202916000818181858888f1935050505015801562001913573d6000803e3d6000fd5b505b6040805182815260208101859052339186917fe7b793c2d375aa5934e16873f97e647671990418e9fead32b65a4d41e8fb4d1d910160405180910390a350506200195e60018055565b5050565b6000546001600160a01b03163314620006265760405162461bcd60e51b815260206004820181905260248201527f4f776e61626c653a2063616c6c6572206973206e6f7420746865206f776e657260448201526064016200066e565b600080546001600160a01b038381166001600160a01b0319831681178455604051919092169283917f8be0079c531659141344cd1fd0a4f28419497f9722a3daafe3b4186f6b6457e09190a35050565b60026001540362001a625760405162461bcd60e51b815260206004820152601f60248201527f5265656e7472616e637947756172643a207265656e7472616e742063616c6c0060448201526064016200066e565b6002600155565b600082815260026020908152604080832060048082015483516318160ddd60e01b8152935192956001600160a01b0390911694909385936318160ddd9382810193928290030181865afa15801562001ac5573d6000803e3d6000fd5b505050506040513d601f19601f8201168201806040525081019062001aeb919062002031565b90508060000362001afd575050505050565b604080518581526000602082018190529187917f4b3d2fa7c486d847aaa08248b93b26c3398f7b94f1bf39a149406adad04a3f23910160405180910390a2505050505050565b61143180620022aa83390190565b60006020828403121562001b6457600080fd5b5035919050565b6000815180845260005b8181101562001b935760208185018101518683018201520162001b75565b506000602082860101526020601f19601f83011685010191505092915050565b60006101808e835280602084015262001bcf8184018f62001b6b565b9050828103604084015262001be5818e62001b6b565b9050828103606084015262001bfb818d62001b6b565b6001600160a01b038c8116608086015260a085018c905260c085018b905260e085018a905261010085018990528716610120850152851515610140850152841515610160850152915062001c4c9050565b9d9c50505050505050505050505050565b80356001600160a01b038116811462001c7557600080fd5b919050565b6000806040838503121562001c8e57600080fd5b62001c998362001c5d565b946020939093013593505050565b6000806040838503121562001cbb57600080fd5b8235915062001ccd6020840162001c5d565b90509250929050565b60208152815160208201526000602083015161018080604085015262001d016101a085018362001b6b565b91506040850151601f198086850301606087015262001d21848362001b6b565b935060608701519150808685030160808701525062001d41838262001b6b565b925050608085015162001d5f60a08601826001600160a01b03169052565b5060a085015160c085015260c085015160e085015260e085015161010081818701528087015191505061012081818701528087015191505061014062001daf818701836001600160a01b03169052565b860151905061016062001dc58682018315159052565b90950151151593019290925250919050565b60006020828403121562001dea57600080fd5b62001df58262001c5d565b9392505050565b6020808252825182820181905260009190848201906040850190845b8181101562001e365783518352928401929184019160010162001e18565b50909695505050505050565b634e487b7160e01b600052604160045260246000fd5b600082601f83011262001e6a57600080fd5b813567ffffffffffffffff8082111562001e885762001e8862001e42565b604051601f8301601f19908116603f0116810190828211818310171562001eb35762001eb362001e42565b8160405283815286602085880101111562001ecd57600080fd5b836020870160208301376000602085830101528094505050505092915050565b60008060008060008060c0878903121562001f0757600080fd5b863567ffffffffffffffff8082111562001f2057600080fd5b62001f2e8a838b0162001e58565b9750602089013591508082111562001f4557600080fd5b62001f538a838b0162001e58565b9650604089013591508082111562001f6a57600080fd5b5062001f7989828a0162001e58565b945050606087013592506080870135915060a087013590509295509295509295565b6000806040838503121562001faf57600080fd5b50508035926020909101359150565b600181811c9082168062001fd357607f821691505b60208210810362001ff457634e487b7160e01b600052602260045260246000fd5b50919050565b60208082526017908201527f4275696c64696e6720646f6573206e6f74206578697374000000000000000000604082015260600190565b6000602082840312156200204457600080fd5b5051919050565b634e487b7160e01b600052601160045260246000fd5b80820281158282048414176200207b576200207b6200204b565b92915050565b6000826200209f57634e487b7160e01b600052601260045260246000fd5b500490565b818103818111156200207b576200207b6200204b565b600060208284031215620020cd57600080fd5b8151801515811462001df557600080fd5b808201808211156200207b576200207b6200204b565b634e487b7160e01b600052603260045260246000fd5b6000600182016200211f576200211f6200204b565b5060010190565b84815260806020820152600062002141608083018662001b6b565b6040830194909452506001600160a01b039190911660609091015292915050565b601f821115620021b057600081815260208120601f850160051c810160208610156200218b5750805b601f850160051c820191505b81811015620021ac5782815560010162002197565b5050505b505050565b815167ffffffffffffffff811115620021d257620021d262001e42565b620021ea81620021e3845462001fbe565b8462002162565b602080601f831160018114620022225760008415620022095750858301515b600019600386901b1c1916600185901b178555620021ac565b600085815260208120601f198616915b82811015620022535788860151825594840194600190910190840162002232565b5085821015620022725787850151600019600388901b60f8161c191681555b5050505050600190811b01905550565b60608152600062002297606083018662001b6b565b6020830194909452506040015291905056fe60806040523480156200001157600080fd5b506040516200143138038062001431833981016040819052620000349162000286565b8260405160200162000047919062000367565b6040516020818303038152906040528360405160200162000069919062000393565b60408051601f1981840301815291905260036200008783826200044d565b5060046200009682826200044d565b505050620000b3620000ad620001d760201b60201c565b620001db565b60008211620001155760405162461bcd60e51b815260206004820152602360248201527f546f74616c20736861726573206d75737420626520677265617465722074686160448201526206e20360ec1b60648201526084015b60405180910390fd5b6001600160a01b0381166200016d5760405162461bcd60e51b815260206004820152601c60248201527f4f776e65722063616e6e6f74206265207a65726f20616464726573730000000060448201526064016200010c565b600684905560076200018084826200044d565b5060088290556200019181620001db565b837f5dae4123784cd40609fae3cf13c33d26e450c755178a325969e7b0c14882f45e8484604051620001c592919062000519565b60405180910390a25050505062000556565b3390565b600580546001600160a01b038381166001600160a01b0319831681179093556040519116919082907f8be0079c531659141344cd1fd0a4f28419497f9722a3daafe3b4186f6b6457e090600090a35050565b634e487b7160e01b600052604160045260246000fd5b60005b838110156200026057818101518382015260200162000246565b50506000910152565b80516001600160a01b03811681146200028157600080fd5b919050565b600080600080608085870312156200029d57600080fd5b845160208601519094506001600160401b0380821115620002bd57600080fd5b818701915087601f830112620002d257600080fd5b815181811115620002e757620002e76200022d565b604051601f8201601f19908116603f011681019083821181831017156200031257620003126200022d565b816040528281528a60208487010111156200032c57600080fd5b6200033f83602083016020880162000243565b8097505050505050604085015191506200035c6060860162000269565b905092959194509250565b600082516200037b81846020870162000243565b6520536861726560d01b920191825250600601919050565b60008251620003a781846020870162000243565b64534841524560d81b920191825250600501919050565b600181811c90821680620003d357607f821691505b602082108103620003f457634e487b7160e01b600052602260045260246000fd5b50919050565b601f8211156200044857600081815260208120601f850160051c81016020861015620004235750805b601f850160051c820191505b8181101562000444578281556001016200042f565b5050505b505050565b81516001600160401b038111156200046957620004696200022d565b62000481816200047a8454620003be565b84620003fa565b602080601f831160018114620004b95760008415620004a05750858301515b600019600386901b1c1916600185901b17855562000444565b600085815260208120601f198616915b82811015620004ea57888601518255948401946001909101908401620004c9565b5085821015620005095787850151600019600388901b60f8161c191681555b5050505050600190811b01905550565b60408152600083518060408401526200053a81606085016020880162000243565b602083019390935250601f91909101601f191601606001919050565b610ecb80620005666000396000f3fe608060405234801561001057600080fd5b50600436106101425760003560e01c8063715018a6116100b8578063a457c2d71161007c578063a457c2d71461026d578063a9059cbb14610280578063dd62ed3e14610293578063f2fde38b146102a6578063f9ab7118146102b9578063fa1814ba146102c157600080fd5b8063715018a61461022757806385adf8cb1461022f5780638da5cb5b1461023757806395d89b4114610252578063a2931fe81461025a57600080fd5b806323b872dd1161010a57806323b872dd146101b7578063313ce567146101ca57806339509351146101d95780633a98ef39146101ec5780635561e38b146101f557806370a08231146101fe57600080fd5b806306fdde0314610147578063095ea7b314610165578063115112ab14610188578063156e29f61461019057806318160ddd146101a5575b600080fd5b61014f6102d4565b60405161015c9190610c8e565b60405180910390f35b610178610173366004610cf8565b610366565b604051901515815260200161015c565b61014f610380565b6101a361019e366004610d22565b61040e565b005b6002545b60405190815260200161015c565b6101786101c5366004610d55565b610587565b6040516012815260200161015c565b6101786101e7366004610cf8565b6105ab565b6101a960085481565b6101a960065481565b6101a961020c366004610d91565b6001600160a01b031660009081526020819052604090205490565b6101a36105cd565b6101786105e1565b6005546040516001600160a01b03909116815260200161015c565b61014f6105f6565b6101a9610268366004610d91565b610605565b61017861027b366004610cf8565b61064b565b61017861028e366004610cf8565b6106c6565b6101a96102a1366004610db3565b6106d4565b6101a36102b4366004610d91565b6106ff565b6101a9610778565b6101a96102cf366004610d91565b6107a6565b6060600380546102e390610de6565b80601f016020809104026020016040519081016040528092919081815260200182805461030f90610de6565b801561035c5780601f106103315761010080835404028352916020019161035c565b820191906000526020600020905b81548152906001019060200180831161033f57829003601f168201915b5050505050905090565b6000336103748185856107e1565b60019150505b92915050565b6007805461038d90610de6565b80601f01602080910402602001604051908101604052809291908181526020018280546103b990610de6565b80156104065780601f106103db57610100808354040283529160200191610406565b820191906000526020600020905b8154815290600101906020018083116103e957829003601f168201915b505050505081565b610416610905565b6001600160a01b0383166104715760405162461bcd60e51b815260206004820152601b60248201527f43616e6e6f74206d696e7420746f207a65726f2061646472657373000000000060448201526064015b60405180910390fd5b600081116104cf5760405162461bcd60e51b815260206004820152602560248201527f546f6b656e7320746f206d696e74206d75737420626520677265617465722074604482015264068616e20360dc1b6064820152608401610468565b600854816104dc60025490565b6104e69190610e36565b11156105345760405162461bcd60e51b815260206004820152601a60248201527f43616e6e6f742065786365656420746f74616c207368617265730000000000006044820152606401610468565b61053e838261095f565b60408051838152602081018390526001600160a01b038516917f0240c371659c45898826a7ba2332942b172ae8c1b47c60e74e1066383b1b6c09910160405180910390a2505050565b600033610595858285610a1e565b6105a0858585610a98565b506001949350505050565b6000336103748185856105be83836106d4565b6105c89190610e36565b6107e1565b6105d5610905565b6105df6000610c3c565b565b60006008546105ef60025490565b1015905090565b6060600480546102e390610de6565b600060085460000361061957506000919050565b6008546001600160a01b03831660009081526020819052604090205461064190612710610e49565b61037a9190610e60565b6000338161065982866106d4565b9050838110156106b95760405162461bcd60e51b815260206004820152602560248201527f45524332303a2064656372656173656420616c6c6f77616e63652062656c6f77604482015264207a65726f60d81b6064820152608401610468565b6105a082868684036107e1565b600033610374818585610a98565b6001600160a01b03918216600090815260016020908152604080832093909416825291909152205490565b610707610905565b6001600160a01b03811661076c5760405162461bcd60e51b815260206004820152602660248201527f4f776e61626c653a206e6577206f776e657220697320746865207a65726f206160448201526564647265737360d01b6064820152608401610468565b61077581610c3c565b50565b600060085461078660025490565b106107915750600090565b6002546008546107a19190610e82565b905090565b60006008546000036107ba57506000919050565b6008546001600160a01b038316600090815260208190526040902054610641906064610e49565b6001600160a01b0383166108435760405162461bcd60e51b8152602060048201526024808201527f45524332303a20617070726f76652066726f6d20746865207a65726f206164646044820152637265737360e01b6064820152608401610468565b6001600160a01b0382166108a45760405162461bcd60e51b815260206004820152602260248201527f45524332303a20617070726f766520746f20746865207a65726f206164647265604482015261737360f01b6064820152608401610468565b6001600160a01b0383811660008181526001602090815260408083209487168084529482529182902085905590518481527f8c5be1e5ebec7d5bd14f71427d1e84f3dd0314c0f7b2291e5b200ac8c7c3b925910160405180910390a3505050565b6005546001600160a01b031633146105df5760405162461bcd60e51b815260206004820181905260248201527f4f776e61626c653a2063616c6c6572206973206e6f7420746865206f776e65726044820152606401610468565b6001600160a01b0382166109b55760405162461bcd60e51b815260206004820152601f60248201527f45524332303a206d696e7420746f20746865207a65726f2061646472657373006044820152606401610468565b80600260008282546109c79190610e36565b90915550506001600160a01b038216600081815260208181526040808320805486019055518481527fddf252ad1be2c89b69c2b068fc378daa952ba7f163c4a11628f55a4df523b3ef910160405180910390a35050565b6000610a2a84846106d4565b90506000198114610a925781811015610a855760405162461bcd60e51b815260206004820152601d60248201527f45524332303a20696e73756666696369656e7420616c6c6f77616e63650000006044820152606401610468565b610a9284848484036107e1565b50505050565b6001600160a01b038316610afc5760405162461bcd60e51b815260206004820152602560248201527f45524332303a207472616e736665722066726f6d20746865207a65726f206164604482015264647265737360d81b6064820152608401610468565b6001600160a01b038216610b5e5760405162461bcd60e51b815260206004820152602360248201527f45524332303a207472616e7366657220746f20746865207a65726f206164647260448201526265737360e81b6064820152608401610468565b6001600160a01b03831660009081526020819052604090205481811015610bd65760405162461bcd60e51b815260206004820152602660248201527f45524332303a207472616e7366657220616d6f756e7420657863656564732062604482015265616c616e636560d01b6064820152608401610468565b6001600160a01b03848116600081815260208181526040808320878703905593871680835291849020805487019055925185815290927fddf252ad1be2c89b69c2b068fc378daa952ba7f163c4a11628f55a4df523b3ef910160405180910390a3610a92565b600580546001600160a01b038381166001600160a01b0319831681179093556040519116919082907f8be0079c531659141344cd1fd0a4f28419497f9722a3daafe3b4186f6b6457e090600090a35050565b600060208083528351808285015260005b81811015610cbb57858101830151858201604001528201610c9f565b506000604082860101526040601f19601f8301168501019250505092915050565b80356001600160a01b0381168114610cf357600080fd5b919050565b60008060408385031215610d0b57600080fd5b610d1483610cdc565b946020939093013593505050565b600080600060608486031215610d3757600080fd5b610d4084610cdc565b95602085013595506040909401359392505050565b600080600060608486031215610d6a57600080fd5b610d7384610cdc565b9250610d8160208501610cdc565b9150604084013590509250925092565b600060208284031215610da357600080fd5b610dac82610cdc565b9392505050565b60008060408385031215610dc657600080fd5b610dcf83610cdc565b9150610ddd60208401610cdc565b90509250929050565b600181811c90821680610dfa57607f821691505b602082108103610e1a57634e487b7160e01b600052602260045260246000fd5b50919050565b634e487b7160e01b600052601160045260246000fd5b8082018082111561037a5761037a610e20565b808202811582820484141761037a5761037a610e20565b600082610e7d57634e487b7160e01b600052601260045260246000fd5b500490565b8181038181111561037a5761037a610e2056fea26469706673582212201f7852486b1fdb485b190777799447d91e031907848cf2988f7ab21d3b28ae6e64736f6c63430008130033a26469706673582212202b97797a142e0cff52961c1f092e905c0123a8e2a9e5cf6edcb7dba4dbcf875964736f6c63430008130033",
  "immutableReferences": {},
  "source": "// SPDX-License-Identifier: MIT\r\npragma solidity ^0.8.19;\r\n\r\nimport \"./BuildingToken.sol\";\r\nimport \"@openzeppelin/contracts/access/Ownable.sol\";\r\nimport \"@openzeppelin/contracts/security/ReentrancyGuard.sol\";\r\n\r\n/**\r\n * @title BuildingRegistry\r\n * @dev Main contract for managing buildings, investments, and rental payments\r\n * Handles building creation, investment collection, and automatic rent distribution\r\n */\r\ncontract BuildingRegistry is Ownable, ReentrancyGuard {\r\n    // Building structure\r\n    struct Building {\r\n        uint256 id;\r\n        string name;\r\n        string description;\r\n        string location;\r\n        address tokenAddress;        // Address of the BuildingToken contract\r\n        uint256 totalShares;         // Total shares available (e.g., 10000)\r\n        uint256 pricePerShare;       // Price per share in wei\r\n        uint256 totalInvested;       // Total amount invested so far\r\n        uint256 rentalPricePerDay;   // Daily rental price in wei\r\n        address creator;             // Address that created the building\r\n        bool exists;\r\n        bool investmentOpen;        // Whether investment is still open\r\n    }\r\n    \r\n    // Storage\r\n    mapping(uint256 => Building) public buildings;\r\n    mapping(address => uint256[]) public investorBuildings; // Investor address -> building IDs\r\n    mapping(uint256 => uint256) public buildingRentals;     // Building ID -> total rental income\r\n    mapping(uint256 => mapping(address => uint256)) public investorRentEarnings; // Building ID -> Investor -> Earnings\r\n    \r\n    uint256 private _buildingIdCounter;\r\n    \r\n    // Events\r\n    event BuildingCreated(\r\n        uint256 indexed buildingId,\r\n        string name,\r\n        address indexed tokenAddress,\r\n        address indexed creator,\r\n        uint256 totalShares,\r\n        uint256 pricePerShare\r\n    );\r\n    \r\n    event InvestmentMade(\r\n        uint256 indexed buildingId,\r\n        address indexed investor,\r\n        uint256 amount,\r\n        uint256 sharesReceived\r\n    );\r\n    \r\n    event RentPaid(\r\n        uint256 indexed buildingId,\r\n        address indexed renter,\r\n        uint256 amount,\r\n        uint256 daysRented\r\n    );\r\n    \r\n    event RentDistributed(\r\n        uint256 indexed buildingId,\r\n        uint256 totalAmount,\r\n        uint256 distributedAmount\r\n    );\r\n    \r\n    event InvestmentClosed(uint256 indexed buildingId);\r\n    \r\n    /**\r\n     * @dev Create a new building and deploy its token contract\r\n     * @param name Building name\r\n     * @param description Building description\r\n     * @param location Building location\r\n     * @param totalShares Total number of shares (e.g., 10000 for 100%)\r\n     * @param pricePerShare Price per share in wei\r\n     * @param rentalPricePerDay Daily rental price in wei\r\n     */\r\n    function createBuilding(\r\n        string memory name,\r\n        string memory description,\r\n        string memory location,\r\n        uint256 totalShares,\r\n        uint256 pricePerShare,\r\n        uint256 rentalPricePerDay\r\n    ) external returns (uint256) {\r\n        require(bytes(name).length > 0, \"Building name cannot be empty\");\r\n        require(totalShares > 0, \"Total shares must be greater than 0\");\r\n        require(pricePerShare > 0, \"Price per share must be greater than 0\");\r\n        require(rentalPricePerDay > 0, \"Rental price must be greater than 0\");\r\n        \r\n        uint256 buildingId = _buildingIdCounter++;\r\n        \r\n        // Deploy new BuildingToken contract\r\n        BuildingToken token = new BuildingToken(\r\n            buildingId,\r\n            name,\r\n            totalShares,\r\n            address(this) // Registry owns the token initially\r\n        );\r\n        \r\n        // Create building record\r\n        buildings[buildingId] = Building({\r\n            id: buildingId,\r\n            name: name,\r\n            description: description,\r\n            location: location,\r\n            tokenAddress: address(token),\r\n            totalShares: totalShares,\r\n            pricePerShare: pricePerShare,\r\n            totalInvested: 0,\r\n            rentalPricePerDay: rentalPricePerDay,\r\n            creator: msg.sender,\r\n            exists: true,\r\n            investmentOpen: true\r\n        });\r\n        \r\n        emit BuildingCreated(\r\n            buildingId,\r\n            name,\r\n            address(token),\r\n            msg.sender,\r\n            totalShares,\r\n            pricePerShare\r\n        );\r\n        \r\n        return buildingId;\r\n    }\r\n    \r\n    /**\r\n     * @dev Invest in a building by purchasing shares\r\n     * @param buildingId ID of the building to invest in\r\n     */\r\n    function investInBuilding(uint256 buildingId) external payable nonReentrant {\r\n        Building storage building = buildings[buildingId];\r\n        require(building.exists, \"Building does not exist\");\r\n        require(building.investmentOpen, \"Investment is closed for this building\");\r\n        \r\n        BuildingToken token = BuildingToken(building.tokenAddress);\r\n        require(!token.isFullyInvested(), \"Building is fully invested\");\r\n        \r\n        // Calculate how many shares can be purchased\r\n        uint256 maxShares = token.getRemainingShares();\r\n        uint256 sharesToBuy = msg.value / building.pricePerShare;\r\n        \r\n        require(sharesToBuy > 0, \"Insufficient payment for at least one share\");\r\n        \r\n        // Limit to remaining shares\r\n        if (sharesToBuy > maxShares) {\r\n            sharesToBuy = maxShares;\r\n        }\r\n        \r\n        uint256 actualCost = sharesToBuy * building.pricePerShare;\r\n        uint256 refund = msg.value - actualCost;\r\n        \r\n        // Mint tokens to investor\r\n        token.mint(msg.sender, actualCost, sharesToBuy);\r\n        \r\n        // Update building stats\r\n        building.totalInvested += actualCost;\r\n        \r\n        // Track investor's buildings\r\n        bool alreadyInvested = false;\r\n        for (uint256 i = 0; i < investorBuildings[msg.sender].length; i++) {\r\n            if (investorBuildings[msg.sender][i] == buildingId) {\r\n                alreadyInvested = true;\r\n                break;\r\n            }\r\n        }\r\n        if (!alreadyInvested) {\r\n            investorBuildings[msg.sender].push(buildingId);\r\n        }\r\n        \r\n        // Refund excess payment\r\n        if (refund > 0) {\r\n            payable(msg.sender).transfer(refund);\r\n        }\r\n        \r\n        // Close investment if fully invested\r\n        if (token.isFullyInvested()) {\r\n            building.investmentOpen = false;\r\n            emit InvestmentClosed(buildingId);\r\n        }\r\n        \r\n        emit InvestmentMade(buildingId, msg.sender, actualCost, sharesToBuy);\r\n    }\r\n    \r\n    /**\r\n     * @dev Pay rent for a building (called by renter)\r\n     * @param buildingId ID of the building being rented\r\n     * @param daysRented Number of days being rented\r\n     */\r\n    function payRent(uint256 buildingId, uint256 daysRented) external payable nonReentrant {\r\n        Building storage building = buildings[buildingId];\r\n        require(building.exists, \"Building does not exist\");\r\n        require(daysRented > 0, \"Days rented must be greater than 0\");\r\n        \r\n        uint256 totalRent = building.rentalPricePerDay * daysRented;\r\n        require(msg.value >= totalRent, \"Insufficient payment for rent\");\r\n        \r\n        // Update rental income\r\n        buildingRentals[buildingId] += totalRent;\r\n        \r\n        // Distribute rent to investors\r\n        _distributeRent(buildingId, totalRent);\r\n        \r\n        // Refund excess payment\r\n        if (msg.value > totalRent) {\r\n            payable(msg.sender).transfer(msg.value - totalRent);\r\n        }\r\n        \r\n        emit RentPaid(buildingId, msg.sender, totalRent, daysRented);\r\n    }\r\n    \r\n    /**\r\n     * @dev Internal function to distribute rent to token holders\r\n     * @param buildingId ID of the building\r\n     * @param rentAmount Total rent amount to distribute\r\n     */\r\n    function _distributeRent(uint256 buildingId, uint256 rentAmount) internal {\r\n        Building storage building = buildings[buildingId];\r\n        BuildingToken token = BuildingToken(building.tokenAddress);\r\n        \r\n        uint256 totalSupply = token.totalSupply();\r\n        if (totalSupply == 0) {\r\n            // No investors yet, keep rent in contract\r\n            return;\r\n        }\r\n        \r\n        // Distribute proportionally to all token holders\r\n        // We need to track all holders, but ERC20 doesn't have an easy way to enumerate\r\n        // For simplicity, we'll store earnings and let investors withdraw\r\n        \r\n        // Note: We use a withdrawal pattern - investors will claim their earnings\r\n        // This is more gas-efficient than distributing to all holders immediately\r\n        uint256 distributedAmount = 0; // Will be 0 as we use withdrawal pattern\r\n        \r\n        // Note: In a production system, you'd want to iterate through holders\r\n        // For now, we'll use a withdrawal pattern where investors can claim their earnings\r\n        // This is more gas-efficient for large numbers of investors\r\n        \r\n        // Store the rent amount for later distribution via withdrawal pattern\r\n        // For this implementation, we'll distribute immediately to known holders\r\n        // A better approach would be to use a withdrawal pattern\r\n        \r\n        // For simplicity, we'll keep the rent in the contract and allow withdrawal\r\n        // This requires tracking earnings per investor, which we'll do in a separate mapping\r\n        \r\n        emit RentDistributed(buildingId, rentAmount, distributedAmount);\r\n    }\r\n    \r\n    /**\r\n     * @dev Withdraw accumulated rent earnings for a specific building\r\n     * @param buildingId ID of the building\r\n     */\r\n    function withdrawRentEarnings(uint256 buildingId) external nonReentrant {\r\n        Building storage building = buildings[buildingId];\r\n        require(building.exists, \"Building does not exist\");\r\n        \r\n        BuildingToken token = BuildingToken(building.tokenAddress);\r\n        uint256 balance = token.balanceOf(msg.sender);\r\n        require(balance > 0, \"No shares owned in this building\");\r\n        \r\n        uint256 totalSupply = token.totalSupply();\r\n        require(totalSupply > 0, \"No tokens issued\");\r\n        \r\n        // Calculate earnings based on total rentals and user's share\r\n        uint256 totalRentals = buildingRentals[buildingId];\r\n        uint256 userEarnings = (totalRentals * balance) / totalSupply;\r\n        uint256 alreadyWithdrawn = investorRentEarnings[buildingId][msg.sender];\r\n        uint256 withdrawable = userEarnings - alreadyWithdrawn;\r\n        \r\n        require(withdrawable > 0, \"No earnings to withdraw\");\r\n        \r\n        // Update withdrawn amount\r\n        investorRentEarnings[buildingId][msg.sender] = userEarnings;\r\n        \r\n        // Transfer earnings\r\n        payable(msg.sender).transfer(withdrawable);\r\n    }\r\n    \r\n    /**\r\n     * @dev Get investor's withdrawable earnings for a building\r\n     * @param buildingId ID of the building\r\n     * @param investor Address of the investor\r\n     * @return Total earnings, already withdrawn, withdrawable amount\r\n     */\r\n    function getInvestorEarnings(uint256 buildingId, address investor) \r\n        external \r\n        view \r\n        returns (uint256, uint256, uint256) \r\n    {\r\n        Building storage building = buildings[buildingId];\r\n        require(building.exists, \"Building does not exist\");\r\n        \r\n        BuildingToken token = BuildingToken(building.tokenAddress);\r\n        uint256 balance = token.balanceOf(investor);\r\n        uint256 totalSupply = token.totalSupply();\r\n        \r\n        if (totalSupply == 0 || balance == 0) {\r\n            return (0, 0, 0);\r\n        }\r\n        \r\n        uint256 totalRentals = buildingRentals[buildingId];\r\n        uint256 totalEarnings = (totalRentals * balance) / totalSupply;\r\n        uint256 alreadyWithdrawn = investorRentEarnings[buildingId][investor];\r\n        uint256 withdrawable = totalEarnings - alreadyWithdrawn;\r\n        \r\n        return (totalEarnings, alreadyWithdrawn, withdrawable);\r\n    }\r\n    \r\n    /**\r\n     * @dev Get building information\r\n     * @param buildingId ID of the building\r\n     * @return Building struct\r\n     */\r\n    function getBuilding(uint256 buildingId) external view returns (Building memory) {\r\n        require(buildings[buildingId].exists, \"Building does not exist\");\r\n        return buildings[buildingId];\r\n    }\r\n    \r\n    /**\r\n     * @dev Get all buildings an investor has invested in\r\n     * @param investor Address of the investor\r\n     * @return Array of building IDs\r\n     */\r\n    function getInvestorBuildings(address investor) external view returns (uint256[] memory) {\r\n        return investorBuildings[investor];\r\n    }\r\n    \r\n    /**\r\n     * @dev Get total number of buildings\r\n     * @return Total count\r\n     */\r\n    function getTotalBuildings() external view returns (uint256) {\r\n        return _buildingIdCounter;\r\n    }\r\n    \r\n    /**\r\n     * @dev Close investment for a building (only owner)\r\n     * @param buildingId ID of the building\r\n     */\r\n    function closeInvestment(uint256 buildingId) external onlyOwner {\r\n        Building storage building = buildings[buildingId];\r\n        require(building.exists, \"Building does not exist\");\r\n        building.investmentOpen = false;\r\n        emit InvestmentClosed(buildingId);\r\n    }\r\n}\r\n\r\n",
  "sourcePath": "C:\\Users\\Lenovo\\OneDrive\\Desktop\\comp-senior-design-project\\SmartRent\\blockchain\\contracts\\BuildingRegistry.sol",
  "compiler": {
    "name": "solc",
    "version": "0.8.19+commit.7dd6d404.Emscripten.clang"
  },
  "schemaVersion": "3.4.16",
  "updatedAt": "2025-11-18T19:41:57.001Z",
  "networkType": "ethereum",
  "devdoc": {
    "details": "Main contract for managing buildings, investments, and rental payments Handles building creation, investment collection, and automatic rent distribution",
    "kind": "dev",
    "methods": {
      "closeInvestment(uint256)": {
        "details": "Close investment for a building (only owner)",
        "params": {
          "buildingId": "ID of the building"
        }
      },
      "createBuilding(string,string,string,uint256,uint256,uint256)": {
        "details": "Create a new building and deploy its token contract",
        "params": {
          "description": "Building description",
          "location": "Building location",
          "name": "Building name",
          "pricePerShare": "Price per share in wei",
          "rentalPricePerDay": "Daily rental price in wei",
          "totalShares": "Total number of shares (e.g., 10000 for 100%)"
        }
      },
      "getBuilding(uint256)": {
        "details": "Get building information",
        "params": {
          "buildingId": "ID of the building"
        },
        "returns": {
          "_0": "Building struct"
        }
      },
      "getInvestorBuildings(address)": {
        "details": "Get all buildings an investor has invested in",
        "params": {
          "investor": "Address of the investor"
        },
        "returns": {
          "_0": "Array of building IDs"
        }
      },
      "getInvestorEarnings(uint256,address)": {
        "details": "Get investor's withdrawable earnings for a building",
        "params": {
          "buildingId": "ID of the building",
          "investor": "Address of the investor"
        },
        "returns": {
          "_0": "Total earnings, already withdrawn, withdrawable amount"
        }
      },
      "getTotalBuildings()": {
        "details": "Get total number of buildings",
        "returns": {
          "_0": "Total count"
        }
      },
      "investInBuilding(uint256)": {
        "details": "Invest in a building by purchasing shares",
        "params": {
          "buildingId": "ID of the building to invest in"
        }
      },
      "owner()": {
        "details": "Returns the address of the current owner."
      },
      "payRent(uint256,uint256)": {
        "details": "Pay rent for a building (called by renter)",
        "params": {
          "buildingId": "ID of the building being rented",
          "daysRented": "Number of days being rented"
        }
      },
      "renounceOwnership()": {
        "details": "Leaves the contract without owner. It will not be possible to call `onlyOwner` functions. Can only be called by the current owner. NOTE: Renouncing ownership will leave the contract without an owner, thereby disabling any functionality that is only available to the owner."
      },
      "transferOwnership(address)": {
        "details": "Transfers ownership of the contract to a new account (`newOwner`). Can only be called by the current owner."
      },
      "withdrawRentEarnings(uint256)": {
        "details": "Withdraw accumulated rent earnings for a specific building",
        "params": {
          "buildingId": "ID of the building"
        }
      }
    },
    "title": "BuildingRegistry",
    "version": 1
  },
  "userdoc": {
    "kind": "user",
    "methods": {},
    "version": 1
  }
}