{
  "_format": "hh-sol-artifact-1",
  "contractName": "Building1122",
  "sourceName": "contracts/Building1122.sol",
  "abi": [
    {
      "inputs": [
        {
          "internalType": "string",
          "name": "uri_",
          "type": "string"
        },
        {
          "internalType": "address",
          "name": "initialOwner",
          "type": "address"
        }
      ],
      "stateMutability": "nonpayable",
      "type": "constructor"
    },
    {
      "inputs": [
        {
          "internalType": "address",
          "name": "sender",
          "type": "address"
        },
        {
          "internalType": "uint256",
          "name": "balance",
          "type": "uint256"
        },
        {
          "internalType": "uint256",
          "name": "needed",
          "type": "uint256"
        },
        {
          "internalType": "uint256",
          "name": "tokenId",
          "type": "uint256"
        }
      ],
      "name": "ERC1155InsufficientBalance",
      "type": "error"
    },
    {
      "inputs": [
        {
          "internalType": "address",
          "name": "approver",
          "type": "address"
        }
      ],
      "name": "ERC1155InvalidApprover",
      "type": "error"
    },
    {
      "inputs": [
        {
          "internalType": "uint256",
          "name": "idsLength",
          "type": "uint256"
        },
        {
          "internalType": "uint256",
          "name": "valuesLength",
          "type": "uint256"
        }
      ],
      "name": "ERC1155InvalidArrayLength",
      "type": "error"
    },
    {
      "inputs": [
        {
          "internalType": "address",
          "name": "operator",
          "type": "address"
        }
      ],
      "name": "ERC1155InvalidOperator",
      "type": "error"
    },
    {
      "inputs": [
        {
          "internalType": "address",
          "name": "receiver",
          "type": "address"
        }
      ],
      "name": "ERC1155InvalidReceiver",
      "type": "error"
    },
    {
      "inputs": [
        {
          "internalType": "address",
          "name": "sender",
          "type": "address"
        }
      ],
      "name": "ERC1155InvalidSender",
      "type": "error"
    },
    {
      "inputs": [
        {
          "internalType": "address",
          "name": "operator",
          "type": "address"
        },
        {
          "internalType": "address",
          "name": "owner",
          "type": "address"
        }
      ],
      "name": "ERC1155MissingApprovalForAll",
      "type": "error"
    },
    {
      "inputs": [],
      "name": "EnforcedPause",
      "type": "error"
    },
    {
      "inputs": [],
      "name": "ExpectedPause",
      "type": "error"
    },
    {
      "inputs": [
        {
          "internalType": "address",
          "name": "owner",
          "type": "address"
        }
      ],
      "name": "OwnableInvalidOwner",
      "type": "error"
    },
    {
      "inputs": [
        {
          "internalType": "address",
          "name": "account",
          "type": "address"
        }
      ],
      "name": "OwnableUnauthorizedAccount",
      "type": "error"
    },
    {
      "anonymous": false,
      "inputs": [
        {
          "indexed": true,
          "internalType": "address",
          "name": "account",
          "type": "address"
        },
        {
          "indexed": true,
          "internalType": "address",
          "name": "operator",
          "type": "address"
        },
        {
          "indexed": false,
          "internalType": "bool",
          "name": "approved",
          "type": "bool"
        }
      ],
      "name": "ApprovalForAll",
      "type": "event"
    },
    {
      "anonymous": false,
      "inputs": [
        {
          "indexed": true,
          "internalType": "uint256",
          "name": "tokenId",
          "type": "uint256"
        },
        {
          "indexed": true,
          "internalType": "address",
          "name": "initialOwner",
          "type": "address"
        },
        {
          "indexed": false,
          "internalType": "uint256",
          "name": "totalSupply",
          "type": "uint256"
        },
        {
          "indexed": false,
          "internalType": "string",
          "name": "metadataURI",
          "type": "string"
        }
      ],
      "name": "AssetInitialized",
      "type": "event"
    },
    {
      "anonymous": false,
      "inputs": [
        {
          "indexed": true,
          "internalType": "uint256",
          "name": "tokenId",
          "type": "uint256"
        },
        {
          "indexed": false,
          "internalType": "string",
          "name": "reason",
          "type": "string"
        }
      ],
      "name": "HubNotificationFailed",
      "type": "event"
    },
    {
      "anonymous": false,
      "inputs": [
        {
          "indexed": true,
          "internalType": "address",
          "name": "previousOwner",
          "type": "address"
        },
        {
          "indexed": true,
          "internalType": "address",
          "name": "newOwner",
          "type": "address"
        }
      ],
      "name": "OwnershipTransferred",
      "type": "event"
    },
    {
      "anonymous": false,
      "inputs": [
        {
          "indexed": false,
          "internalType": "address",
          "name": "account",
          "type": "address"
        }
      ],
      "name": "Paused",
      "type": "event"
    },
    {
      "anonymous": false,
      "inputs": [
        {
          "indexed": true,
          "internalType": "address",
          "name": "oldHub",
          "type": "address"
        },
        {
          "indexed": true,
          "internalType": "address",
          "name": "newHub",
          "type": "address"
        }
      ],
      "name": "SmartRentHubUpdated",
      "type": "event"
    },
    {
      "anonymous": false,
      "inputs": [
        {
          "indexed": true,
          "internalType": "uint256",
          "name": "tokenId",
          "type": "uint256"
        },
        {
          "indexed": false,
          "internalType": "uint256",
          "name": "totalSupply",
          "type": "uint256"
        }
      ],
      "name": "TotalSupplySet",
      "type": "event"
    },
    {
      "anonymous": false,
      "inputs": [
        {
          "indexed": true,
          "internalType": "address",
          "name": "operator",
          "type": "address"
        },
        {
          "indexed": true,
          "internalType": "address",
          "name": "from",
          "type": "address"
        },
        {
          "indexed": true,
          "internalType": "address",
          "name": "to",
          "type": "address"
        },
        {
          "indexed": false,
          "internalType": "uint256[]",
          "name": "ids",
          "type": "uint256[]"
        },
        {
          "indexed": false,
          "internalType": "uint256[]",
          "name": "values",
          "type": "uint256[]"
        }
      ],
      "name": "TransferBatch",
      "type": "event"
    },
    {
      "anonymous": false,
      "inputs": [
        {
          "indexed": true,
          "internalType": "address",
          "name": "operator",
          "type": "address"
        },
        {
          "indexed": true,
          "internalType": "address",
          "name": "from",
          "type": "address"
        },
        {
          "indexed": true,
          "internalType": "address",
          "name": "to",
          "type": "address"
        },
        {
          "indexed": false,
          "internalType": "uint256",
          "name": "id",
          "type": "uint256"
        },
        {
          "indexed": false,
          "internalType": "uint256",
          "name": "value",
          "type": "uint256"
        }
      ],
      "name": "TransferSingle",
      "type": "event"
    },
    {
      "anonymous": false,
      "inputs": [
        {
          "indexed": false,
          "internalType": "string",
          "name": "value",
          "type": "string"
        },
        {
          "indexed": true,
          "internalType": "uint256",
          "name": "id",
          "type": "uint256"
        }
      ],
      "name": "URI",
      "type": "event"
    },
    {
      "anonymous": false,
      "inputs": [
        {
          "indexed": false,
          "internalType": "address",
          "name": "account",
          "type": "address"
        }
      ],
      "name": "Unpaused",
      "type": "event"
    },
    {
      "inputs": [
        {
          "internalType": "uint256",
          "name": "",
          "type": "uint256"
        }
      ],
      "name": "assetMetadataURI",
      "outputs": [
        {
          "internalType": "string",
          "name": "",
          "type": "string"
        }
      ],
      "stateMutability": "view",
      "type": "function"
    },
    {
      "inputs": [
        {
          "internalType": "address",
          "name": "account",
          "type": "address"
        },
        {
          "internalType": "uint256",
          "name": "id",
          "type": "uint256"
        }
      ],
      "name": "balanceOf",
      "outputs": [
        {
          "internalType": "uint256",
          "name": "",
          "type": "uint256"
        }
      ],
      "stateMutability": "view",
      "type": "function"
    },
    {
      "inputs": [
        {
          "internalType": "address[]",
          "name": "accounts",
          "type": "address[]"
        },
        {
          "internalType": "uint256[]",
          "name": "ids",
          "type": "uint256[]"
        }
      ],
      "name": "balanceOfBatch",
      "outputs": [
        {
          "internalType": "uint256[]",
          "name": "",
          "type": "uint256[]"
        }
      ],
      "stateMutability": "view",
      "type": "function"
    },
    {
      "inputs": [
        {
          "internalType": "uint256",
          "name": "tokenId",
          "type": "uint256"
        }
      ],
      "name": "exists",
      "outputs": [
        {
          "internalType": "bool",
          "name": "",
          "type": "bool"
        }
      ],
      "stateMutability": "view",
      "type": "function"
    },
    {
      "inputs": [
        {
          "internalType": "address",
          "name": "account",
          "type": "address"
        },
        {
          "internalType": "uint256",
          "name": "tokenId",
          "type": "uint256"
        }
      ],
      "name": "getOwnershipPercentage",
      "outputs": [
        {
          "internalType": "uint256",
          "name": "percentage",
          "type": "uint256"
        }
      ],
      "stateMutability": "view",
      "type": "function"
    },
    {
      "inputs": [
        {
          "internalType": "address",
          "name": "account",
          "type": "address"
        },
        {
          "internalType": "address",
          "name": "operator",
          "type": "address"
        }
      ],
      "name": "isApprovedForAll",
      "outputs": [
        {
          "internalType": "bool",
          "name": "",
          "type": "bool"
        }
      ],
      "stateMutability": "view",
      "type": "function"
    },
    {
      "inputs": [
        {
          "internalType": "uint256",
          "name": "tokenId",
          "type": "uint256"
        },
        {
          "internalType": "address",
          "name": "initialOwner",
          "type": "address"
        },
        {
          "internalType": "uint256",
          "name": "amount",
          "type": "uint256"
        },
        {
          "internalType": "string",
          "name": "metadataURI",
          "type": "string"
        }
      ],
      "name": "mintInitialSupply",
      "outputs": [],
      "stateMutability": "nonpayable",
      "type": "function"
    },
    {
      "inputs": [],
      "name": "owner",
      "outputs": [
        {
          "internalType": "address",
          "name": "",
          "type": "address"
        }
      ],
      "stateMutability": "view",
      "type": "function"
    },
    {
      "inputs": [],
      "name": "pause",
      "outputs": [],
      "stateMutability": "nonpayable",
      "type": "function"
    },
    {
      "inputs": [],
      "name": "paused",
      "outputs": [
        {
          "internalType": "bool",
          "name": "",
          "type": "bool"
        }
      ],
      "stateMutability": "view",
      "type": "function"
    },
    {
      "inputs": [],
      "name": "renounceOwnership",
      "outputs": [],
      "stateMutability": "nonpayable",
      "type": "function"
    },
    {
      "inputs": [],
      "name": "royaltyBasisPoints",
      "outputs": [
        {
          "internalType": "uint96",
          "name": "",
          "type": "uint96"
        }
      ],
      "stateMutability": "view",
      "type": "function"
    },
    {
      "inputs": [
        {
          "internalType": "uint256",
          "name": "tokenId",
          "type": "uint256"
        },
        {
          "internalType": "uint256",
          "name": "salePrice",
          "type": "uint256"
        }
      ],
      "name": "royaltyInfo",
      "outputs": [
        {
          "internalType": "address",
          "name": "receiver",
          "type": "address"
        },
        {
          "internalType": "uint256",
          "name": "royaltyAmount",
          "type": "uint256"
        }
      ],
      "stateMutability": "view",
      "type": "function"
    },
    {
      "inputs": [],
      "name": "royaltyReceiver",
      "outputs": [
        {
          "internalType": "address",
          "name": "",
          "type": "address"
        }
      ],
      "stateMutability": "view",
      "type": "function"
    },
    {
      "inputs": [
        {
          "internalType": "address",
          "name": "from",
          "type": "address"
        },
        {
          "internalType": "address",
          "name": "to",
          "type": "address"
        },
        {
          "internalType": "uint256[]",
          "name": "ids",
          "type": "uint256[]"
        },
        {
          "internalType": "uint256[]",
          "name": "values",
          "type": "uint256[]"
        },
        {
          "internalType": "bytes",
          "name": "data",
          "type": "bytes"
        }
      ],
      "name": "safeBatchTransferFrom",
      "outputs": [],
      "stateMutability": "nonpayable",
      "type": "function"
    },
    {
      "inputs": [
        {
          "internalType": "address",
          "name": "from",
          "type": "address"
        },
        {
          "internalType": "address",
          "name": "to",
          "type": "address"
        },
        {
          "internalType": "uint256",
          "name": "id",
          "type": "uint256"
        },
        {
          "internalType": "uint256",
          "name": "value",
          "type": "uint256"
        },
        {
          "internalType": "bytes",
          "name": "data",
          "type": "bytes"
        }
      ],
      "name": "safeTransferFrom",
      "outputs": [],
      "stateMutability": "nonpayable",
      "type": "function"
    },
    {
      "inputs": [
        {
          "internalType": "address",
          "name": "operator",
          "type": "address"
        },
        {
          "internalType": "bool",
          "name": "approved",
          "type": "bool"
        }
      ],
      "name": "setApprovalForAll",
      "outputs": [],
      "stateMutability": "nonpayable",
      "type": "function"
    },
    {
      "inputs": [
        {
          "internalType": "uint96",
          "name": "newBasisPoints",
          "type": "uint96"
        }
      ],
      "name": "setRoyaltyBasisPoints",
      "outputs": [],
      "stateMutability": "nonpayable",
      "type": "function"
    },
    {
      "inputs": [
        {
          "internalType": "address",
          "name": "newReceiver",
          "type": "address"
        }
      ],
      "name": "setRoyaltyReceiver",
      "outputs": [],
      "stateMutability": "nonpayable",
      "type": "function"
    },
    {
      "inputs": [
        {
          "internalType": "address",
          "name": "_smartRentHub",
          "type": "address"
        }
      ],
      "name": "setSmartRentHub",
      "outputs": [],
      "stateMutability": "nonpayable",
      "type": "function"
    },
    {
      "inputs": [
        {
          "internalType": "string",
          "name": "newuri",
          "type": "string"
        }
      ],
      "name": "setURI",
      "outputs": [],
      "stateMutability": "nonpayable",
      "type": "function"
    },
    {
      "inputs": [],
      "name": "smartRentHub",
      "outputs": [
        {
          "internalType": "address",
          "name": "",
          "type": "address"
        }
      ],
      "stateMutability": "view",
      "type": "function"
    },
    {
      "inputs": [
        {
          "internalType": "bytes4",
          "name": "interfaceId",
          "type": "bytes4"
        }
      ],
      "name": "supportsInterface",
      "outputs": [
        {
          "internalType": "bool",
          "name": "",
          "type": "bool"
        }
      ],
      "stateMutability": "view",
      "type": "function"
    },
    {
      "inputs": [
        {
          "internalType": "uint256",
          "name": "",
          "type": "uint256"
        }
      ],
      "name": "tokenInitialized",
      "outputs": [
        {
          "internalType": "bool",
          "name": "",
          "type": "bool"
        }
      ],
      "stateMutability": "view",
      "type": "function"
    },
    {
      "inputs": [
        {
          "internalType": "uint256",
          "name": "",
          "type": "uint256"
        }
      ],
      "name": "totalSupply",
      "outputs": [
        {
          "internalType": "uint256",
          "name": "",
          "type": "uint256"
        }
      ],
      "stateMutability": "view",
      "type": "function"
    },
    {
      "inputs": [
        {
          "internalType": "address",
          "name": "newOwner",
          "type": "address"
        }
      ],
      "name": "transferOwnership",
      "outputs": [],
      "stateMutability": "nonpayable",
      "type": "function"
    },
    {
      "inputs": [],
      "name": "unpause",
      "outputs": [],
      "stateMutability": "nonpayable",
      "type": "function"
    },
    {
      "inputs": [
        {
          "internalType": "uint256",
          "name": "tokenId",
          "type": "uint256"
        }
      ],
      "name": "uri",
      "outputs": [
        {
          "internalType": "string",
          "name": "",
          "type": "string"
        }
      ],
      "stateMutability": "view",
      "type": "function"
    }
  ],
  "bytecode": "0x608060405234620002875762003244803803806200001d81620002a1565b928339810190604081830312620002875780516001600160401b03908181116200028757820190601f9284848401121562000287578251908282116200027157602091601f19946200007584878985011601620002a1565b9782895284838301011162000287579083929160005b8281106200028c575050600090880183015201516001600160a01b03958682169591869003620002875780519384116200027157600254926001938481811c9116801562000266575b82821014620002505783811162000204575b5080928511600114620001995750839450908392916000946200018d575b50501b916000199060031b1c1916176002555b80156200017457600380546001600160a01b031981168317909155604051928291167f8be0079c531659141344cd1fd0a4f28419497f9722a3daafe3b4186f6b6457e0600080a3607d60a11b17600555612f7c9081620002c88239f35b604051631e4fbdf760e01b815260006004820152602490fd5b01519250388062000104565b929484908116600260005284600020946000905b88838310620001e95750505010620001cf575b505050811b0160025562000117565b015160001960f88460031b161c19169055388080620001c0565b858701518855909601959485019487935090810190620001ad565b6002600052816000208480880160051c82019284891062000246575b0160051c019085905b82811062000239575050620000e6565b6000815501859062000229565b9250819262000220565b634e487b7160e01b600052602260045260246000fd5b90607f1690620000d4565b634e487b7160e01b600052604160045260246000fd5b600080fd5b8181018501518a82018601528594016200008b565b6040519190601f01601f191682016001600160401b03811183821017620002715760405256fe6080604052600436101561001257600080fd5b60003560e01c8062fdd58e146101d157806301ffc9a7146101cc57806302fe5305146101c757806309324aed146101955780630e89341c146101c25780632a55205a146101bd5780632eb2c2d6146101b8578063367fe1e0146101b35780633db56ccf146101ae5780633f4ba83a146101a957806342260b5d146101a4578063442f8d031461019f5780634e1273f41461019a5780634f558e79146101955780635c975abb14610190578063715018a61461018b5780638456cb59146101865780638da5cb5b146101815780638dc251e31461017c57806394206327146101775780639fbc871314610172578063a22cb4651461016d578063b196444c14610168578063bd85b03914610163578063e62de01b1461015e578063e985e9c514610159578063f242432a146101545763f2fde38b1461014f57600080fd5b6117e9565b611668565b6115fe565b6114f7565b6114cb565b61149f565b6111b4565b61118d565b610e9b565b610ddb565b610db4565b610d28565b610cb1565b610c8b565b610556565b610bcf565b610a8f565b610a6e565b6109cb565b6109a4565b610914565b610789565b61061a565b6105e3565b61043b565b610268565b6101ec565b6001600160a01b038116036101e757565b600080fd5b346101e75760406003193601126101e757602061023560043561020e816101d6565b602435600052600083526040600020906001600160a01b0316600052602052604060002090565b54604051908152f35b7fffffffff000000000000000000000000000000000000000000000000000000008116036101e757565b346101e75760206003193601126101e75760207fffffffff000000000000000000000000000000000000000000000000000000006004356102a88161023e565b167f2a55205a0000000000000000000000000000000000000000000000000000000081149081156102df575b506040519015158152f35b7fd9b67a2600000000000000000000000000000000000000000000000000000000811491508115610343575b8115610319575b50386102d4565b7f01ffc9a70000000000000000000000000000000000000000000000000000000091501438610312565b7f0e89341c000000000000000000000000000000000000000000000000000000008114915061030b565b7f4e487b7100000000000000000000000000000000000000000000000000000000600052604160045260246000fd5b67ffffffffffffffff81116103b057604052565b61036d565b90601f601f19910116810190811067ffffffffffffffff8211176103b057604052565b67ffffffffffffffff81116103b057601f01601f191660200190565b81601f820112156101e75780359061040b826103d8565b9261041960405194856103b5565b828452602083830101116101e757816000926020809301838601378301015290565b346101e7576020806003193601126101e75767ffffffffffffffff6004358181116101e75761046e9036906004016103f4565b916104776118a4565b82519182116103b0576104948261048f6002546112ad565b612379565b80601f83116001146104cf575081926000926104c4575b50506000198260011b9260031b1c191617600255600080f35b0151905038806104ab565b90601f1983169361050260026000527f405787fa12a823e0f2b7631cc41b3ba8828b3321ca811111fa75cd3aa3bb5ace90565b926000905b86821061053e5750508360019510610525575b505050811b01600255005b015160001960f88460031b161c1916905538808061051a565b80600185968294968601518155019501930190610507565b346101e75760206003193601126101e7576004356000526007602052602060ff604060002054166040519015158152f35b60005b83811061059a5750506000910152565b818101518382015260200161058a565b90601f19601f6020936105c881518092818752878088019101610587565b0116010190565b9060206105e09281815201906105aa565b90565b346101e75760206003193601126101e757610616610602600435612c8d565b6040519182916020835260208301906105aa565b0390f35b346101e75760406003193601126101e757600435600052600760205260ff604060002054161561068f576001600160a01b0360055461061661066c6106648360a01c6024356128a5565b612710900490565b6040519384931683602090939291936001600160a01b0360408201951681520152565b60846040517f08c379a000000000000000000000000000000000000000000000000000000000815260206004820152603160248201527f4275696c64696e67313132323a20526f79616c747920717565727920666f722060448201527f6e6f6e6578697374656e7420746f6b656e0000000000000000000000000000006064820152fd5b67ffffffffffffffff81116103b05760051b60200190565b81601f820112156101e75780359161074283610713565b9261075060405194856103b5565b808452602092838086019260051b8201019283116101e7578301905b82821061077a575050505090565b8135815290830190830161076c565b346101e75760a06003193601126101e757600480356107a7816101d6565b6024356107b3816101d6565b67ffffffffffffffff906044358281116101e7576107d4903690860161072b565b906064358381116101e7576107ec903690870161072b565b926084359081116101e75761080490369087016103f4565b936001600160a01b038082169033821415806108df575b610899578316156108685715610837576108359550611a5e565b005b6024866000604051917f01a83514000000000000000000000000000000000000000000000000000000008352820152fd5b6024876000604051917f57f447ce000000000000000000000000000000000000000000000000000000008352820152fd5b604080517fe237d92200000000000000000000000000000000000000000000000000000000815233818b019081526001600160a01b038616602082015290918291010390fd5b5081600052600160205260ff61090c336040600020906001600160a01b0316600052602052604060002090565b54161561081b565b346101e75760206003193601126101e757600435610931816101d6565b6109396118a4565b600454906001600160a01b0380911691827fffffffffffffffffffffffff0000000000000000000000000000000000000000821617600455167feef4816769a5d198c6e531d9b6ffa653f6ebd21a8a4efedaea1bddd7bd34d492600080a3005b60009103126101e757565b346101e75760006003193601126101e75760206001600160a01b0360045416604051908152f35b346101e75760006003193601126101e7576109e46118a4565b60035460ff8160a01c1615610a44577fffffffffffffffffffffff00ffffffffffffffffffffffffffffffffffffffff166003557f5db9ee0a495bf2e6ff9c91a7834c1ba4fdd244a5e8aa4e537bd38aeae4b073aa6020604051338152a1005b60046040517f8dfc202b000000000000000000000000000000000000000000000000000000008152fd5b346101e75760006003193601126101e757602060055460a01c604051908152f35b346101e75760206003193601126101e7576004356bffffffffffffffffffffffff81168082036101e7576103e890610ac56118a4565b11610b06576001600160a01b037fffffffffffffffffffffffff00000000000000000000000000000000000000006005549260a01b16911617600555600080f35b60846040517f08c379a000000000000000000000000000000000000000000000000000000000815260206004820152602860248201527f4275696c64696e67313132323a20526f79616c747920746f6f2068696768202860448201527f6d617820313025290000000000000000000000000000000000000000000000006064820152fd5b90815180825260208080930193019160005b828110610baa575050505090565b835185529381019392810192600101610b9c565b9060206105e0928181520190610b8a565b346101e75760406003193601126101e75760043567ffffffffffffffff8082116101e757366023830112156101e7578160040135610c0c81610713565b92610c1a60405194856103b5565b81845260209160248386019160051b830101913683116101e757602401905b828210610c7257856024358681116101e75761061691610c60610c6692369060040161072b565b9061199b565b60405191829182610bbe565b8380918335610c80816101d6565b815201910190610c39565b346101e75760006003193601126101e757602060ff60035460a01c166040519015158152f35b346101e757600080600319360112610d2557610ccb6118a4565b806001600160a01b036003547fffffffffffffffffffffffff00000000000000000000000000000000000000008116600355167f8be0079c531659141344cd1fd0a4f28419497f9722a3daafe3b4186f6b6457e08280a380f35b80fd5b346101e75760006003193601126101e757610d416118a4565b610d49612855565b740100000000000000000000000000000000000000007fffffffffffffffffffffff00ffffffffffffffffffffffffffffffffffffffff60035416176003557f62e78cea01bee320cd4e420270b5ea74000d11b0c9f74754ebdbfc544b05a2586020604051338152a1005b346101e75760006003193601126101e75760206001600160a01b0360035416604051908152f35b346101e75760206003193601126101e7576001600160a01b03600435610e00816101d6565b610e086118a4565b168015610e3d577fffffffffffffffffffffffff00000000000000000000000000000000000000006005541617600555600080f35b60646040517f08c379a000000000000000000000000000000000000000000000000000000000815260206004820152601e60248201527f4275696c64696e67313132323a20496e76616c696420726563656976657200006044820152fd5b346101e75760806003193601126101e757600435602435610ebb816101d6565b6044359060643567ffffffffffffffff81116101e757610edf9036906004016103f4565b610ee7612855565b6001600160a01b03808316610efd33821461214d565b610f2a610f25610f21610f1a896000526007602052604060002090565b5460ff1690565b1590565b6121d8565b610f35851515612263565b610f408115156122ee565b84610f55876000526006602052604060002090565b55610f98610f6d876000526007602052604060002090565b60017fffffffffffffffffffffffffffffffffffffffffffffffffffffffffffffff00825416179055565b825161116b575b610fb2610faa611db4565b8688876125dc565b857fe088abac97f5e7d6679fd1649e7227558dfb3fe38481ebbf291a0efe5f3f5b5760405180610fe3878a8361250c565b0390a360405184815285907f38e0f540b4e1cf301e5a67733c642084468581e95c295f7919d4eb235c75f6b290602090a26004546001600160a01b0316168061102857005b803b156101e75761106e9360008094604051968795869485937f1af452d60000000000000000000000000000000000000000000000000000000085528b60048601612523565b03925af19081611152575b5061083557600161108861254f565b6308c379a0146110ff575b61109957005b7f2bc8c6cf52e4e09cd055b1307e26a364562cae14aa7f3d4021a7b8a1ebc6c333604051806110fa8160609060208152600d60208201527f556e6b6e6f776e206572726f720000000000000000000000000000000000000060408201520190565b0390a2005b61110761256d565b80611113575b50611093565b9050817f2bc8c6cf52e4e09cd055b1307e26a364562cae14aa7f3d4021a7b8a1ebc6c333611149600093604051918291826105cf565b0390a23861110d565b8061115f6111659261039c565b80610999565b38611079565b61118883611183886000526008602052604060002090565b61243e565b610f9f565b346101e75760006003193601126101e75760206001600160a01b0360055416604051908152f35b346101e75760406003193601126101e7576004356111d1816101d6565b60243590811515908183036101e7576001600160a01b03811692831561127c5761121e61124e923360005260016020526040600020906001600160a01b0316600052602052604060002090565b9060ff7fffffffffffffffffffffffffffffffffffffffffffffffffffffffffffffff0083541691151516179055565b6040519081527f17307eab39ab6107e8899845ad3d59bd9653f200f220920489ca2b5937696c3160203392a3005b60246040517fced3e10000000000000000000000000000000000000000000000000000000000815260006004820152fd5b90600182811c921680156112f6575b60208310146112c757565b7f4e487b7100000000000000000000000000000000000000000000000000000000600052602260045260246000fd5b91607f16916112bc565b6040519060008260025491611314836112ad565b8083529260019081811690811561139c575060011461133d575b5061133b925003836103b5565b565b6002600090815291507f405787fa12a823e0f2b7631cc41b3ba8828b3321ca811111fa75cd3aa3bb5ace5b848310611381575061133b93505081016020013861132e565b81935090816020925483858a01015201910190918592611368565b6020935061133b9592507fffffffffffffffffffffffffffffffffffffffffffffffffffffffffffffff0091501682840152151560051b8201013861132e565b90604051918260008254926113f0846112ad565b90818452600194858116908160001461145d575060011461141a575b505061133b925003836103b5565b9093915060005260209081600020936000915b81831061144557505061133b9350820101388061140c565b8554888401850152948501948794509183019161142d565b905061133b9550602093507fffffffffffffffffffffffffffffffffffffffffffffffffffffffffffffff0091501682840152151560051b820101388061140c565b346101e75760206003193601126101e757600435600052600860205261061661060260406000206113dc565b346101e75760206003193601126101e75760043560005260066020526020604060002054604051908152f35b346101e75760406003193601126101e757600435611514816101d6565b602435806000526006602052604060002054801561157a5761156561155f6106169461156a9460005260006020526040600020906001600160a01b0316600052602052604060002090565b5461288e565b6128b8565b6040519081529081906020820190565b60846040517f08c379a000000000000000000000000000000000000000000000000000000000815260206004820152602560248201527f4275696c64696e67313132323a20746f6b656e4964206e6f7420696e6974696160448201527f6c697a65640000000000000000000000000000000000000000000000000000006064820152fd5b346101e75760406003193601126101e757602060ff61165c600435611622816101d6565b6001600160a01b0360243591611637836101d6565b16600052600184526040600020906001600160a01b0316600052602052604060002090565b54166040519015158152f35b346101e75760a06003193601126101e757600435611685816101d6565b602435611691816101d6565b60843567ffffffffffffffff81116101e7576116b19036906004016103f4565b906001600160a01b038084169033821415806117b4575b611774578216156117435715611712576108359261170a6064356044359160405192600184526020840152604083019160018352606084015260808301604052565b929091611a5e565b60246040517f01a8351400000000000000000000000000000000000000000000000000000000815260006004820152fd5b60246040517f57f447ce00000000000000000000000000000000000000000000000000000000815260006004820152fd5b6040517fe237d9220000000000000000000000000000000000000000000000000000000081523360048201526001600160a01b0386166024820152604490fd5b5081600052600160205260ff6117e1336040600020906001600160a01b0316600052602052604060002090565b5416156116c8565b346101e75760206003193601126101e757600435611806816101d6565b61180e6118a4565b6001600160a01b0380911690811561187357600354827fffffffffffffffffffffffff0000000000000000000000000000000000000000821617600355167f8be0079c531659141344cd1fd0a4f28419497f9722a3daafe3b4186f6b6457e0600080a3005b60246040517f1e4fbdf700000000000000000000000000000000000000000000000000000000815260006004820152fd5b6001600160a01b036003541633036118b857565b60246040517f118cdaa7000000000000000000000000000000000000000000000000000000008152336004820152fd5b6119119160005260006020526040600020906001600160a01b0316600052602052604060002090565b5490565b7f4e487b7100000000000000000000000000000000000000000000000000000000600052601160045260246000fd5b60001981146119535760010190565b611915565b805182101561196c5760209160051b010190565b7f4e487b7100000000000000000000000000000000000000000000000000000000600052603260045260246000fd5b91909180518351808203611a23575050805190601f196119d36119bd84610713565b936119cb60405195866103b5565b808552610713565b0190602091368385013760005b8151811015611a1b5780611a06611a169260051b85808287010151918a010151906118e8565b611a108287611958565b52611944565b6119e0565b509193505050565b6040517f5b05999100000000000000000000000000000000000000000000000000000000815260048101919091526024810191909152604490fd5b91939290611a6a612855565b611a7485516128f1565b6001600160a01b039060049082611a9283546001600160a01b031690565b1680151580611d2c575b611c3e575b50611aae85898689612aaa565b611ace611ac283546001600160a01b031690565b6001600160a01b031690565b151580611c33575b611b22575b50508116611aeb575b5050505050565b8451600103611b1157602080611b079601519201519233611f65565b3880808080611ae4565b611b1d949192336120fd565b611b07565b94939196929560009891985b8451811015611c2257611b4e611ac2611ac28c546001600160a01b031690565b90611b598187611958565b51611b648287611958565b51611b7f611b72848c611958565b516001600160a01b031690565b90843b156101e757611c0a948c938f60009490611bfb86928f96604051998a98899788967faa9fdc91000000000000000000000000000000000000000000000000000000008852870193608093929695919660a086019786526001600160a01b0393848092166020880152166040860152606085015216910152565b03925af1611c0f575b50611944565b611b2e565b8061115f611c1c9261039c565b38611c04565b509592969193945096503880611adb565b508286161515611ad6565b98929793969194600096919697885b8651811015611d1b57808c8b611ca78b611c6a611cc5968d611958565b51604094859283518095819482937fd875c25500000000000000000000000000000000000000000000000000000000845283019190602083019252565b03915afa919282611ceb575b5050611cca57508a611a10828c611958565b611c4d565b611ce690611cd8838d611958565b906001600160a01b03169052565b611944565b611d0b929350803d10611d14575b611d0381836103b5565b810190612922565b50903880611cb3565b503d611cf9565b509498939950949196509438611aa1565b508387161515611a9c565b908160209103126101e757516105e08161023e565b909260a0926001600160a01b036105e09695168352600060208401526040830152606082015281608082015201906105aa565b91926105e095949160a0946001600160a01b0380921685521660208401526040830152606082015281608082015201906105aa565b604051906020820182811067ffffffffffffffff8211176103b05760405260008252565b3d15611e03573d90611de9826103d8565b91611df760405193846103b5565b82523d6000602084013e565b606090565b9293919093843b611e1a575050505050565b602091611e5660405194859384937ff23a6e61000000000000000000000000000000000000000000000000000000009889865260048601611d4c565b038160006001600160a01b0388165af160009181611f35575b50611ec75782611e7d611dd8565b8051919082611ec0576040517f57f447ce0000000000000000000000000000000000000000000000000000000081526001600160a01b0383166004820152602490fd5b6020915001fd5b7fffffffff000000000000000000000000000000000000000000000000000000001603611ef957503880808080611ae4565b6040517f57f447ce0000000000000000000000000000000000000000000000000000000081526001600160a01b03919091166004820152602490fd5b611f5791925060203d8111611f5e575b611f4f81836103b5565b810190611d37565b9038611e6f565b503d611f45565b939290949194853b611f7a575b505050505050565b611fb660209360405195869485947ff23a6e6100000000000000000000000000000000000000000000000000000000998a875260048701611d7f565b038160006001600160a01b0388165af160009181612010575b50611fdd5782611e7d611dd8565b7fffffffff000000000000000000000000000000000000000000000000000000001603611ef95750388080808080611f72565b61202991925060203d8111611f5e57611f4f81836103b5565b9038611fcf565b926120606105e095936001600160a01b0361206e941686526000602087015260a0604087015260a0860190610b8a565b908482036060860152610b8a565b9160808184039101526105aa565b93906105e095936120609161206e946001600160a01b03809216885216602087015260a0604087015260a0860190610b8a565b9293919093843b6120c1575050505050565b602091611e5660405194859384937fbc197c81000000000000000000000000000000000000000000000000000000009889865260048601612030565b939290949194853b61211157505050505050565b611fb660209360405195869485947fbc197c8100000000000000000000000000000000000000000000000000000000998a87526004870161207c565b1561215457565b60846040517f08c379a000000000000000000000000000000000000000000000000000000000815260206004820152602960248201527f4275696c64696e67313132323a20696e697469616c4f776e6572206d7573742060448201527f62652063616c6c657200000000000000000000000000000000000000000000006064820152fd5b156121df57565b60846040517f08c379a000000000000000000000000000000000000000000000000000000000815260206004820152602960248201527f4275696c64696e67313132323a20746f6b656e496420616c726561647920696e60448201527f697469616c697a656400000000000000000000000000000000000000000000006064820152fd5b1561226a57565b60846040517f08c379a000000000000000000000000000000000000000000000000000000000815260206004820152602b60248201527f4275696c64696e67313132323a20616d6f756e74206d7573742062652067726560448201527f61746572207468616e20300000000000000000000000000000000000000000006064820152fd5b156122f557565b60846040517f08c379a000000000000000000000000000000000000000000000000000000000815260206004820152603160248201527f4275696c64696e67313132323a20696e697469616c4f776e65722063616e6e6f60448201527f74206265207a65726f20616464726573730000000000000000000000000000006064820152fd5b601f8111612385575050565b600090600282527f405787fa12a823e0f2b7631cc41b3ba8828b3321ca811111fa75cd3aa3bb5ace906020601f850160051c830194106123e0575b601f0160051c01915b8281106123d557505050565b8181556001016123c9565b90925082906123c0565b90601f81116123f857505050565b600091825260208220906020601f850160051c83019410612434575b601f0160051c01915b82811061242957505050565b81815560010161241d565b9092508290612414565b919091825167ffffffffffffffff81116103b0576124668161246084546112ad565b846123ea565b602080601f83116001146124a1575081929394600092612496575b50506000198260011b9260031b1c1916179055565b015190503880612481565b90601f198316956124b785600052602060002090565b926000905b8882106124f4575050836001959697106124db575b505050811b019055565b015160001960f88460031b161c191690553880806124d1565b806001859682949686015181550195019301906124bc565b6040906105e09392815281602082015201906105aa565b90926001600160a01b036080936105e096958452166020830152604082015281606082015201906105aa565b60009060033d1161255c57565b905060046000803e60005160e01c90565b600060443d106105e05760405160031991823d016004833e815167ffffffffffffffff918282113d6024840111176125cb578184019485519384116125d3573d850101602084870101116125cb57506105e0929101602001906103b5565b949350505050565b50949350505050565b9291906001600160a01b0391828516156117435761261760405192600184526020840152604083019160018352606084015260808301604052565b91612620612855565b61262a82516128f1565b9060049061263f82546001600160a01b031690565b168015158061284d575b612785575b5061265a848488612973565b61266e611ac282546001600160a01b031690565b15158061277d575b6126a5575b5050805160010361269b579060208061133b959301519101519133611e08565b61133b93336120af565b9295600095929194955b825181101561276e576126cf611ac2611ac287546001600160a01b031690565b906126da8185611958565b516126e5828b611958565b51906126f4611b72848b611958565b843b156101e75761276994600092838b611bfb8c95604051988997889687957faa9fdc910000000000000000000000000000000000000000000000000000000087528601929360809291959460a08501968552600060208601526001600160a01b038093166040860152606085015216910152565b6126af565b5095925090939250388061267b565b506000612676565b93956000979193929795865b845181101561283e578080888c8b6127ed8b6127b061280c988d611958565b51604095869283518095819482937fd875c25500000000000000000000000000000000000000000000000000000000845283019190602083019252565b03915afa91938261281e575b505061281157611a109150918b92611958565b612791565b611ce692611cd891611958565b612835929450803d10611d1457611d0381836103b5565b509138806127f9565b5095509593509590913861264e565b506000612649565b60ff60035460a01c1661286457565b60046040517fd93c0665000000000000000000000000000000000000000000000000000000008152fd5b906127109182810292818404149015171561195357565b8181029291811591840414171561195357565b81156128c2570490565b7f4e487b7100000000000000000000000000000000000000000000000000000000600052601260045260246000fd5b906128fb82610713565b61290860405191826103b5565b828152601f196129188294610713565b0190602036910137565b91908260409103126101e7576020825161293b816101d6565b92015190565b9190820180921161195357565b90916129656105e093604084526040840190610b8a565b916020818403910152610b8a565b9190918251825190818103611a2357505060005b8351811015612a0857806129be9160051b8360208083890101519287010151916001600160a01b0382166129c3575b505050611944565b612987565b6129fe916129de6129f6926000526000602052604060002090565b906001600160a01b0316600052602052604060002090565b918254612941565b90553883816129b6565b50916001815114600014612a6a576020908101519181015160408051938452918301526001600160a01b03929092169160009133917fc3d58168c5ae7397731d063d5bbf3d657854427343f4c083240f7aacaa2d0f629190819081015b0390a4565b7f4a39dc06d4c0dbc64b70af90fd698a233a518aa5d07e595d983b8c0526c8f7fb6001600160a01b0360009394612a65604051928392169633958361294e565b9392918051835190818103611a2357505060005b8151811015612bc7578060051b9060208083850101519286010151846001600160a01b0393848a16612b27575b612afd948216612b0257505050611944565b612abe565b612b1d916129de6129f6926000526000602052604060002090565b90553884816129b6565b9192939050612b44896129de846000526000602052604060002090565b54838110612b775791869184612afd96959403612b6f8c6129de856000526000602052604060002090565b559450612aeb565b6040517f03dee4c50000000000000000000000000000000000000000000000000000000081526001600160a01b038b16600482015260248101919091526044810184905260648101839052608490fd5b508051939493919291600103612c29576020908101519181015160408051938452918301526001600160a01b03928316939092169133917fc3d58168c5ae7397731d063d5bbf3d657854427343f4c083240f7aacaa2d0f629181908101612a65565b9091612a657f4a39dc06d4c0dbc64b70af90fd698a233a518aa5d07e595d983b8c0526c8f7fb916040519182916001600160a01b0380911697169533958361294e565b6105e090546112ad565b90612c8960209282815194859201610587565b0190565b80600052600760205260ff6040600020541615612d4b57612cc0612cbb826000526008602052604060002090565b612c6c565b612d2f576105e0612cf291612d21612cf8612ce2612cdc611300565b93612df6565b6040519586946020860190612c76565b90612c76565b7f2e6a736f6e000000000000000000000000000000000000000000000000000000815260050190565b03601f1981018352826103b5565b612d466105e0916000526008602052604060002090565b6113dc565b60846040517f08c379a000000000000000000000000000000000000000000000000000000000815260206004820152602d60248201527f4275696c64696e67313132323a2055524920717565727920666f72206e6f6e6560448201527f78697374656e7420746f6b656e000000000000000000000000000000000000006064820152fd5b90612dd9826103d8565b612de660405191826103b5565b828152601f1961291882946103d8565b806000917a184f03e93ff9f4daa797ed6e38ed64bf6a1f01000000000000000080821015612f38575b506d04ee2d6d415b85acef810000000080831015612f29575b50662386f26fc1000080831015612f1a575b506305f5e10080831015612f0b575b5061271080831015612efc575b506064821015612eec575b600a80921015612ee2575b600190816021612e8d828701612dcf565b95860101905b612e9f575b5050505090565b600019849101917f30313233343536373839616263646566000000000000000000000000000000008282061a835304918215612edd57919082612e93565b612e98565b9160010191612e7c565b9190606460029104910191612e71565b60049193920491019138612e66565b60089193920491019138612e59565b60109193920491019138612e4a565b60209193920491019138612e38565b604093508104915038612e1f56fea2646970667358221220cb09307262ad1b633e4a0a755defd0e2627220477fb13ffccf3bed397077147864736f6c63430008140033",
  "linkReferences": {},
  "deployedLinkReferences": {}
}