{
  "_format": "hh-sol-artifact-1",
  "contractName": "RentalHub",
  "sourceName": "contracts/RentalHub.sol",
  "abi": [
    {
      "inputs": [
        {
          "internalType": "address",
          "name": "initialOwner",
          "type": "address"
        },
        {
          "internalType": "address",
          "name": "_feeRecipient",
          "type": "address"
        }
      ],
      "stateMutability": "nonpayable",
      "type": "constructor"
    },
    {
      "inputs": [],
      "name": "EnforcedPause",
      "type": "error"
    },
    {
      "inputs": [],
      "name": "ExpectedPause",
      "type": "error"
    },
    {
      "inputs": [
        {
          "internalType": "address",
          "name": "owner",
          "type": "address"
        }
      ],
      "name": "OwnableInvalidOwner",
      "type": "error"
    },
    {
      "inputs": [
        {
          "internalType": "address",
          "name": "account",
          "type": "address"
        }
      ],
      "name": "OwnableUnauthorizedAccount",
      "type": "error"
    },
    {
      "inputs": [],
      "name": "ReentrancyGuardReentrantCall",
      "type": "error"
    },
    {
      "anonymous": false,
      "inputs": [
        {
          "indexed": true,
          "internalType": "address",
          "name": "newToken",
          "type": "address"
        }
      ],
      "name": "BuildingTokenUpdated",
      "type": "event"
    },
    {
      "anonymous": false,
      "inputs": [
        {
          "indexed": true,
          "internalType": "uint256",
          "name": "tokenId",
          "type": "uint256"
        },
        {
          "indexed": false,
          "internalType": "string",
          "name": "deviceId",
          "type": "string"
        },
        {
          "indexed": true,
          "internalType": "address",
          "name": "registeredBy",
          "type": "address"
        }
      ],
      "name": "DeviceRegistered",
      "type": "event"
    },
    {
      "anonymous": false,
      "inputs": [
        {
          "indexed": true,
          "internalType": "uint256",
          "name": "tokenId",
          "type": "uint256"
        },
        {
          "indexed": false,
          "internalType": "string",
          "name": "deviceId",
          "type": "string"
        },
        {
          "indexed": true,
          "internalType": "address",
          "name": "unregisteredBy",
          "type": "address"
        }
      ],
      "name": "DeviceUnregistered",
      "type": "event"
    },
    {
      "anonymous": false,
      "inputs": [
        {
          "indexed": true,
          "internalType": "address",
          "name": "newRecipient",
          "type": "address"
        }
      ],
      "name": "FeeRecipientUpdated",
      "type": "event"
    },
    {
      "anonymous": false,
      "inputs": [
        {
          "indexed": true,
          "internalType": "address",
          "name": "previousOwner",
          "type": "address"
        },
        {
          "indexed": true,
          "internalType": "address",
          "name": "newOwner",
          "type": "address"
        }
      ],
      "name": "OwnershipTransferred",
      "type": "event"
    },
    {
      "anonymous": false,
      "inputs": [
        {
          "indexed": false,
          "internalType": "address",
          "name": "account",
          "type": "address"
        }
      ],
      "name": "Paused",
      "type": "event"
    },
    {
      "anonymous": false,
      "inputs": [
        {
          "indexed": false,
          "internalType": "uint256",
          "name": "newFeeBps",
          "type": "uint256"
        }
      ],
      "name": "PlatformFeeUpdated",
      "type": "event"
    },
    {
      "anonymous": false,
      "inputs": [
        {
          "indexed": true,
          "internalType": "uint256",
          "name": "rentalId",
          "type": "uint256"
        },
        {
          "indexed": true,
          "internalType": "uint256",
          "name": "listingId",
          "type": "uint256"
        },
        {
          "indexed": true,
          "internalType": "uint256",
          "name": "tokenId",
          "type": "uint256"
        },
        {
          "indexed": false,
          "internalType": "address",
          "name": "renter",
          "type": "address"
        },
        {
          "indexed": false,
          "internalType": "uint256",
          "name": "checkInDate",
          "type": "uint256"
        },
        {
          "indexed": false,
          "internalType": "uint256",
          "name": "checkOutDate",
          "type": "uint256"
        },
        {
          "indexed": false,
          "internalType": "uint256",
          "name": "totalPrice",
          "type": "uint256"
        }
      ],
      "name": "RentalBooked",
      "type": "event"
    },
    {
      "anonymous": false,
      "inputs": [
        {
          "indexed": true,
          "internalType": "uint256",
          "name": "rentalId",
          "type": "uint256"
        },
        {
          "indexed": true,
          "internalType": "address",
          "name": "cancelledBy",
          "type": "address"
        }
      ],
      "name": "RentalCancelled",
      "type": "event"
    },
    {
      "anonymous": false,
      "inputs": [
        {
          "indexed": true,
          "internalType": "uint256",
          "name": "listingId",
          "type": "uint256"
        },
        {
          "indexed": true,
          "internalType": "address",
          "name": "owner",
          "type": "address"
        }
      ],
      "name": "RentalListingCancelled",
      "type": "event"
    },
    {
      "anonymous": false,
      "inputs": [
        {
          "indexed": true,
          "internalType": "uint256",
          "name": "listingId",
          "type": "uint256"
        },
        {
          "indexed": true,
          "internalType": "uint256",
          "name": "tokenId",
          "type": "uint256"
        },
        {
          "indexed": true,
          "internalType": "address",
          "name": "owner",
          "type": "address"
        },
        {
          "indexed": false,
          "internalType": "uint256",
          "name": "pricePerNight",
          "type": "uint256"
        }
      ],
      "name": "RentalListingCreated",
      "type": "event"
    },
    {
      "anonymous": false,
      "inputs": [
        {
          "indexed": true,
          "internalType": "uint256",
          "name": "listingId",
          "type": "uint256"
        },
        {
          "indexed": true,
          "internalType": "uint256",
          "name": "tokenId",
          "type": "uint256"
        },
        {
          "indexed": true,
          "internalType": "address",
          "name": "previousOwner",
          "type": "address"
        },
        {
          "indexed": false,
          "internalType": "address",
          "name": "newTopShareholder",
          "type": "address"
        }
      ],
      "name": "RentalListingDeactivatedDueToOwnershipChange",
      "type": "event"
    },
    {
      "anonymous": false,
      "inputs": [
        {
          "indexed": true,
          "internalType": "address",
          "name": "newHub",
          "type": "address"
        }
      ],
      "name": "SmartRentHubUpdated",
      "type": "event"
    },
    {
      "anonymous": false,
      "inputs": [
        {
          "indexed": false,
          "internalType": "address",
          "name": "account",
          "type": "address"
        }
      ],
      "name": "Unpaused",
      "type": "event"
    },
    {
      "inputs": [
        {
          "internalType": "uint256",
          "name": "listingId",
          "type": "uint256"
        },
        {
          "internalType": "uint256",
          "name": "checkInDate",
          "type": "uint256"
        },
        {
          "internalType": "uint256",
          "name": "checkOutDate",
          "type": "uint256"
        }
      ],
      "name": "areDatesAvailable",
      "outputs": [
        {
          "internalType": "bool",
          "name": "",
          "type": "bool"
        }
      ],
      "stateMutability": "view",
      "type": "function"
    },
    {
      "inputs": [
        {
          "internalType": "uint256",
          "name": "",
          "type": "uint256"
        }
      ],
      "name": "assetToDevice",
      "outputs": [
        {
          "internalType": "string",
          "name": "",
          "type": "string"
        }
      ],
      "stateMutability": "view",
      "type": "function"
    },
    {
      "inputs": [],
      "name": "buildingToken",
      "outputs": [
        {
          "internalType": "address",
          "name": "",
          "type": "address"
        }
      ],
      "stateMutability": "view",
      "type": "function"
    },
    {
      "inputs": [
        {
          "internalType": "uint256",
          "name": "rentalId",
          "type": "uint256"
        }
      ],
      "name": "cancelRental",
      "outputs": [],
      "stateMutability": "nonpayable",
      "type": "function"
    },
    {
      "inputs": [
        {
          "internalType": "uint256",
          "name": "listingId",
          "type": "uint256"
        }
      ],
      "name": "cancelRentalListing",
      "outputs": [],
      "stateMutability": "nonpayable",
      "type": "function"
    },
    {
      "inputs": [
        {
          "internalType": "uint256",
          "name": "tokenId",
          "type": "uint256"
        },
        {
          "internalType": "uint256",
          "name": "pricePerNight",
          "type": "uint256"
        }
      ],
      "name": "createRentalListing",
      "outputs": [
        {
          "internalType": "uint256",
          "name": "listingId",
          "type": "uint256"
        }
      ],
      "stateMutability": "nonpayable",
      "type": "function"
    },
    {
      "inputs": [
        {
          "internalType": "string",
          "name": "",
          "type": "string"
        }
      ],
      "name": "deviceRegistered",
      "outputs": [
        {
          "internalType": "bool",
          "name": "",
          "type": "bool"
        }
      ],
      "stateMutability": "view",
      "type": "function"
    },
    {
      "inputs": [
        {
          "internalType": "string",
          "name": "",
          "type": "string"
        }
      ],
      "name": "deviceToAsset",
      "outputs": [
        {
          "internalType": "uint256",
          "name": "",
          "type": "uint256"
        }
      ],
      "stateMutability": "view",
      "type": "function"
    },
    {
      "inputs": [],
      "name": "emergencyWithdraw",
      "outputs": [],
      "stateMutability": "nonpayable",
      "type": "function"
    },
    {
      "inputs": [],
      "name": "feeRecipient",
      "outputs": [
        {
          "internalType": "address",
          "name": "",
          "type": "address"
        }
      ],
      "stateMutability": "view",
      "type": "function"
    },
    {
      "inputs": [],
      "name": "getActiveRentalListings",
      "outputs": [
        {
          "components": [
            {
              "internalType": "uint256",
              "name": "listingId",
              "type": "uint256"
            },
            {
              "internalType": "uint256",
              "name": "tokenId",
              "type": "uint256"
            },
            {
              "internalType": "address",
              "name": "owner",
              "type": "address"
            },
            {
              "internalType": "uint256",
              "name": "pricePerNight",
              "type": "uint256"
            },
            {
              "internalType": "uint256",
              "name": "createdAt",
              "type": "uint256"
            },
            {
              "internalType": "bool",
              "name": "isActive",
              "type": "bool"
            }
          ],
          "internalType": "struct RentalHub.RentalListing[]",
          "name": "",
          "type": "tuple[]"
        }
      ],
      "stateMutability": "view",
      "type": "function"
    },
    {
      "inputs": [],
      "name": "getActiveRentalListingsCount",
      "outputs": [
        {
          "internalType": "uint256",
          "name": "",
          "type": "uint256"
        }
      ],
      "stateMutability": "view",
      "type": "function"
    },
    {
      "inputs": [
        {
          "internalType": "string",
          "name": "deviceId",
          "type": "string"
        }
      ],
      "name": "getAssetByDevice",
      "outputs": [
        {
          "internalType": "uint256",
          "name": "",
          "type": "uint256"
        }
      ],
      "stateMutability": "view",
      "type": "function"
    },
    {
      "inputs": [
        {
          "internalType": "uint256",
          "name": "listingId",
          "type": "uint256"
        }
      ],
      "name": "getBookedDates",
      "outputs": [
        {
          "internalType": "uint256[]",
          "name": "",
          "type": "uint256[]"
        }
      ],
      "stateMutability": "view",
      "type": "function"
    },
    {
      "inputs": [
        {
          "internalType": "uint256",
          "name": "tokenId",
          "type": "uint256"
        }
      ],
      "name": "getDeviceByAsset",
      "outputs": [
        {
          "internalType": "string",
          "name": "",
          "type": "string"
        }
      ],
      "stateMutability": "view",
      "type": "function"
    },
    {
      "inputs": [
        {
          "internalType": "uint256",
          "name": "tokenId",
          "type": "uint256"
        }
      ],
      "name": "getMajorityShareholder",
      "outputs": [
        {
          "internalType": "address",
          "name": "topHolder",
          "type": "address"
        },
        {
          "internalType": "uint256",
          "name": "topBalance",
          "type": "uint256"
        }
      ],
      "stateMutability": "view",
      "type": "function"
    },
    {
      "inputs": [
        {
          "internalType": "uint256",
          "name": "rentalId",
          "type": "uint256"
        }
      ],
      "name": "getRental",
      "outputs": [
        {
          "components": [
            {
              "internalType": "uint256",
              "name": "rentalId",
              "type": "uint256"
            },
            {
              "internalType": "uint256",
              "name": "listingId",
              "type": "uint256"
            },
            {
              "internalType": "uint256",
              "name": "tokenId",
              "type": "uint256"
            },
            {
              "internalType": "address",
              "name": "renter",
              "type": "address"
            },
            {
              "internalType": "uint256",
              "name": "checkInDate",
              "type": "uint256"
            },
            {
              "internalType": "uint256",
              "name": "checkOutDate",
              "type": "uint256"
            },
            {
              "internalType": "uint256",
              "name": "totalPrice",
              "type": "uint256"
            },
            {
              "internalType": "uint256",
              "name": "createdAt",
              "type": "uint256"
            },
            {
              "internalType": "enum RentalHub.RentalStatus",
              "name": "status",
              "type": "uint8"
            }
          ],
          "internalType": "struct RentalHub.Rental",
          "name": "",
          "type": "tuple"
        }
      ],
      "stateMutability": "view",
      "type": "function"
    },
    {
      "inputs": [
        {
          "internalType": "uint256",
          "name": "listingId",
          "type": "uint256"
        }
      ],
      "name": "getRentalListing",
      "outputs": [
        {
          "components": [
            {
              "internalType": "uint256",
              "name": "listingId",
              "type": "uint256"
            },
            {
              "internalType": "uint256",
              "name": "tokenId",
              "type": "uint256"
            },
            {
              "internalType": "address",
              "name": "owner",
              "type": "address"
            },
            {
              "internalType": "uint256",
              "name": "pricePerNight",
              "type": "uint256"
            },
            {
              "internalType": "uint256",
              "name": "createdAt",
              "type": "uint256"
            },
            {
              "internalType": "bool",
              "name": "isActive",
              "type": "bool"
            }
          ],
          "internalType": "struct RentalHub.RentalListing",
          "name": "",
          "type": "tuple"
        }
      ],
      "stateMutability": "view",
      "type": "function"
    },
    {
      "inputs": [
        {
          "internalType": "uint256",
          "name": "tokenId",
          "type": "uint256"
        }
      ],
      "name": "getRentalListingsByAsset",
      "outputs": [
        {
          "components": [
            {
              "internalType": "uint256",
              "name": "listingId",
              "type": "uint256"
            },
            {
              "internalType": "uint256",
              "name": "tokenId",
              "type": "uint256"
            },
            {
              "internalType": "address",
              "name": "owner",
              "type": "address"
            },
            {
              "internalType": "uint256",
              "name": "pricePerNight",
              "type": "uint256"
            },
            {
              "internalType": "uint256",
              "name": "createdAt",
              "type": "uint256"
            },
            {
              "internalType": "bool",
              "name": "isActive",
              "type": "bool"
            }
          ],
          "internalType": "struct RentalHub.RentalListing[]",
          "name": "",
          "type": "tuple[]"
        }
      ],
      "stateMutability": "view",
      "type": "function"
    },
    {
      "inputs": [
        {
          "internalType": "uint256",
          "name": "tokenId",
          "type": "uint256"
        }
      ],
      "name": "getRentalsByAsset",
      "outputs": [
        {
          "internalType": "uint256[]",
          "name": "",
          "type": "uint256[]"
        }
      ],
      "stateMutability": "view",
      "type": "function"
    },
    {
      "inputs": [
        {
          "internalType": "address",
          "name": "renter",
          "type": "address"
        }
      ],
      "name": "getRentalsByRenter",
      "outputs": [
        {
          "internalType": "uint256[]",
          "name": "",
          "type": "uint256[]"
        }
      ],
      "stateMutability": "view",
      "type": "function"
    },
    {
      "inputs": [
        {
          "internalType": "string",
          "name": "deviceId",
          "type": "string"
        },
        {
          "internalType": "address",
          "name": "user",
          "type": "address"
        }
      ],
      "name": "isAuthorizedToUnlock",
      "outputs": [
        {
          "internalType": "bool",
          "name": "authorized",
          "type": "bool"
        },
        {
          "internalType": "uint256",
          "name": "rentalId",
          "type": "uint256"
        }
      ],
      "stateMutability": "view",
      "type": "function"
    },
    {
      "inputs": [
        {
          "internalType": "string",
          "name": "deviceId",
          "type": "string"
        }
      ],
      "name": "isDeviceRegistered",
      "outputs": [
        {
          "internalType": "bool",
          "name": "",
          "type": "bool"
        }
      ],
      "stateMutability": "view",
      "type": "function"
    },
    {
      "inputs": [
        {
          "internalType": "address",
          "name": "account",
          "type": "address"
        },
        {
          "internalType": "uint256",
          "name": "tokenId",
          "type": "uint256"
        }
      ],
      "name": "isMajorityShareholder",
      "outputs": [
        {
          "internalType": "bool",
          "name": "",
          "type": "bool"
        }
      ],
      "stateMutability": "view",
      "type": "function"
    },
    {
      "inputs": [],
      "name": "nextListingId",
      "outputs": [
        {
          "internalType": "uint256",
          "name": "",
          "type": "uint256"
        }
      ],
      "stateMutability": "view",
      "type": "function"
    },
    {
      "inputs": [],
      "name": "nextRentalId",
      "outputs": [
        {
          "internalType": "uint256",
          "name": "",
          "type": "uint256"
        }
      ],
      "stateMutability": "view",
      "type": "function"
    },
    {
      "inputs": [
        {
          "internalType": "uint256",
          "name": "tokenId",
          "type": "uint256"
        },
        {
          "internalType": "address",
          "name": "previousTopShareholder",
          "type": "address"
        },
        {
          "internalType": "address",
          "name": "newTopShareholder",
          "type": "address"
        }
      ],
      "name": "onTopShareholderChanged",
      "outputs": [],
      "stateMutability": "nonpayable",
      "type": "function"
    },
    {
      "inputs": [],
      "name": "owner",
      "outputs": [
        {
          "internalType": "address",
          "name": "",
          "type": "address"
        }
      ],
      "stateMutability": "view",
      "type": "function"
    },
    {
      "inputs": [],
      "name": "pause",
      "outputs": [],
      "stateMutability": "nonpayable",
      "type": "function"
    },
    {
      "inputs": [],
      "name": "paused",
      "outputs": [
        {
          "internalType": "bool",
          "name": "",
          "type": "bool"
        }
      ],
      "stateMutability": "view",
      "type": "function"
    },
    {
      "inputs": [],
      "name": "platformFeeBps",
      "outputs": [
        {
          "internalType": "uint256",
          "name": "",
          "type": "uint256"
        }
      ],
      "stateMutability": "view",
      "type": "function"
    },
    {
      "inputs": [
        {
          "internalType": "uint256",
          "name": "tokenId",
          "type": "uint256"
        },
        {
          "internalType": "string",
          "name": "deviceId",
          "type": "string"
        }
      ],
      "name": "registerDevice",
      "outputs": [],
      "stateMutability": "nonpayable",
      "type": "function"
    },
    {
      "inputs": [],
      "name": "renounceOwnership",
      "outputs": [],
      "stateMutability": "nonpayable",
      "type": "function"
    },
    {
      "inputs": [
        {
          "internalType": "uint256",
          "name": "listingId",
          "type": "uint256"
        },
        {
          "internalType": "uint256",
          "name": "checkInDate",
          "type": "uint256"
        },
        {
          "internalType": "uint256",
          "name": "checkOutDate",
          "type": "uint256"
        }
      ],
      "name": "rentAsset",
      "outputs": [
        {
          "internalType": "uint256",
          "name": "rentalId",
          "type": "uint256"
        }
      ],
      "stateMutability": "payable",
      "type": "function"
    },
    {
      "inputs": [
        {
          "internalType": "uint256",
          "name": "",
          "type": "uint256"
        }
      ],
      "name": "rentalListings",
      "outputs": [
        {
          "internalType": "uint256",
          "name": "listingId",
          "type": "uint256"
        },
        {
          "internalType": "uint256",
          "name": "tokenId",
          "type": "uint256"
        },
        {
          "internalType": "address",
          "name": "owner",
          "type": "address"
        },
        {
          "internalType": "uint256",
          "name": "pricePerNight",
          "type": "uint256"
        },
        {
          "internalType": "uint256",
          "name": "createdAt",
          "type": "uint256"
        },
        {
          "internalType": "bool",
          "name": "isActive",
          "type": "bool"
        }
      ],
      "stateMutability": "view",
      "type": "function"
    },
    {
      "inputs": [
        {
          "internalType": "uint256",
          "name": "",
          "type": "uint256"
        }
      ],
      "name": "rentals",
      "outputs": [
        {
          "internalType": "uint256",
          "name": "rentalId",
          "type": "uint256"
        },
        {
          "internalType": "uint256",
          "name": "listingId",
          "type": "uint256"
        },
        {
          "internalType": "uint256",
          "name": "tokenId",
          "type": "uint256"
        },
        {
          "internalType": "address",
          "name": "renter",
          "type": "address"
        },
        {
          "internalType": "uint256",
          "name": "checkInDate",
          "type": "uint256"
        },
        {
          "internalType": "uint256",
          "name": "checkOutDate",
          "type": "uint256"
        },
        {
          "internalType": "uint256",
          "name": "totalPrice",
          "type": "uint256"
        },
        {
          "internalType": "uint256",
          "name": "createdAt",
          "type": "uint256"
        },
        {
          "internalType": "enum RentalHub.RentalStatus",
          "name": "status",
          "type": "uint8"
        }
      ],
      "stateMutability": "view",
      "type": "function"
    },
    {
      "inputs": [
        {
          "internalType": "address",
          "name": "_buildingToken",
          "type": "address"
        }
      ],
      "name": "setBuildingToken",
      "outputs": [],
      "stateMutability": "nonpayable",
      "type": "function"
    },
    {
      "inputs": [
        {
          "internalType": "address",
          "name": "_feeRecipient",
          "type": "address"
        }
      ],
      "name": "setFeeRecipient",
      "outputs": [],
      "stateMutability": "nonpayable",
      "type": "function"
    },
    {
      "inputs": [
        {
          "internalType": "uint256",
          "name": "newFeeBps",
          "type": "uint256"
        }
      ],
      "name": "setPlatformFee",
      "outputs": [],
      "stateMutability": "nonpayable",
      "type": "function"
    },
    {
      "inputs": [
        {
          "internalType": "address",
          "name": "_smartRentHub",
          "type": "address"
        }
      ],
      "name": "setSmartRentHub",
      "outputs": [],
      "stateMutability": "nonpayable",
      "type": "function"
    },
    {
      "inputs": [],
      "name": "smartRentHub",
      "outputs": [
        {
          "internalType": "contract ISmartRentHub",
          "name": "",
          "type": "address"
        }
      ],
      "stateMutability": "view",
      "type": "function"
    },
    {
      "inputs": [
        {
          "internalType": "address",
          "name": "newOwner",
          "type": "address"
        }
      ],
      "name": "transferOwnership",
      "outputs": [],
      "stateMutability": "nonpayable",
      "type": "function"
    },
    {
      "inputs": [],
      "name": "unpause",
      "outputs": [],
      "stateMutability": "nonpayable",
      "type": "function"
    },
    {
      "inputs": [
        {
          "internalType": "uint256",
          "name": "tokenId",
          "type": "uint256"
        }
      ],
      "name": "unregisterDevice",
      "outputs": [],
      "stateMutability": "nonpayable",
      "type": "function"
    }
  ],
  "bytecode": "0x6080346200014d57601f6200398538819003918201601f19168301916001600160401b03831184841017620001525780849260409485528339810103126200014d576200005a6020620000528362000168565b920162000168565b906001600160a01b0390811690811562000134576000549260018060a01b03199280848616176000558260405195167f8be0079c531659141344cd1fd0a4f28419497f9722a3daafe3b4186f6b6457e0600080a36001805560016005556001600b5560fa600e5516918215620000e35750600f541617600f5560405161380790816200017e8239f35b62461bcd60e51b815260206004820152602660248201527f52656e74616c4875623a20666565526563697069656e742063616e6e6f74206260448201526565207a65726f60d01b6064820152608490fd5b604051631e4fbdf760e01b815260006004820152602490fd5b600080fd5b634e487b7160e01b600052604160045260246000fd5b51906001600160a01b03821682036200014d5756fe6080604052600436101561001257600080fd5b60003560e01c80630c2e6c161461222d57806312e8e2c31461219357806316c34f23146121295780631c2fba66146120fd57806322dcd13e146120df5780632e96145014612075578063367fe1e014611fa35780633941065314611e3b5780633db56ccf14611e075780633f4ba83a14611d855780634690484014611d515780634913fcba14611c7c5780634934f4a114611bfe57806352a8383714611bac5780635a59b62e14610da25780635c975abb14611b895780635e0dacb41461192b578063644ad445146118f4578063652bd29e1461174357806368ba4eaf146116ec578063715018a61461166e5780637e0c3f0f146114015780638456cb59146113a75780638a927c0d146111aa5780638c0ce62c146111735780638da5cb5b1461113f5780639315cea91461104a57806396b5b43e14610eec578063aaccf1ec14610ece578063ad386e9114610eb0578063af94a1d114610e0b578063bd78816214610dda578063c75b74e314610da2578063c8af69a614610d84578063db0c835c1461094a578063db2e21bc146108b5578063e374950e14610820578063e5931998146107e6578063e74b981b14610714578063eae9072e146104f0578063f00d89c214610401578063f2fde38b1461033d578063f4418620146102eb5763f65a56da1461020057600080fd5b346102e65760206003193601126102e65760043561021c613185565b61022461322f565b8060005260046020526040600020600581019073ffffffffffffffffffffffffffffffffffffffff600283549261025d60ff851661326a565b01541633036102a25760ff19169055610275816135b4565b33907f23d338a67b21c5dc2b70d113e1c247454ecede863df07905d82542d09a8584fb600080a360018055005b606460405162461bcd60e51b815260206004820152601860248201527f52656e74616c4875623a206e6f7420746865206f776e657200000000000000006044820152fd5b600080fd5b346102e65760406003193601126102e65760043567ffffffffffffffff81116102e65761032f6103216040923690600401612fec565b610329612f37565b9161366b565b825191151582526020820152f35b346102e65760206003193601126102e657610356612f14565b61035e613134565b73ffffffffffffffffffffffffffffffffffffffff8091169081156103d057600054827fffffffffffffffffffffffff0000000000000000000000000000000000000000821617600055167f8be0079c531659141344cd1fd0a4f28419497f9722a3daafe3b4186f6b6457e0600080a3005b60246040517f1e4fbdf700000000000000000000000000000000000000000000000000000000815260006004820152fd5b346102e65760206003193601126102e65761041a612f14565b610422613134565b73ffffffffffffffffffffffffffffffffffffffff81169081156104ac577fffffffffffffffffffffff0000000000000000000000000000000000000000ff74ffffffffffffffffffffffffffffffffffffffff006002549260081b169116176002557fe78fecf734478f1d9f07dd3da8306fcad40da2198d71a953e8597fe3b8527c1b600080a2005b606460405162461bcd60e51b815260206004820152602060248201527f52656e74616c4875623a20696e76616c696420746f6b656e20616464726573736044820152fd5b346102e65760606003193601126102e65760043561050c612f37565b6044359073ffffffffffffffffffffffffffffffffffffffff928383168093036102e6576003918483541633036106aa5784169083821461064157919260009290835b60065481101561063f57610562816131ca565b905490871b1c8060005260206004815260406000208560018201541480610630575b80610622575b6105a0575b50505061059b906131bb565b61054f565b6105eb9397927fc35513eb94a7bd5701f738584fc85f0b0c9b6aa59c9216463f1cd9ef8004d6a78893600589940160ff1981541690556105df836135b4565b604051888152a46131bb565b93801580156105fc575b808061058f565b61060c576000190161059b6105f5565b634e487b7160e01b600052601160045260246000fd5b5060ff60058201541661058a565b50868a60028301541614610584565b005b608460405162461bcd60e51b8152602060048201526024808201527f52656e74616c4875623a207368617265686f6c6465727320617265207468652060448201527f73616d65000000000000000000000000000000000000000000000000000000006064820152fd5b608460405162461bcd60e51b815260206004820152602560248201527f52656e74616c4875623a206f6e6c7920536d61727452656e744875622063616e60448201527f2063616c6c0000000000000000000000000000000000000000000000000000006064820152fd5b346102e65760206003193601126102e65773ffffffffffffffffffffffffffffffffffffffff610742612f14565b61074a613134565b1680156107a257807fffffffffffffffffffffffff0000000000000000000000000000000000000000600f541617600f557f7a7b5a0a132f9e0581eb8527f66eae9ee89c2a3e79d4ac7e41a1f1f4d48a7fc2600080a2005b606460405162461bcd60e51b815260206004820152601c60248201527f52656e74616c4875623a20696e76616c696420726563697069656e74000000006044820152fd5b346102e657602061080d816107fa36612e88565b8160405193828580945193849201612ef1565b8101601181520301902054604051908152f35b346102e6576020806003193601126102e65773ffffffffffffffffffffffffffffffffffffffff61084f612f14565b16600052600c8152604060002090604051908181845491828152019360005281600020916000905b82821061089e5761089a8561088e81890382612e49565b60405191829182612dd5565b0390f35b835486529485019460019384019390910190610877565b346102e65760006003193601126102e6576108ce613134565b47806108d657005b60008080809373ffffffffffffffffffffffffffffffffffffffff8254165af16108fe6132d5565b501561090657005b606460405162461bcd60e51b815260206004820152601a60248201527f52656e74616c4875623a207769746864726177206661696c65640000000000006044820152fd5b346102e65760406003193601126102e657602460043567ffffffffffffffff82358181116102e657610980903690600401612fec565b939061098a613185565b8415610d1a5760408511610cd657604051918582843760ff83878101601281526020958691030190205416610c6e5784600052601083526109cf60406000205461301a565b610c05576109dd8533613430565b15610b9c5784600052601083526040600020938611610b8857508490610a03845461301a565b601f8111610b4d575b50600093601f8311600114610ac757827f47e859fc0ced66e915331b88daec3309f8897139e74cea7fa0b9de53a11add2d95600091610abc575b508360011b906000198560031b1c19161790555b846040518383823784818581016011815203019020556040518282823783818481016012815203019020600160ff1982541617905581604051938085528401526040830137600060408583010152604081601f19601f339701168101030190a3005b905082013588610a46565b601f1983169481600052846000209060005b878110610b335750847f47e859fc0ced66e915331b88daec3309f8897139e74cea7fa0b9de53a11add2d9710610b19575b5050600183811b019055610a5a565b60001960f88660031b161c19908401351690558780610b0a565b818501358355899550600190920191908601908601610ad9565b610b78908560005284600020601f850160051c810191868610610b7e575b601f0160051c019061359d565b86610a0c565b9091508190610b6b565b634e487b7160e01b60005260416004526000fd5b8260386084926040519262461bcd60e51b845260048401528201527f52656e74616c4875623a206f6e6c79206d616a6f72697479207368617265686f60448201527f6c6465722063616e2072656769737465722064657669636500000000000000006064820152fd5b8260236084926040519262461bcd60e51b845260048401528201527f52656e74616c4875623a20617373657420616c7265616479206861732064657660448201527f69636500000000000000000000000000000000000000000000000000000000006064820152fd5b826084916040519162461bcd60e51b83526004830152808201527f52656e74616c4875623a2064657669636520616c72656164792072656769737460448201527f65726564000000000000000000000000000000000000000000000000000000006064820152fd5b606482601c6040519162461bcd60e51b8352602060048401528201527f52656e74616c4875623a20646576696365496420746f6f206c6f6e67000000006044820152fd5b60848260236040519162461bcd60e51b8352602060048401528201527f52656e74616c4875623a2064657669636549642063616e6e6f7420626520656d60448201527f70747900000000000000000000000000000000000000000000000000000000006064820152fd5b346102e65760006003193601126102e6576020600b54604051908152f35b346102e65760206003193601126102e657600435600052601060205261089a610dce6040600020613054565b604051918291826130fb565b346102e65760406003193601126102e6576020610e01610df8612f14565b60243590613430565b6040519015158152f35b346102e65760206003193601126102e657600435600052600a6020526101206040600020610eae815491600181015490600281015473ffffffffffffffffffffffffffffffffffffffff600383015416600483015460058401549160068501549360ff600860078801549701541696604051998a5260208a015260408901526060880152608087015260a086015260c085015260e0840152610100830190613127565bf35b346102e65760006003193601126102e6576020600654604051908152f35b346102e65760006003193601126102e6576020600554604051908152f35b346102e65760206003193601126102e657600435610f0861331d565b5080600052600460205260406000205415610fe057600052600460205260c0604060002060ff600560405192610f3d84612e2d565b805484526001810154602085015273ffffffffffffffffffffffffffffffffffffffff60028201541660408501526003810154606085015260048101546080850152015416151560a0820152610eae604051809260a08091805184526020810151602085015273ffffffffffffffffffffffffffffffffffffffff6040820151166040850152606081015160608501526080810151608085015201511515910152565b608460405162461bcd60e51b815260206004820152602160248201527f52656e74616c4875623a206c697374696e6720646f6573206e6f74206578697360448201527f74000000000000000000000000000000000000000000000000000000000000006064820152fd5b346102e65760206003193601126102e6576024604073ffffffffffffffffffffffffffffffffffffffff600354166110838115156133b2565b8151928380927fd875c25500000000000000000000000000000000000000000000000000000000825260043560048301525afa908115611133576000906000926110f2575b506040805173ffffffffffffffffffffffffffffffffffffffff9290921682526020820192909252f35b9150506040813d60401161112b575b8161110e60409383612e49565b810103126102e657602061112182613503565b91015190826110c8565b3d9150611101565b6040513d6000823e3d90fd5b346102e65760006003193601126102e657602073ffffffffffffffffffffffffffffffffffffffff60005416604051908152f35b346102e65760206111a161119561119b61118c36612dbb565b92919390613524565b91613524565b9161353e565b15604051908152f35b346102e6576020806003193601126102e6576004356111c7613185565b80600052601082526111dc6040600020613054565b91825115611363576111ee8233613430565b8015611342575b156112d8576112338160405160008651918381818a0194611217818388612ef1565b8101601181520301902055604051809381928851928391612ef1565b8101601281520301902060ff1981541690558160005260108152604060002061125c815461301a565b8061129a575b5050507fe4d9830bd62f99e293891c7605f7ec948718ae0061b04b8f5c7adcdf0e8c29e6604051806112953395826130fb565b0390a3005b600092601f82116001146112b4575050555b828080611262565b82845283209183916112d190601f0160051c84016001850161359d565b55556112ac565b6084906040519062461bcd60e51b82526004820152602760248201527f52656e74616c4875623a206e6f7420617574686f72697a656420746f20756e7260448201527f65676973746572000000000000000000000000000000000000000000000000006064820152fd5b5073ffffffffffffffffffffffffffffffffffffffff6000541633146111f5565b6064906040519062461bcd60e51b82526004820152601f60248201527f52656e74616c4875623a206e6f206465766963652072656769737465726564006044820152fd5b346102e65760006003193601126102e6576113c0613134565b6113c8613185565b600160ff1960025416176002557f62e78cea01bee320cd4e420270b5ea74000d11b0c9f74754ebdbfc544b05a2586020604051338152a1005b346102e65760406003193601126102e657600435602435611420613185565b61142861322f565b8015611605576114388233613430565b1561159b576005549061144a826131bb565b60055560405161145981612e2d565b828152600560208201918583526040810133815260608201858152608083019142835260a08401956001875288600052600460205260406000209451855551600185015573ffffffffffffffffffffffffffffffffffffffff600285019151167fffffffffffffffffffffffff0000000000000000000000000000000000000000825416179055516003830155516004820155019051151560ff60ff19835416911617905560065492600760205283604060002055680100000000000000008410156115855761154d83611535866001602098016006556131ca565b90919060001983549160031b92831b921b1916179055565b604051918252827fd82eb95ca243c745e58699f55793d1f00a035250e5a0bb63d9ee16e8236d53de853394a460018055604051908152f35b634e487b7160e01b600052604160045260246000fd5b608460405162461bcd60e51b815260206004820152603e60248201527f52656e74616c4875623a206f6e6c79206d616a6f72697479207368617265686f60448201527f6c6465722063616e206372656174652072656e74616c206c697374696e6700006064820152fd5b608460405162461bcd60e51b8152602060048201526024808201527f52656e74616c4875623a2070726963655065724e69676874206d75737420626560448201527f203e2030000000000000000000000000000000000000000000000000000000006064820152fd5b346102e65760006003193601126102e657611687613134565b600073ffffffffffffffffffffffffffffffffffffffff81547fffffffffffffffffffffffff000000000000000000000000000000000000000081168355167f8be0079c531659141344cd1fd0a4f28419497f9722a3daafe3b4186f6b6457e08280a3005b346102e65760206003193601126102e65760043567ffffffffffffffff81116102e65760ff602061172281933690600401612fec565b91908260405193849283378101601281520301902054166040519015158152f35b346102e6576020806003193601126102e65760405160043561176482612e10565b60008252600083830152600060408301526000606083015260006080830152600060a0830152600060c0830152600060e083015260006101008093015280600052600a8352604060002054156118b157600052600a82526040600020604051916117cd83612e10565b815483526001820154938084019485526002830154926040850193845273ffffffffffffffffffffffffffffffffffffffff80600383015416906060870191825260048301546080880190815260058401549160a0890192835260068501549360c08a0194855260ff600860078801549760e08d0198895201541698888b019760038b101561189b576101209c610eae9b8a526040519c518d5251908c01525160408b0152511660608901525160808801525160a08701525160c08601525160e08501525190830190613127565b634e487b7160e01b600052602160045260246000fd5b6064836040519062461bcd60e51b825280600483015260248201527f52656e74616c4875623a2072656e74616c20646f6573206e6f742065786973746044820152fd5b346102e65760006003193601126102e657602073ffffffffffffffffffffffffffffffffffffffff60025460081c16604051908152f35b346102e6576020806003193601126102e65760043590611949613185565b61195161322f565b81600052600a8152604060002060088082019081549060ff8216600381101561189b57611b455773ffffffffffffffffffffffffffffffffffffffff806003860154163314908115611b25575b5015611ae15760048401549283421015611a7757600260ff1980941617905560056001850154940154925b838110611a365750505050600052600981526040600020908154906000835581611a1b575b33847f13baeac73b5c5a6f84bc5edecc0ba0576e1e5f59a6e28512e5c0309855ab3a8b600080a360018055005b611a2e926000526000209081019061359d565b8180806119ee565b8460005281865260406000208160005286526040600020838154169055620151808101809111156119c957634e487b7160e01b600052601160045260246000fd5b6084866040519062461bcd60e51b82526004820152602760248201527f52656e74616c4875623a2063616e6e6f742063616e63656c206166746572206360448201527f6865636b2d696e000000000000000000000000000000000000000000000000006064820152fd5b6064856040519062461bcd60e51b82526004820152601960248201527f52656e74616c4875623a206e6f7420617574686f72697a6564000000000000006044820152fd5b90506001850154600052600486526002604060002001541633148761199e565b6064856040519062461bcd60e51b82526004820152601c60248201527f52656e74616c4875623a2072656e74616c206e6f7420616374697665000000006044820152fd5b346102e65760006003193601126102e657602060ff600254166040519015158152f35b346102e65760206003193601126102e65760043567ffffffffffffffff81116102e6576020611be081923690600401612fec565b91908260405193849283378101601181520301902054604051908152f35b346102e65760206003193601126102e657600435600052600460205260c0604060002080549060018101549073ffffffffffffffffffffffffffffffffffffffff60028201541660038201549060ff6005600485015494015416936040519586526020860152604085015260608401526080830152151560a0820152f35b346102e65760006003193601126102e657600654611c998161334f565b9060005b818110611cb2576040518061089a8582612f5a565b80611cbf611d4c926131ca565b9054600391821b1c60005260ff60056020926004845260406000209060405194611ce886612e2d565b8254865260018301549086015273ffffffffffffffffffffffffffffffffffffffff6002830154166040860152810154606085015260048101546080850152015416151560a0820152611d3b828661339e565b52611d46818561339e565b506131bb565b611c9d565b346102e65760006003193601126102e657602073ffffffffffffffffffffffffffffffffffffffff600f5416604051908152f35b346102e65760006003193601126102e657611d9e613134565b60025460ff811615611ddd5760ff19166002557f5db9ee0a495bf2e6ff9c91a7834c1ba4fdd244a5e8aa4e537bd38aeae4b073aa6020604051338152a1005b60046040517f8dfc202b000000000000000000000000000000000000000000000000000000008152fd5b346102e65760006003193601126102e657602073ffffffffffffffffffffffffffffffffffffffff60035416604051908152f35b346102e6576020806003193601126102e6576006546004356000805b838110611f595750611e689061334f565b9260009060005b848110611e84576040518061089a8882612f5a565b611e8d816131ca565b9054600391821b1c6000526004835260019085826040600020015414611ebe575b5050611eb9906131bb565b611e6f565b93611f519160ff60058597611ed5611eb9976131ca565b905490821b1c6000526004885260406000209060405194611ef586612e2d565b825486528201548986015273ffffffffffffffffffffffffffffffffffffffff6002830154166040860152810154606085015260048101546080850152015416151560a0820152611f46828a61339e565b52611d46818961339e565b929087611eae565b611f62816131ca565b90549060031b1c600052600485528260016040600020015414611f8e575b611f89906131bb565b611e57565b90611f9b611f89916131bb565b919050611f80565b346102e65760206003193601126102e65773ffffffffffffffffffffffffffffffffffffffff611fd1612f14565b611fd9613134565b16801561203157807fffffffffffffffffffffffff000000000000000000000000000000000000000060035416176003557fde95e05877a88c6ef1512b6bce580432ead36a997c8b83ebad1351a9d4c1f5a2600080a2005b606460405162461bcd60e51b815260206004820152601e60248201527f52656e74616c4875623a20696e76616c696420687562206164647265737300006044820152fd5b346102e6576020806003193601126102e657600435600052600d8152604060002090604051908181845491828152019360005281600020916000905b8282106120c85761089a8561088e81890382612e49565b8354865294850194600193840193909101906120b1565b346102e65760006003193601126102e6576020600e54604051908152f35b346102e657602060ff612113826107fa36612e88565b8101601281520301902054166040519015158152f35b346102e6576020806003193601126102e65760043560005260098152604060002090604051908181845491828152019360005281600020916000905b82821061217c5761089a8561088e81890382612e49565b835486529485019460019384019390910190612165565b346102e65760206003193601126102e6576004356121af613134565b6103e881116121e9576020817f45610d581145924dd7090a5017e5f2b1d6f42213bb2e95707ff86846bbfcb1ca92600e55604051908152a1005b606460405162461bcd60e51b815260206004820152602060248201527f52656e74616c4875623a206665652063616e6e6f7420657863656564203130256044820152fd5b61223636612dbb565b9091612240613185565b61224861322f565b80600052600460205260406000209261226760ff60058601541661326a565b82811015612d7757428110612d0d5773ffffffffffffffffffffffffffffffffffffffff6002850154163314612ca3576122a36122a991613524565b92613524565b906122b582848361353e565b612c5f57620151806122c784846132b5565b048015612bf55760038501546122dc916132c2565b92833410612bb1576127106122f3600e54866132c2565b04936122ff85826132b5565b94825b858110612b275750600b5495612317876131bb565b600b556001880154876040519161232d83612e10565b818352602083019088825260408401908152606084013381526080850189815260a08601918c835260c08701938a855260e088019542875261010089019760008952600052600a60205260406000209851895551600189015551600288015573ffffffffffffffffffffffffffffffffffffffff600388019151167fffffffffffffffffffffffff00000000000000000000000000000000000000008254161790555160048601555160058501555160068401555160078301555190600382101561189b576008019060ff60ff19835416911617905533600052600c60205261241a876040600020613201565b6001880154600052600d602052612435876040600020613201565b80612577575b50806124fe575b5080341161249b575b608085927fe95f0b251c2daddc09ad4488195316dacb3bf5ade015e1dd9ec285864eb236e4926001602099015496604051923384528a84015260408301526060820152a460018055604051908152f35b60008080806124aa85346132b5565b335af16124b56132d5565b5061244b57606460405162461bcd60e51b815260206004820152601860248201527f52656e74616c4875623a20726566756e64206661696c656400000000000000006044820152fd5b60008080809373ffffffffffffffffffffffffffffffffffffffff600f54165af16125276132d5565b50156125335786612442565b606460405162461bcd60e51b815260206004820152601d60248201527f52656e74616c4875623a20666565207061796d656e74206661696c65640000006044820152fd5b92939195600188929801549573ffffffffffffffffffffffffffffffffffffffff6003541693604051947f686735c5000000000000000000000000000000000000000000000000000000008652886004870152600086602481845afa95861561113357600096612a70575b50855115612a2c576000602491604051928380927feac8f5b80000000000000000000000000000000000000000000000000000000082528d60048301525afa801561113357600090612928575b6040915001519687156128e45760009960005b87518110156128065773ffffffffffffffffffffffffffffffffffffffff61266a828a61339e565b51166126e560208d73ffffffffffffffffffffffffffffffffffffffff60025460081c1660405180809581947efdd58e00000000000000000000000000000000000000000000000000000000835288600484016020909392919373ffffffffffffffffffffffffffffffffffffffff60408201951681520152565b03915afa908115611133576000916127d4575b508061270f575b505061270a906131bb565b612642565b612719908b6132c2565b8b156127be578b900480156126ff57909c81810180911161060c579c5a6000809381938293f16127476132d5565b5015612754578d806126ff565b608460405162461bcd60e51b815260206004820152602560248201527f52656e74616c4875623a207368617265686f6c646572207061796d656e74206660448201527f61696c65640000000000000000000000000000000000000000000000000000006064820152fd5b634e487b7160e01b600052601260045260246000fd5b90506020813d6020116127fe575b816127ef60209383612e49565b810103126102e657518f6126f8565b3d91506127e2565b5095939991975095919750989298808211612823575b505061243b565b61282c916132b5565b90811515806128da575b612841575b8061281c565b8051156128c457600080809373ffffffffffffffffffffffffffffffffffffffff602083950151165af16128736132d5565b501561288057878061283b565b606460405162461bcd60e51b815260206004820152601e60248201527f52656e74616c4875623a2064757374207061796d656e74206661696c656400006044820152fd5b634e487b7160e01b600052603260045260246000fd5b5080511515612836565b606460405162461bcd60e51b815260206004820152601a60248201527f52656e74616c4875623a206e6f207368617265732065786973740000000000006044820152fd5b503d90816000823e61293a8282612e49565b60208183810103126102e657805167ffffffffffffffff81116102e65760a081830184840103126102e657604051918260a081011067ffffffffffffffff60a0850111176115855760a0830160405280820180518452602001519167ffffffffffffffff83116102e657848201601f84838501010112156102e657828183010151916129c583612e6c565b956129d36040519788612e49565b838752810160208486858501010101116102e65785612a04608094612a229660208060409b01918787010101612ef1565b60208601520180850151858501526060808201519085015201613423565b608082015261262f565b606460405162461bcd60e51b815260206004820152602060248201527f52656e74616c4875623a206e6f207368617265686f6c6465727320666f756e646044820152fd5b9095503d806000833e612a838183612e49565b60208282810103126102e65781519067ffffffffffffffff82116102e657808301601f8385010112156102e6578183015191612abe83613305565b93612acc6040519586612e49565b8385526020850192810160208560051b8484010101116102e65780820160200192915b60208560051b82840101018410612b0c575050505050948b6125e2565b6020808094612b1a87613503565b8152019401939250612aef565b8460005260088060205260406000208260005260205260ff6040600020541615612b71575b506201518081018091111561230257634e487b7160e01b600052601160045260246000fd5b856000526020526040600020816000526020526040600020600160ff19825416179055846000526009602052612bab816040600020613201565b88612b4c565b606460405162461bcd60e51b815260206004820152601f60248201527f52656e74616c4875623a20696e73756666696369656e74207061796d656e74006044820152fd5b608460405162461bcd60e51b815260206004820152602560248201527f52656e74616c4875623a206d75737420626f6f6b206174206c6561737420312060448201527f6e696768740000000000000000000000000000000000000000000000000000006064820152fd5b606460405162461bcd60e51b815260206004820152601f60248201527f52656e74616c4875623a20646174657320616c726561647920626f6f6b6564006044820152fd5b608460405162461bcd60e51b815260206004820152602960248201527f52656e74616c4875623a206f776e65722063616e6e6f742072656e74206f776e60448201527f2070726f706572747900000000000000000000000000000000000000000000006064820152fd5b608460405162461bcd60e51b815260206004820152602160248201527f52656e74616c4875623a2063616e6e6f7420626f6f6b2070617374206461746560448201527f73000000000000000000000000000000000000000000000000000000000000006064820152fd5b606460405162461bcd60e51b815260206004820152601860248201527f52656e74616c4875623a20696e76616c696420646174657300000000000000006044820152fd5b60031960609101126102e657600435906024359060443590565b6020908160408183019282815285518094520193019160005b828110612dfc575050505090565b835185529381019392810192600101612dee565b610120810190811067ffffffffffffffff82111761158557604052565b60c0810190811067ffffffffffffffff82111761158557604052565b90601f601f19910116810190811067ffffffffffffffff82111761158557604052565b67ffffffffffffffff811161158557601f01601f191660200190565b60206003198201126102e65760043567ffffffffffffffff81116102e657816023820112156102e657806004013590612ec082612e6c565b92612ece6040519485612e49565b828452602483830101116102e65781600092602460209301838601378301015290565b60005b838110612f045750506000910152565b8181015183820152602001612ef4565b6004359073ffffffffffffffffffffffffffffffffffffffff821682036102e657565b6024359073ffffffffffffffffffffffffffffffffffffffff821682036102e657565b6020908160408183019282815285518094520193019160005b828110612f81575050505090565b909192938260c082612fe0600194895160a08091805184526020810151602085015273ffffffffffffffffffffffffffffffffffffffff6040820151166040850152606081015160608501526080810151608085015201511515910152565b01950193929101612f73565b9181601f840112156102e65782359167ffffffffffffffff83116102e657602083818601950101116102e657565b90600182811c9216801561304a575b602083101461303457565b634e487b7160e01b600052602260045260246000fd5b91607f1691613029565b90604051918260008254926130688461301a565b9081845260019485811690816000146130d75750600114613094575b505061309292500383612e49565b565b9093915060005260209081600020936000915b8183106130bf57505061309293508201013880613084565b855488840185015294850194879450918301916130a7565b905061309295506020935060ff1991501682840152151560051b8201013880613084565b601f19601f604093602084526131208151809281602088015260208888019101612ef1565b0116010190565b90600382101561189b5752565b73ffffffffffffffffffffffffffffffffffffffff60005416330361315557565b60246040517f118cdaa7000000000000000000000000000000000000000000000000000000008152336004820152fd5b60ff6002541661319157565b60046040517fd93c0665000000000000000000000000000000000000000000000000000000008152fd5b600019811461060c5760010190565b6006548110156128c45760066000527ff652222313e28459528d920b65115c16c04f3efc82aaedc97be59f3f377c0d3f0190600090565b8054906801000000000000000082101561158557600182018082558210156128c45760005260206000200155565b600260015414613240576002600155565b60046040517f3ee5aeb5000000000000000000000000000000000000000000000000000000008152fd5b1561327157565b606460405162461bcd60e51b815260206004820152601d60248201527f52656e74616c4875623a206c697374696e67206e6f74206163746976650000006044820152fd5b9190820391821161060c57565b8181029291811591840414171561060c57565b3d15613300573d906132e682612e6c565b916132f46040519384612e49565b82523d6000602084013e565b606090565b67ffffffffffffffff81116115855760051b60200190565b6040519061332a82612e2d565b8160a06000918281528260208201528260408201528260608201528260808201520152565b9061335982613305565b6133666040519182612e49565b828152601f196133768294613305565b019060005b82811061338757505050565b60209061339261331d565b8282850101520161337b565b80518210156128c45760209160051b010190565b156133b957565b608460405162461bcd60e51b815260206004820152602160248201527f52656e74616c4875623a20736d6172742072656e7420687562206e6f7420736560448201527f74000000000000000000000000000000000000000000000000000000000000006064820152fd5b519081151582036102e657565b6134b49160209173ffffffffffffffffffffffffffffffffffffffff600354169061345c8215156133b2565b6040518095819482937fbd788162000000000000000000000000000000000000000000000000000000008452600484016020909392919373ffffffffffffffffffffffffffffffffffffffff60408201951681520152565b03915afa908115611133576000916134ca575090565b906020823d82116134fb575b816134e360209383612e49565b810103126134f857506134f590613423565b90565b80fd5b3d91506134d6565b519073ffffffffffffffffffffffffffffffffffffffff821682036102e657565b6201518080910481810291818304149015171561060c5790565b909291925b83811061355257506000925050565b60ff600083815260209060088252604091828220908583525220541661359557620151808101809111156135435760246000634e487b7160e01b81526011600452fd5b506001925050565b8181106135a8575050565b6000815560010161359d565b60009080825260076020526040822054600654906000199182810190811161365757808203613627575b50506006548015613613578101906135f5826131ca565b909182549160031b1b19169055600655815260076020526040812055565b602484634e487b7160e01b81526031600452fd5b613630906131ca565b90549060031b1c61364481611535846131ca565b84526007602052604084205538806135de565b602485634e487b7160e01b81526011600452fd5b604080519390928492818185378184016012815260ff9485916020988991030190205416156137c357859082865193849283378101601181520301902054926000938452600d8552808420948151808783829954938481520190885283882092885b858282106137ad575050506136e492500387612e49565b845b86518110156137a1576136f9818861339e565b518652600a825282862060038082015473ffffffffffffffffffffffffffffffffffffffff8781169116149081613776575b5080613768575b8061375b575b61374b5750613746906131bb565b6136e6565b9650505050505050549060019190565b5060058101544210613738565b506004810154421015613732565b60088301548816915081101561378d57153861372b565b602488634e487b7160e01b81526021600452fd5b50505050509190508190565b855484526001958601958c9550930192016136cd565b50505050505060009060009056fea2646970667358221220ab30e54d7fcbd74907baa9b8e54569363d76d9363b58d7bd35234fb42c07b27264736f6c63430008140033",
  "linkReferences": {},
  "deployedLinkReferences": {}
}